:020000040000fa
:080000000002040000000000f2
:020000040000fa
:10040000efa720000e7f22000e01880000000000f0
:100410000c000700e0a721000100200011000700e8
:10042000000020000000e000020032000000020096
:1004300000000000a8120200000000000040da00e6
:100440000000fe004440a900a01720000000e000ca
:100450000300320000002000a00188004440a800f2
:100460000000060091018800800078000000eb0089
:1004700015003700e280400032a0b4009101ba00bc
:10048000e280400032a0b4009102ba00e280400055
:1004900032a0b4000002eb00472bde00f507b200eb
:1004a000602ce10004003a000059eb008301e900f0
:1004b000fdff3e00040037006128e100010032002a
:1004c0000082eb00040007001101ba000200e00006
:1004d000e8ff3a00000006003159ba008301e90044
:1004e0000c0032002159ba008301e90008003200f3
:1004f0000400e00003003a00e280400032a0b400b3
:10050000f5ff370011d9ba008301e900faff3a007c
:100510008100e800e180400032a0b4000000060045
:100520000040da000000fe001004b10003003500b6
:100530009001b10001003c00100005000000050022
:10054000800078001104b100030035009101b10072
:1005500001003c000050a000000006001004b100a3
:10056000070035009001b100040034007000b100b4
:10057000030035009001b10001003c0010000500af
:10058000000005006900e100040035006d00e10095
:10059000030034000002b100010032000000050039
:1005a000100005000a00fa00881f7800800178001a
:1005b0000000e00029003a00e0538000e10f500005
:1005c00008003200802320000000e0000500320017
:1005d00004232000252320006723200080017800c9
:1005e000040037000422200025222000672220007a
:1005f00083222000144090000004e0000400350035
:100600008009eb00144090000074a0001042980094
:100610000002eb000c003700130a2000154478009c
:100620006140640002003a008301e900fbff3a00e8
:100630000402e8009541780061c0610005003200c5
:10064000170078008058780004035100820f520090
:10065000f1ff3a000600510008003700200020009a
:10066000a0bf9f00b3bf9f00c1bf9f00d2bf9f002c
:100670006c80570000c0da005fb897004f04780024
:100680000080fa00000006000a00fa0080017800ed
:10069000e20f500028003e00e0538000e10f5000c0
:1006a00008003200802320000000e0000500320036
:1006b0000423200025232000462320008001780009
:1006c00004003700042220002522200046222000ba
:1006d00083222000144090000004e0000400350054
:1006e0008009eb00144090000074a00010429800b4
:1006f000154090000028a30003003a001540900028
:100700000024a000904298008001eb000700370011
:10071000154090000008a300fdff320063c0780080
:100720000000fb00000b78008301e800828f51007d
:10073000f7ff3a000800370030002000b0bf9f00ec
:10074000c3bf9f00d1bf9f00e2bf9f006a805700d8
:1007500000c0da006fb99700020078000080fa004c
:1007600000000600020ab900001bb9000200b80030
:10077000810042008100430000000600881f7800cd
:10078000000478005001be004000be00040040009c
:10079000858048000601490087814900009cbe0011
:1007a0000294be000400e1000588e1000690e1002b
:1007b0000798e10002003100680044001008e800da
:1007c0004f04780000000600f4874700889fbe00b1
:1007d0008a9fbe008c9fbe008e1f78000205be005f
:1007e0000004be00d4b79f00e5b79f00f6b79f0096
:1007f00087bf9f000000eb00c0b79f00b0b79f000d
:10080000a0b79f0090b79f0080b79f000d04200005
:10081000bfb097004fb09700000140000000e0001b
:100820000f003d004f08de0000007100c0b79f00c0
:100830009e00070001003d0012002000a1000700fb
:1008400001003d0012002000a6000700b1000700d3
:10085000b60007000f004000c8ff07002200370065
:100860004f08de0000067100ccb79f008f00070024
:1008700001003d00120020009200070001003d0031
:100880001200200097000700a20007000fb2970097
:100890009fb297002fb39700bfb39700a90007003e
:1008a0000000520081805a0002015b0083815b00de
:1008b00080b79f0091b79f00a2b79f00b3b79f007a
:1008c0000007eb009f0007000020e10001a8e10005
:1008d00002b0e10003b8e100010031001e00200079
:1008e0000e005600c0b79f004fb297000400e00012
:1008f0000700350010002000010020006011b80042
:1009000008047000898470000a0571008b857100ed
:100910008d06e900beff3a000400e00003003d0040
:10092000820007000f00400094ff07004fa89700c7
:100930000000e00004003a000fb497009fb4970055
:100940002fb59700bfb59700940007004f077800b8
:100950004f06be004f05be004f04be004f01b10060
:1009600000000600881f780018002000881f78000b
:1009700095ff07008f87e9004f047800000006000c
:10098000801feb0090ff07008f87e9000000060042
:10099000889fbe008a9fbe008c1f78006e000700f3
:1009a00007003d0073000700e00f5b00e08f5b0075
:1009b00007003d00320007000006eb00040037008e
:1009c0003400070002003d002a0007001c00200040
:1009d00072000700e3ff07000203be000002be0032
:1009e0000c00e00001003200220007000400be00fd
:1009f0000601be004f0678004f05be004f04be0042
:100a000000000600889fbe008a9fbe008c1f7800f1
:100a10005100070005003d0056000700e00f5b0095
:100a2000e08f5b0006003d0004003700190007005e
:100a300003003d006000b8006011b800100007001e
:100a400056000700ceff07000203be000002be00f2
:100a50000c00e00001003200060007000400be00a8
:100a60000601be004f0678004f05be004f04be00d1
:100a7000000006006000b8006011b80000003700f8
:100a800004025000858258000603590087835900ec
:100a9000000006000006eb00e00f5200e08f5a0055
:100aa000e00f5b00e08f5b0000000600018040006b
:100ab00090b79f000001eb008fb097000100e000ad
:100ac000000006000200700090b79f000180400007
:100ad00080b79f000001eb00ffa897000100e00035
:100ae000000006000200700080b79f0001804000f7
:100af0006faa9700cf20de0001007000f0af9f00ca
:100b000004024200250007004f18de0000027200b8
:100b100000000600e4af9f000804440089844c00f4
:100b20000a054d008b854d00000006003fb297007e
:100b3000cfb297005fb39700efb3970000fe2f008e
:100b4000000006003fb09700cfb097005fb197005c
:100b5000efb19700000006000205be000004be00d1
:100b6000e00f5000e08f5800e00f5900e08f59006f
:100b7000000006006000b8006011b80008045000d2
:100b8000898458000a0559008b8559001c002000f3
:100b9000e00f5200e08f5a00000006000800be007f
:100ba0000a01be00000006000c00fa00a0bf9f0072
:100bb000c0bf9f0010000700b0bf9f00f0bf9f00a4
:100bc000100c2000d0bf9f0074815700efb0970039
:100bd0006c8057003a0007000080fa000000060011
:100be0000000fa004fb99700e8815700550107004f
:100bf0000080fa0000000600800078003004e00069
:100c0000feff3a00010050000000e900000006006d
:100c1000889fbe00000478008144780000fd2f000a
:100c200000004400e90f500002003e00000178007f
:100c30000d003700080078003bfe07000000e000d0
:100c400003003200080078003dfe07000004780031
:100c50000800780041fe07000000e00007003200b5
:100c600090fa2f00000144000980fb00800f510022
:100c700002003d000280fb0001003700f00f200061
:100c80004f04be0000000600881f7800d05380008b
:100c900046010700000478003afe07000000e0006b
:100ca000faff3a00e10f440003003200d153800004
:100cb00008007800710107004f047800000006006a
:100cc000ec874700889fbe008a9fbe008c9fbe00b5
:100cd0008e1f780081bf9f0002077800d0538800e4
:100ce0008046eb00040137008884fb00090078008f
:100cf00024fe0700800078000000e00002003200bf
:100d0000e1ff0700fc00370050c2b300804f5400e1
:100d1000f0003a000fbd970020c0b300c0ef9f0065
:100d2000d1ef9f0081ef9f000300370040c0b30068
:100d3000c0ef9f000fbd97000fb99700b240780039
:100d400082bf9f008184fb0090c6b30080cf50001b
:100d50003500320017003e006640500080cf500042
:100d6000620032000c003e007740500080cf5000ff
:100d70002800320006003e000104e0009b00320023
:100d8000a0c2b30080cf50006e003a001d003700b3
:100d900080c5b3001600370040c6b30080cf5000b6
:100da000210032006440400080cf500065003a00ce
:100db0001200370030c7b30080cf50001e00320051
:100dc00007003e006740500080cf50001100320005
:100dd0006340400080cf50005a003a0014003700b2
:100de00050c7b30080cf50000f0032006340400076
:100df00080cf500053003a006500370020c0b30098
:100e0000cbff3700dfe897008140e800d1ef9f007b
:100e1000c8ff37004fe9970080c0b300e24f510090
:100e2000c3ff3a00c1ff3700acc0b3005900370020
:100e30008cc0b3005700370093ff0700dfe897002e
:100e40000104e00002003a004e017800d2b79f0092
:100e5000d0538000d500070000047800e10f400067
:100e6000a20032008fec9700120037000a85e800dc
:100e70008abf9f00160037008fb897001100fb0053
:100e8000800f5400f9ff32005fe997000204e00090
:100e900003003a005fb0970008587800d0b79f0071
:100ea0008944e9000a003200d0538000bf000700e7
:100eb000000478000800e800e10f5000040036004c
:100ec00008007800affd07000000e000eaff3200f4
:100ed000dfe897000104e00087003a008d46e80053
:100ee0005fb1970001497800830037005fe8970001
:100ef0000004e00003003a008d46e800ce007800d0
:100f0000d1b79f00d0538000a8000700e10f400038
:100f1000760032005fe997000204e00003003a0027
:100f2000dfb0970080587800d1b79f000fe9970095
:100f30000241e90082ef9f004240a9006e003400a8
:100f4000f0ff37000180fb0008fd2f000800400083
:100f5000e90f50005f003e000a007800e40007003f
:100f600080ef9f0088007800030037000fb89700db
:100f70000000e80080bf9f000fb997001200fb003f
:100f800001004000e90f5000f8ff360069ff37000c
:100f90000cc1b3003cff0700d05380008300070062
:100fa000000578000040eb00e0ef9f00d002200039
:100fb000800f550005003a00d05380007b000700e9
:100fc0000005780011c0b300e1ef9f008c4078006d
:100fd0000a0078000eff0700e14f40000a003a00c7
:100fe000d15380000a007800a40007000d04e0003f
:100ff0004b003a00d0538000300090000048a3001e
:1010000043003200480037008fed97006044b8007d
:101010000c81fb00030020000800be00d1fd07008a
:101020000004be008c4078000a007800f8fe07003b
:101030000080fb0001002000080440008984480073
:101040008b45e90007003200d053800057000700ad
:10105000000578008c407800edfe0700e14f40006d
:10106000ebff3a008c4078000a007800e8fe0700a9
:10107000e14f400003003a00d15380000a0078009d
:101080007e0007006fe997000204e00002003200d2
:1010900060041400e0841c005fe897000004e00096
:1010a00015003a008d46e800cfe89700e4cf5000e5
:1010b00003003a004e0078000888be000e0037009a
:1010c0000e81e90002077800120078000808780015
:1010d00009003700d053800034000700808f54008f
:1010e00005003200e10f40000b003a000d04e00063
:1010f0000d0032000a0037008fb8970031447800a5
:1011000081bf9f000804e000f7fe3a0004003700aa
:101110000000eb0005003700d153800057000700a6
:101120000d80fb00010037000080eb004f077800c6
:101130004f06be004f05be004f04be00cf00b100f9
:10114000000006000c00fa00881f780000027800fa
:1011500082027800030178008001eb00e18f5000eb
:101160000e0036000100e900e0bf9f000004eb0024
:10117000a8bf9f0094bf9f00b4bf9f00200c200019
:10118000c0bf9f00850078006e8057007c0007007c
:10119000800178001fb897000848780003007800a5
:1011a0004f0478000080fa0000000600881f7800d5
:1011b00000047800b00090000148a30007003a0046
:1011c0000108a300050032000198a30008003200c6
:1011d000100090000000e000050032003800900090
:1011e0000040a000300498008080eb002000370011
:1011f0000190a10031049800180090000000e00068
:10120000060034000000e90010049800180078007f
:10121000b080fb00000c780006003700380090001a
:101220000068a300edff3a000800780009030700fa
:1012300080007800380090000078a3000c003a008d
:10124000fa8f500008003a00280090000000e000eb
:10125000e2ff3200180090000000e800100498003f
:10126000180ce900ddff3700ed8f5000e2ff32007f
:10127000010078004f04780000000600800178002b
:10128000e10f400017003200310090000008a30079
:10129000140032000098a30012003a0021029000ce
:1012a0000400e0000f003200110190005100900096
:1012b000800f51000b00320011007800840f5000a5
:1012c00002003a008008e800020037000200e8004f
:1012d000900098001100e900800878000348780029
:1012e000010037008081eb00030078000000060059
:1012f0000001780000c2b300010037000201e800dd
:101300009240780080cf5000fcff3200e9cf5000bf
:10131000faff3200d0c2b30080cf500003003a0081
:101320000201e80014c0b300050037000042eb00e2
:10133000b0c2b30080cf500001003a000201e800c3
:101340008000eb0005fd2f00040037006a08b9009b
:1013500000804100850040000201e8009201fb008e
:1013600005804100e90f5000f8ff36000404e0005a
:10137000010032008100ea00010078000000060050
:10138000fe874700889fbe008a9fbe008c9fbe00dc
:101390008e1f7800f0b79f000107780082bf9f0082
:1013a0000000eb00a0b79f009f0237008006eb0013
:1013b00050c2b30080cf5000090032000100fb0092
:1013c000ffb09700f1020700e10f400096023200e3
:1013d000afb097008100e800a1b79f0092023700ec
:1013e0009e407800d0c2b30080cf50000c00320085
:1013f00007003c006d40500080cf50000a003200d2
:101400006b40400080cf50000e003a0008003700cb
:1014100000c3b30080cf50000a003a000600370036
:101420000d30a000050037000d00a00003003700bc
:101430000d10a000010037000d20a0000e07e800ed
:10144000e7ff37000d18a300010032000d00a100d6
:101450000d38a300010032000d20a1000100fb00a7
:1014600002fd2f0002004000e90f50000e003e0078
:101470000002eb00c4b79f0082017800cfb2970052
:101480006a28b9001e01fb00000141000301410070
:10149000c2b79f005e00fb0003004000e90f500050
:1014a0000b003e00f5ff37000006eb00ccb79f00b5
:1014b000a0c2b30080cf500005003a000fb89700db
:1014c000c000780080bf9f00c1b79f000e07e800f2
:1014d0000001eb00b2b79f00e0c2b3009e4f1000c6
:1014e00018003a000de0a0008e00e80064405000b3
:1014f000914f100002003200010778000c00370005
:101500000fba9700c402780084bf9f00b5b79f0050
:101510000e87e8000b0037003fb697006a60b900fd
:101520000000410003004000b0b79f000e07e80034
:101530001e01fb0003fd2f0003004100e90f5000d6
:10154000f5ff3600be407800e1d79f00c0c6b3006b
:1015500080cf5000220032000f003c006940500054
:1015600080cf50007700320004003c000104e0000e
:10157000310232006b4050000f00370040c6b3000c
:1015800080cf5000930032006540400080cf500073
:101590008b003a008f00370030c7b30080cf500077
:1015a0001a00320007003c006440500080cf500019
:1015b000110032000040e80080cf500080003a0067
:1015c0000f00370050c7b30080cf500080003200ba
:1015d0006340400080cf500079003a000900370096
:1015e000000028000d48a30001003a00000120007f
:1015f00080867600d3ff37000d60a00075003700ad
:101600000d50a0000d70a000720037008fb8970039
:101610004100780081bf9f00000478000000e000d6
:1016200001003a0048a220008004eb0001003700ce
:101630008104e80089007800088044001004e0007c
:10164000fbff3a003fb197000200e00003003200c8
:10165000890f510001003100820478000002eb0084
:10166000e4af9f00cfb29700898f5200020036008e
:1016700009805200e0af9f004368de00e106600091
:101680001b003a000d06780009003700ffb09700f4
:10169000000220003d020700e10f4000030032007d
:1016a0002fb097000000e800a0b79f000c06e800ec
:1016b000efa89700810f5600f4ff3a000081eb007d
:1016c000e2af9f000a003700880078003100fb007d
:1016d00001047800ffb097002c020700e10f4000e2
:1016e000030032002fb297000402e800a4b79f0065
:1016f0000900e90080047800e10f4000f2ff3a00a1
:101700000006eb000d00e0000a003a00c6013700b9
:10171000ffb09700000220001c020700e10f40000c
:1017200003003200afb297008502e800a5b79f0022
:101730000c06e8006fa89700800f5600f4ff3a00ef
:10174000b90137008fb897004100780081bf9f0032
:10175000cf80de0001017800820178000205be0022
:101760000004be000203be000002be004822de00ec
:10177000482edd0004027600e4d79f000d48a30048
:101780000a0032000404e00008003200e14f420089
:101790000600320071fd2f000180470004487800e8
:1017a000184098002900200002003700f0d79f0061
:1017b0001900200072fd2f0002844700a1ff3700ae
:1017c00064fd2f0004844700190020009dff3700ae
:1017d0000d0cb3000d007800000cb20028003a0098
:1017e0000d00e00005003d008fba97004505be00e2
:1017f0004504be0085bf9f00140037000d48a300bc
:101800000b0032000fbe97004c00be008cbf9f0043
:101810004f89de00cf91de000002be000203780097
:10182000820378000605be000404be0007003700ee
:101830008fb897004100780081bf9f0000047800b6
:10184000cfc4de00090578008a057800e00f540057
:10185000e08f5c00e00f5d00e08f5d001f003d0049
:101860003d00b3006000b8006011b80008045000eb
:10187000898458000a0559008b85590017003700e4
:101880000d00e00005003d000fb997004205be00c5
:101890004204be0082bf9f00100037000d48a30025
:1018a000070032000fba97004400be0084bf9f00bb
:1018b0006011b8000205be000004be00070037003a
:1018c0008fba97004500780085bf9f00000478001c
:1018d000090020000a0020000b0020003fb69700fe
:1018e0000c00e00007003a00e00f5400e08f5c00bd
:1018f000e00f5d00e08f5d0002003a001000200064
:10190000b0b79f008d007800010cb200e1b79f00d6
:1019100000042000808f50003000320003003c00a3
:101920000100e000080032004000370000082000fd
:101930006fb19700800f510014003200000c20009e
:10194000800f510039003a0014c0b30045982000c0
:101950000b0037000400fb004300dd0005004000e1
:101960005001be004000be000040e10001c8e1009f
:1019700002d0e10003d8e1002b0039000442e80066
:10198000f44f5200f3ff3a00270037000001200017
:10199000010020006011b80014c0b3000040e10055
:1019a00001c8e10002d0e10003d8e1001e003900c7
:1019b000450020000000d0008180d2000281d200ca
:1019c0008381d2008502e900faff3a000442e80070
:1019d000f04f5200f1ff3a00130037008000200062
:1019e000010020006011b80014c0b3000040e10005
:1019f00001c8e10002d0e10003d8e1000a0039008b
:101a00003c0020000000d0008180d2000281d20082
:101a10008381d2000c06e900faff3a000442e80094
:101a2000f54f5200f1ff3a00e4d79f00efd0970046
:101a30000100fb003fb19700820f500002003d0003
:101a4000e2d79f00040037003fb29700800f52009a
:101a500001003d00b0b79f00cfb297000500e00045
:101a60000400320063806600020032008502e90053
:101a7000c5b79f000de8a3000b0032004fb69700da
:101a80003fb09700800f560003003c008000eb0041
:101a9000c1b79f00040037004fb197003fb29700d5
:101aa00004015100c2b79f00efd297000500fb0070
:101ab0000006eb00dcaf9f00cfb09700808f500096
:101ac0000200340000805000d0af9f000d28a3001a
:101ad00037003200e18066000d18a3000c003200d0
:101ae000d00220000100e00001003a000080e9007f
:101af000ffb0970025010700e10f40000e00320003
:101b00002fb197000201e800a2b79f000a0037003a
:101b10000100e00008003200ffb097000002200042
:101b20001a010700e10f4000030032002fb29700b6
:101b30000402e800a4b79f00dfaa97000500e000b8
:101b40000f0032000006eb00ffb0970000032000fa
:101b50000e010700e10f4000030032002fb0970094
:101b60000000e800a0b79f000c06e800dfa897007f
:101b7000810f5600f4ff3a000001eb00d2af9f0046
:101b80003fb29700c320dd00c09720008080400056
:101b900091b79f004220dd006400500080b79f0095
:101ba0006320b900f0af9f00630650008400370047
:101bb000dfaa97000500e00011003200688066008f
:101bc0000f003a0000067800ffb0970000022000e6
:101bd000ee000700e10f4000030032002fb0970035
:101be0000000e800a0b79f000c06e800dfa89700ff
:101bf000810f5600f4ff3a000001eb00d2af9f00c6
:101c0000e18066000d18a3000c003200d002200015
:101c10000100e00001003a000080e900ffb09700f9
:101c2000da000700e10f4000d5ff32002fb2970025
:101c30000402e800a4b79f00d1ff37000100e000d4
:101c4000cfff3200ffb0970000022000cf00070056
:101c5000e10f4000caff3200afb297008502e800f2
:101c6000a5b79f00c6ff370000042000efb0970023
:101c7000808f50003100320003003c000100e00082
:101c8000080032003e003700000820006fb19700c6
:101c9000800f510011003200000c2000800f510015
:101ca00037003a001fb097003002be002003be008c
:101cb0000800be000a01be002afb0700a4002000a5
:101cc000050020006033b8002dfb070004c3b300fb
:101cd00004424000e4d79f0029003700b5a220004d
:101ce000d5b79f000d58a30002003a00c0a3200002
:101cf000d0b79f0014002000050020006033b8001a
:101d00008fb097008100e900050033000402d00085
:101d10008582d2000683d2008783d200f9ff370084
:101d20000800be000a01be000efb07006f00600045
:101d30005fb1970062407800100037001400200067
:101d4000050020006033b8000c0078000000e900b6
:101d5000050033000402d0008582d2000683d20041
:101d60008783d200f9ff37000800be000a01be00d9
:101d7000fcfa0700674060000043b000e0d79f0016
:101d8000efd097000100fb00ffb097007f00070035
:101d9000e10f4000030032002fb197000201e8007c
:101da000a2b79f001fb297006802520094b79f002d
:101db0008fb29700e482520085b79f0063065600f9
:101dc000d0ff2f003fb197000090b9007faa970085
:101dd0000000420063005000800f5600a2ff3a004e
:101de0000d38a30010003200dfaa97000500e000c4
:101df0000d0034000006eb00ffb097000002200049
:101e000062000700e10f4000030032002fb097008e
:101e10000000e800a0b79f000c06e800dfa89700cc
:101e2000810f5600f4ff3a00be407800e1d79f00d2
:101e30000104e0005dfd3a002fb097004f077800e5
:101e40004f06be004f05be004f04be00ef01b100bb
:101e5000000006000200fa00889fbe008a1f78007a
:101e6000000478000000eb00100498003800900097
:101e70008080eb000008a3003f00320080a7200014
:101e80001004e0001000320009a520006aa520001f
:101e90001a0078006c0545002010b20021102000c7
:101ea000810f500002003a00090078007e00070010
:101eb000ec84440040a72000808f5400f4ff3a00d7
:101ec00080a720000048eb004800900058019000d7
:101ed0000200e0000d003a001204980012002000f9
:101ee000e8805700aff90700e10f500003003a0007
:101ef0000ff897008080fb001f003700380090002b
:101f00000040a0003004980012003700a8009000a4
:101f1000a4f90700100498000000e000030032005c
:101f2000e10f40000d003a00030037003800900038
:101f30000040a00002003700380090000003b3000a
:101f400030049800a8009000010c78000000eb001d
:101f5000100498008080eb0007003700a800900074
:101f6000010c78000000e9001004980001007800de
:101f7000b080fb00000c7800010078004f0578006d
:101f80004f04be000080fa0000000600889fbe00db
:101f90000001780001047800b10090000118a3004e
:101fa0003d0032000198a30003003a0018009000a1
:101fb0000000e00038003a000190a00031049800d1
:101fc00082047800f90fb200180090000000e000d1
:101fd00002003a0028009000000c7800ea8f5400bc
:101fe00006003a00380090000078a30003003a0091
:101ff00088007800d0002000e4ff070098009000df
:1020000058009000808f50000b0032000100e80063
:10201000100498001800780009587800000c780027
:1020200011c0b30080a7200001487800ea8f540057
:102030000600320019003700880078000940780057
:102040004300070080047800140037003800900037
:102050000088a3001100320018019000a800900031
:102060004800900088f9070098009000810f500008
:1020700004003200380090000003b30030049800e0
:102080008084eb000000eb00100498002800900012
:10209000000c7800010037008084eb000900780014
:1020a0004f04be0000000600881f7800000478007e
:1020b000300090000008a300070032008000780084
:1020c0000120b20004003a0011049800a80090001a
:1020d000010c7800170037000018a3001900320027
:1020e0000098a30017003200a80090000100e00053
:1020f00014003200180190000200e00011003200cc
:102100004800900060f9070098009000810f50008f
:1021100003003200380090000003b3003004980040
:102120000000eb001004980028009000000c7800dc
:10213000380090000058a300020032000080eb003d
:10214000010037000000eb004f047800000006009b
:102150000200fa00889fbe00a0ff9f0001047800e3
:10216000b1009000810478000904b200020032003e
:102170000000fb00360037000118a30005003a00fc
:102180000103b30031049800190498000080eb00ab
:102190002f003700580090000000e00006003a00d1
:1021a0004800900012002000e680570036f9070032
:1021b0001904980024003700280090000000e00077
:1021c00008003a0040a7200020049800000c780086
:1021d0002000200050049800100498000130a00056
:1021e0003104980018019000a80090004800900069
:1021f00025f9070028009000000c78000080eb0013
:102200001004980018007800aff897000158780083
:10221000000c78002ff89700ea4f50000a003a00af
:10222000380090000088a3000700320018019000d9
:10223000a80090004800900013f9070019049800c6
:10224000a8009000010c7800aff897000100fb0097
:0c2250004f04be000080fa0000000600f1
:020000040000fa
:1000080090020000900200009002000090020000a0
:100018009002000090020000900200009002000090
:100028009002000090020000900200009002000080
:100038009002000090020000900200008819000061
:1000480090020000900200009002000018190000c1
:10005800b419000090020000900200009002000015
:100068009002000090020000900200009002000040
:100078009002000090020000900200009002000030
:100088009002000090020000900200009002000020
:100098009002000090020000900200009002000010
:1000a8009002000090020000900200009002000000
:1000b80090020000900200009002000090020000f0
:1000c80090020000900200009002000090020000e0
:1000d80090020000900200009002000090020000d0
:1000e80090020000900200009002000090020000c0
:1000f80090020000900200009002000090020000b0
:10010800900200009002000090020000900200009f
:10011800900200009002000090020000900200008f
:10012800900200009002000090020000900200007f
:10013800900200009002000090020000900200006f
:10014800900200009002000090020000900200005f
:10015800900200009002000090020000900200004f
:10016800900200009002000090020000900200003f
:10017800900200009002000090020000900200002f
:10018800900200009002000090020000900200001f
:10019800900200009002000090020000900200000f
:1001a80090020000900200009002000090020000ff
:1001b80090020000900200009002000090020000ef
:1001c80090020000900200009002000090020000df
:1001d80090020000900200009002000090020000cf
:1001e80090020000900200009002000090020000bf
:0801f8009002000090020000db
:020000040000fa
:10020800900200009002000090020000900200009e
:10021800900200009002000090020000900200008e
:10022800900200009002000090020000900200007e
:10023800900200009002000090020000881900005f
:1002480090020000900200009002000018190000bf
:10025800b419000090020000900200009002000013
:10026800900200009002000090020000900200003e
:10027800900200009002000090020000900200002e
:10028800900200009002000090020000900200001e
:10029800900200009002000090020000900200000e
:1002a80090020000900200009002000090020000fe
:1002b80090020000900200009002000090020000ee
:1002c80090020000900200009002000090020000de
:1002d80090020000900200009002000090020000ce
:1002e80090020000900200009002000090020000be
:1002f80090020000900200009002000090020000ae
:10030800900200009002000090020000900200009d
:10031800900200009002000090020000900200008d
:10032800900200009002000090020000900200007d
:10033800900200009002000090020000900200006d
:10034800900200009002000090020000900200005d
:10035800900200009002000090020000900200004d
:10036800900200009002000090020000900200003d
:10037800900200009002000090020000900200002d
:10038800900200009002000090020000900200001d
:10039800900200009002000090020000900200000d
:1003a80090020000900200009002000090020000fd
:1003b80090020000900200009002000090020000ed
:1003c80090020000900200009002000090020000dd
:1003d80090020000900200009002000090020000cd
:1003e80090020000900200009002000090020000bd
:0803f8009002000090020000d9
:020000040000fa
:10225c00504900004e4700004d5000004f4e00000a
:10226c004d5000004f4600004d5000004c4f0000f8
:10227c00424d00004f4e0000424d00004f46000002
:10228c004d50000053540000424d000053540000c8
:10229c00414300004b4e0000303000004143000031
:1022ac004b4e00003030000030300000384200004f
:1022bc000d0000000000000000000000a0860000df
:1022cc0001000000409c000000000000a0860000ff
:1022dc0001000000409c00000000000050c3000002
:1022ec0000000000102700000000000050c3000098
:1022fc0000000000102700000000000000d50000c6
:10230c007faa0000fe2b00008154000029fc000075
:10231c0056830000d7020000a87d00005287000001
:10232c002df80000ac790000d30600007bae000055
:10233c0004d1000085500000fa2f0000a4710000a9
:10234c00db0e00005a8f000025f000008d580000b5
:10235c00f227000073a600000cd90000f623000041
:10236c00895c000008dd000077a20000df0a000095
:10237c00a075000021f400005e8b00009d48000059
:10238c00e237000063b600001cc90000b461000015
:10239c00cb1e00004a9f000035e00000cf1a000061
:1023ac00b065000031e400004e9b0000e6330000f5
:1023bc00994c000018cd000067b2000039ec000009
:1023cc0046930000c7120000b86d000010c5000055
:1023dc006fba0000ee3b0000914400006bbe0000a1
:1023ec0014c1000095400000ea3f00004297000035
:1023fc003de80000bc690000c3160000ef3a000085
:10240c009045000011c400006ebb0000c613000014
:10241c00b96c000038ed000047920000bd68000068
:10242c00c2170000439600003ce9000094410000f4
:10243c00eb3e00006abf000015c000004b9e000080
:10244c0034e10000b5600000ca1f000062b7000054
:10245c001dc800009c490000e336000019cc0000a8
:10246c0066b30000e7320000984d000030e5000034
:10247c004f9a0000ce1b0000b164000072a7000050
:10248c000dd800008c590000f32600005b8e000074
:10249c0024f10000a5700000da0f000020f5000008
:1024ac005f8a0000de0b0000a174000009dc000054
:1024bc0076a30000f7220000885d0000d603000020
:1024cc00a97c000028fd000057820000ff2a0000b4
:1024dc008055000001d400007eab00008451000048
:1024ec00fb2e00007aaf000005d00000ad78000094
:1024fc00d2070000538600002cf900008351000025
:10250c00264c000020440000657600002e200000c0
:10251c00426400002e2000002b20000054690000b3
:10252c006d6500000000000025780000002500000b
:10253c0030340000780000002530000032780000b4
:04254c00000000008b
:020000040000fa
:102550004a00fa0020c4b300004f780000c3b30063
:10256000104798000040eb0073e9b7000c003700fb
:10257000900120004027980073c9bf000080fb0035
:102580000e81e80080004000800420000e00400022
:102590008030790073c9bf000040e80073e9b700dc
:1025a000319720009140780020c2b30080cf5000c6
:1025b000efff36008e80e8000e0178000040eb004f
:1025c0002100070065000700feff37000200fa0047
:1025d000004f780023c2bf00624060000004e000aa
:1025e000fcff3a001e00fb00201188000080fa006a
:1025f000000006000400fa00000f780011079800a0
:102600000040eb0073e9b7000800370073c9bf0052
:102610000080fb001e00400010407800ebff070028
:1026200073c9bf000040e80073e9b70073c9bf0079
:102630008080fb001e009000808f5000f3ff35006b
:102640000080fa00000006000600fa00004f780043
:1026500011079800220798001e40780069e9b7002a
:1026600041168000f0ff2e000080600040168800b8
:10267000f00020000019880000072000103a8800b0
:1026800061168000f0ff2e00008060006016880058
:102690000040eb0062e9b7000000eb00604b8800ef
:1026a0002e0090001040780063e9b7002e009000e3
:1026b0000000e8001040780064e9b7000040eb003b
:1026c00070e9b7000040eb0068e9b7000040eb009c
:1026d00071e9b7000040eb0073e9b700090037006b
:1026e00073c9bf008080fb001085200080804000ff
:1026f0000040eb008048780073c9bf000040e8004c
:1027000073e9b70073c9bf00ee4f5000f4ff360005
:102710000040eb0073e9b7000900370073c9bf0040
:102720008080fb00b08f2000808040000040eb00e4
:102730008048780073c9bf000040e80073e9b70023
:1027400073c9bf00eb4f5000f4ff3600df030700f2
:102750000d0407000080fa00000006001800fa00cf
:102760000000eb00400798000040eb0070e9b70064
:1027700068c9bf000004e0000b003200604b80001d
:102780008000e900108520000080400010407800a3
:10279000ed4f50000400320062c9bf00e54f500009
:1027a00001003e003101070095c0bf006840600095
:1027b0000004e0002b013a002701370062c9bf0086
:1027c0000080fb00300f98003e089000e40f50009e
:1027d000c4003200be089000e48f500011003c009d
:1027e0003e089000e10f500039003200be08900012
:1027f000e18f500004003c003e0890000000e00023
:102800001500320014013700be089000e28f50001e
:10281000500032003e089000e30f50009700320055
:102820000d013700be089000e68f5000d600320040
:102830003e089000e60f5000c3003500be0890002f
:10284000e78f5000e60032003e089000e80f50008d
:10285000f50032000001370070c9bf00e14f5000a1
:1028600016003e00ce009000108520000080400041
:10287000104078000001fb0070c9bf008080fb00a1
:102880003096200000804000104078000080fb005f
:10289000800f510004003a0070c9bf000040e800fa
:1028a00070e9b70001003700f00007004e0090000b
:1028b0000000e80040079800e700370010c0b300b0
:1028c00062e9b7000040eb0070e9b700e2003700b2
:1028d00070c9bf00e34f500011003e0070c9bf0037
:1028e0000081fb00ce009000108520000080400099
:1028f00010407800804078006a00470000004100e6
:102900000148780070c9bf000040e80070e9b700d6
:102910004e0090000000e80040079800ce0037000d
:102920006a004700e70007000004e00007003200eb
:1029300020c0b30062e9b7000040eb0070e9b700c7
:102940000000eb00304b8800c3003700c7000700d1
:10295000c100370070c9bf00e34f50003d003e008a
:102960000000eb00300798001000200020079800be
:10297000ce0090001085200000804000904078003c
:1029800021479800ae409000f0c2b30080cf5000c5
:102990000a003400ae40900090c3b30080cf5000d6
:1029a00006003c002e4090008000fb0000fd2f0040
:1029b000008040003007980009003700ae409000ca
:1029c00000c4b30080cf5000050034002e409000ba
:1029d0008000fb0090fc2f00008040003007980032
:1029e00030c0b30073e9b700060037002e00900036
:1029f0004400dd002007980073c9bf000040e900d3
:102a000073e9b700319720009140780070c9bf008a
:102a100080cf5000f5ff3e00ae0090003e009000d9
:102a20000088b90020079800314b80002e009000ec
:102a300000804000304b880070c9bf000040e800b3
:102a400070e9b7004e0090000000e80040079800d1
:102a500081003700304b8000eb0f500005003e0036
:102a600030c0b30062e9b7000040eb0070e9b70086
:102a7000790037007d0007007700370070c9bf007c
:102a80008080fb00304b8000808f500010003100b0
:102a900070c9bf000081fb00ce00900010852000af
:102aa0000080400090407800b08f2000000041007e
:102ab0000148780070c9bf000040e80070e9b70025
:102ac0004e0090000000e8004007980062003700c8
:102ad00040c0b30062e9b7000040eb0070e9b70006
:102ae0005d00370070c9bf00e14f500011003e008b
:102af00070c9bf000081fb00ce009000108520004f
:102b00000080400010407800804078006a00470054
:102b1000000041000148780070c9bf000040e80093
:102b200070e9b7004e0090000000e80040079800f0
:102b30004900370050c0b30062e9b7000040eb0025
:102b400070e9b70044003700ce00900010852000e7
:102b50000080400010407800ed4f500003003a0024
:102b600060c0b30062e9b7003b0037000000eb0033
:102b7000400798003d0007004e0090000000e8006c
:102b800040079800340037006a00470021c0b300b6
:102b9000120207001047980010852000a1c0b30062
:102ba00039020700004f78001e4090009e4f5000f1
:102bb00009003a000040eb0071e9b700f00f200077
:102bc000100888000000eb000008880070c0b30007
:102bd00062e9b70020003700240007001e0037001c
:102be00071c9bf000004e0001b00320080c0b300c8
:102bf00062e9b70094e0a9009560a9000040eb00ed
:102c000070e9b700740007000000eb00704b88000b
:102c100061168000000021000080700060168800ae
:102c20009580a8000c00370072c9bf008080fb00af
:102c3000704b8000808f50000700310023c2bf001e
:102c4000614060000004e000030032000000eb007f
:102c50004007980005000700604b80000000e0007e
:102c6000d6fe3a000080fa00000006000000fa00dc
:102c70000000eb00604b88000040eb0062e9b70009
:102c80000040eb0072e9b70094e0a9000040eb00bf
:102c900070e9b7000040eb0068e9b7009560a80054
:102ca00061168000f0ff2e00008060006016880032
:102cb0000040eb0071e9b7002222a9000080fa0071
:102cc000000006000400fa00000f78000040eb004e
:102cd00073e9b700380037001e0078001040780014
:102ce0000081fb0073c9bf000080fb00c200dd0053
:102cf000e0122900614078000000fb00800f5100c5
:102d00002a003a001e00e800104078000081fb0015
:102d100073c9bf000080fb004200dd008000e800b6
:102d2000e0122900614078000000fb00800f510094
:102d30001e003a001e80e800104078000081fb0071
:102d400073c9bf000080fb004200dd008080e80006
:102d5000e0122900614078000000fb00800f510064
:102d600012003a009e007800638040001040780016
:102d70000081fb0073c9bf000080fb004200dd0042
:102d8000e3004000e0122900614078000000fb00f1
:102d9000800f510005003a0073c9bf006ae9b7000f
:102da00010002000100798000800370073c9bf000a
:102db0000040e80073e9b70073c9bf00e84f500056
:102dc000c5ff36008000eb00110798001e00900040
:102dd0000080fa00000006000c00fa000040eb0042
:102de000004f78006ac9bf000004e000b6003a0056
:102df00063c9bf0060e8b70064c9bf0061e8b700fd
:102e000069c9bf000004e00057003a0020c4b300c5
:102e100062e8b700d0c4b30063e8b70030c5b300c0
:102e200064e8b70040c5b30065e8b70000c3b3006d
:102e300066e8b70000c3b30067e8b70020c3b3007b
:102e400068e8b70080c3b30069e8b700a0002000bd
:102e5000704b880090c9b30072e9b7000040eb00e6
:102e600073e9b7001e0037000e01e80073c9bf0008
:102e70000080fb0080004000c091200000804000e6
:102e80001000780010007800820078005f010700d1
:102e90000040eb00004f78000b003700724b8000c1
:102ea0009e80fb000e00e8006140780080407800c2
:102eb0000086200000004100014878000200e80080
:102ec000704b88001e4fe80030c0b3009e4f1000ca
:102ed000f2ff360073c9bf000040e80073e9b70095
:102ee000319720009140780020c2b30080cf50007d
:102ef000ddff36000086200061c9b30062010700d3
:102f0000e50047004e010700724b80006500470056
:102f100090407800008620000000410001487800c1
:102f20000200e800704b8800724b8000650047008b
:102f30009040900000862000000041000148780089
:102f40000200e800704b8800724b80000086200071
:102f500080004100d0c0b300804878000200e80043
:102f6000704b8800b000370069c9bf00e14f5000c6
:102f7000ad003a00d0c4b30062e8b70000c5b300aa
:102f800063e8b70030c5b30064e8b70040c5b300dc
:102f900065e8b70000c3b30066e8b70000c3b3003c
:102fa00067e8b70010c4b30068e8b70030c4b300e6
:102fb00069e8b700a0002000704b880050c3b30040
:102fc00072e9b7000040eb0073e9b7001e0037005c
:102fd0000e01e80073c9bf000080fb0080004000c4
:102fe00080902000008040001000780010007800e1
:102ff00082007800050107000040eb00004f7800d8
:103000000b003700724b80009e80fb000e00e80032
:103010006140780080407800008620000000410078
:10302000014878000200e800704b88001e4fe8005d
:1030300030c0b3009e4f1000f2ff360073c9bf00ce
:103040000040e80073e9b70073c9bf00e94f5000c2
:10305000dfff36000086200021c3b3000a0107000d
:10306000e7004700f6000700724b8000670047004a
:103070009040780000862000000041000148780060
:103080000200e800704b8800724b80006700470028
:103090009040900000862000000041000148780028
:1030a0000200e800704b8800724b80000086200010
:1030b00080004100d0c0b300804878000200e800e2
:1030c000704b8800580037006ac9bf00e64f5000b7
:1030d000530032006ac9bf00e74f50005000320071
:1030e0006ac9bf00e84f50004d00320063c9bf00fd
:1030f00060e8b70064c9bf0061e8b70020002000a5
:10310000704b8800d0c0b30072e9b70020c0b30094
:1031100073e9b7000e003700724b800073c9bf001f
:103120008080fb0020152900e14078000086200007
:103130000000410001487800704b80000000e8006a
:10314000704b880073c9bf000040e80073e9b70006
:1031500073c9bf00ec4f5000efff36006ac9bf00d3
:103160000080fb00500798005e009000e30f5000c5
:103170001b0032005e009000e30f500007003c008f
:103180005e009000e10f50000b0032005e009000e6
:10319000e20f50000d003200230037005e00900067
:1031a000e40f5000140032005e009000e50f500064
:1031b000160032001c00370010c0b3007fe9b700d2
:1031c0000040eb0080e9b7001700370010c0b300e3
:1031d00080e9b7000040eb007fe9b700120037003c
:1031e000304b800080407800b08f20007b000700cb
:1031f00083e9b7000c00370010c0b30081e9b700c5
:103200000040eb0082e9b7000700370010c0b300b0
:1032100082e9b7000040eb0081e9b7000200370007
:103220000040eb0072e9b7000080fa0000000600e1
:1032300000a0fe000200fa008560a90030118000a5
:10324000004f780050c8bf000004e0000a003a00b8
:1032500063c9bf009e4f500007003a0010c0b30082
:1032600050e8b70094e0a80000182000100888007b
:103270000000eb000008880050c8bf000004e00018
:103280002000320062c9bf00e54f500010003e0030
:1032900068c9bf000004e0000d003a00614b8000e7
:1032a0001e41780010852000008040000248780010
:1032b00000182000100888000000eb0000088800bb
:1032c00084e0a900604b80000000e800604b8800ab
:1032d000604b8000ee0f500007003e00604b800006
:1032e0008000e90010852000008040001040780038
:1032f000ed4f500003003a000040eb0050e8b700eb
:103300009560a9000080fa000080fe0000400600e1
:10331000801f78003400f80000002000a001880021
:103320000000fa0084e0a90062c9bf00e64f500027
:1033300002003e0010c0b30068e9b70062c9bf00d8
:10334000e74f500004003a0010c0b30071e9b70025
:103350000040eb0068e9b7000080fa003400f90093
:103360004f0078000040060000a0fe003600f80084
:10337000849fbe00869fbe000000fa008580a900e1
:10338000714b8000008620000080400010407800d3
:103390008efc0700704b80000000e800704b880036
:1033a00072c9bf008080fb00704b8000808f50008e
:1033b00004003a009580a900704b80000000e800ee
:1033c000704b88000080fa004f03be004f02be0021
:1033d0003600f9000080fe00004006000600fa00fa
:1033e00010079800414798008e1f7800a0292900f7
:1033f000801f78001e009000ebf50700e48757005f
:103400001e0078000080fa00000006000400fa00a8
:10341000000f7800110798001e007800801f7800c8
:10342000d0292900801f7800510020001e00900044
:10343000ebf50700e48757000080fa000000060063
:103440000400fa00004f7800110798001e00900059
:103450008000e80072c3b3001e404100804878003d
:103460001e00fb00801f7800202a2900801f7800a2
:10347000310020001e009000d9f50700e4875700b6
:103480000080fa00000006000600fa00100798000d
:10349000414798000040eb00004f78000040eb00ef
:1034a00073e9b7000d00370073c9bf000080fb004f
:1034b000800078001e0090000080400010407800de
:1034c0001e4068008080fb0040182900614f780092
:1034d00073c9bf000040e80073e9b70031972000ce
:1034e000914078004e40900080cf5000eeff3900b0
:0c34f0001e80fb000080fa0000000600b7
:020000040000fa
:1034fc006a0900001a000000020000000000000031
:10350c0000000000000000000000000000000000af
:10351c00000000000000000000000000000000009f
:10352c00500800001a010000000000007a0a000098
:10353c00020000000000000084090000a000000050
:10354c0002000000010000000000000000000a0062
:10355c0000000000000000000064000000000000fb
:10356c0000000000e8030000000000000000100054
:10357c00270000000000000000a0860001000000f1
:10358c000000000040420f0000000000000080001e
:10359c0096980000000000000000e100f505000016
:1035ac000000000000ca9a003b0000000000000070
:1035bc00e40b5400020000000000e80076481700fd
:1035cc00000000000010a500d4e80000000000007e
:1035dc00a0724e0018090000000040007a10f300a1
:1035ec005a0000000080c600a47e8d00030000007d
:1035fc0000c16f00f2862300000000008a5d780095
:10360c004563010000006400a7b3b600e00d0000a4
:10361c0000e889000423c7008a000000240a000087
:10362c002a00000002000000286e75006c6c290056
:10363c000030310032333400353637003839410030
:10364c0042434400454600003031320033343500eb
:10365c00363738003961620063646500660000002b
:10366c004e0a00002600000002000000500a7600fe
:10367c000a000000760a0900000000000200740035
:10368c000a000000740a060002010000000000009d
:10369c000000000000000600020200000000000014
:1036ac00740a000006000000000000007c0a000004
:1036bc0002000000020000000100000000000000f9
:020000040000fa
:1036cc000000fa000000eb00001188000000eb0085
:1036dc00101188006119800000002100008070002a
:1036ec00601988002062a8002042a9002022a900ad
:1036fc002002a900700020004011880022e2a900dd
:10370c0022c2a800416a20009140780000ceb3008c
:10371c0000c06000a040b300a4e6b700b16c20006c
:10372c009140780000ceb30000c060003040b30080
:10373c00cbe6b700aa40a800aa20a900aa00a900bd
:10374c00a9c0a800a9a0a900a980a90022e2a900eb
:10375c0022c2a90023e2a90023a2a9009580a900f6
:10376c009560a8008560a9008580a90021e2a800c9
:10377c002342a8000080fa00000006000000fa00b6
:10378c000000eb008008880084e0a900710a20008a
:10379c0091407800f0c8b30000c0600001c4b300d1
:1037ac0001407000a7e0b70094e0a9000080eb0096
:1037bc001008880010a1a9001021a90011e1a8008f
:1037cc000080fa00000006000000fa004066a90024
:1037dc004046a8004026a8004006a800400d200046
:1037ec00103288000000eb00303288008c60a90099
:0837fc000080fa000000060045
:00000001FF
