:020000040000fa
:080000000002040000000000f2
:020000040000fa
:10000800c002000090020000960200009c0200005e
:10001800a2020000c0020000c0020000c0020000ee
:10002800c0020000c0020000c0020000c0020000c0
:10003800c0020000c0020000c0020000c0020000b0
:10004800c0020000c0020000c0020000c0020000a0
:10005800c0020000c0020000c0020000c002000090
:10006800c0020000c0020000c0020000c002000080
:10007800c0020000c0020000c0020000c002000070
:10008800c0020000c0020000c0020000c002000060
:10009800c0020000c0020000c0020000c002000050
:1000a800c0020000c0020000c0020000c002000040
:1000b800c0020000c0020000c0020000c002000030
:1000c800c0020000c0020000c0020000c002000020
:1000d800c0020000c0020000c0020000c002000010
:1000e800c0020000c0020000c0020000c002000000
:1000f800c0020000c0020000c0020000c0020000f0
:10010800c0020000c0020000c0020000c0020000df
:10011800c0020000c0020000c0020000c0020000cf
:10012800c0020000c0020000c0020000c0020000bf
:10013800c0020000c0020000c0020000c0020000af
:10014800c0020000c0020000c0020000c00200009f
:10015800c0020000c0020000c0020000c00200008f
:10016800c0020000c0020000c0020000c00200007f
:10017800c0020000c0020000c0020000c00200006f
:10018800c0020000c0020000c0020000c00200005f
:10019800c0020000c0020000c0020000c00200004f
:1001a800c0020000c0020000c0020000c00200003f
:1001b800c0020000c0020000c0020000c00200002f
:1001c800c0020000c0020000c0020000c00200001f
:1001d800c0020000c0020000c0020000c00200000f
:1001e800c0020000c0020000c0020000c0020000ff
:0801f800c0020000c00200007b
:020000040000fa
:10020800c0020000a8020000ae020000b402000014
:10021800ba020000c0020000c0020000c0020000d4
:10022800c0020000c0020000c0020000c0020000be
:10023800c0020000c0020000c0020000c0020000ae
:10024800c0020000c0020000c0020000c00200009e
:10025800c0020000c0020000c0020000c00200008e
:10026800c0020000c0020000c0020000c00200007e
:10027800c0020000c0020000c0020000c00200006e
:10028800c0020000c0020000c0020000c00200005e
:10029800c0020000c0020000c0020000c00200004e
:1002a800c0020000c0020000c0020000c00200003e
:1002b800c0020000c0020000c0020000c00200002e
:1002c800c0020000c0020000c0020000c00200001e
:1002d800c0020000c0020000c0020000c00200000e
:1002e800c0020000c0020000c0020000c0020000fe
:1002f800c0020000c0020000c0020000c0020000ee
:10030800c0020000c0020000c0020000c0020000dd
:10031800c0020000c0020000c0020000c0020000cd
:10032800c0020000c0020000c0020000c0020000bd
:10033800c0020000c0020000c0020000c0020000ad
:10034800c0020000c0020000c0020000c00200009d
:10035800c0020000c0020000c0020000c00200008d
:10036800c0020000c0020000c0020000c00200007d
:10037800c0020000c0020000c0020000c00200006d
:10038800c0020000c0020000c0020000c00200005d
:10039800c0020000c0020000c0020000c00200004d
:1003a800c0020000c0020000c0020000c00200003d
:1003b800c0020000c0020000c0020000c00200002d
:1003c800c0020000c0020000c0020000c00200001d
:1003d800c0020000c0020000c0020000c00200000d
:1003e800c0020000c0020000c0020000c0020000fd
:0803f800c0020000c002000079
:020000040000fa
:100400000f8020000e7f22000e01880000000000f7
:100410000c000700e0cf20000100200011000700c1
:10042000000020000000e000020032000000020096
:1004300000000000280c0200000000000040da006c
:100440000000fe004440a900000020000000e00081
:100450000300320000002000a00188004440a800f2
:100460000000060091018800800078000000eb0089
:1004700015003700e280400032a0b4009101ba00bc
:10048000e280400032a0b4009102ba00e280400055
:1004900032a0b4000002eb00472bde00f507b200eb
:1004a000602ce10004003a000059eb008301e900f0
:1004b000fdff3e00040037006128e100010032002a
:1004c0000082eb00040007001101ba000200e00006
:1004d000e8ff3a00000006003159ba008301e90044
:1004e0000c0032002159ba008301e90008003200f3
:1004f0000400e00003003a00e280400032a0b400b3
:10050000f5ff370011d9ba008301e900faff3a007c
:100510008100e800e180400032a0b4000000060045
:100520000000fa008020a900ffff37000000fa0059
:100530008060a900ffff37000000fa008040a9009a
:10054000ffff37000000fa008080a900ffff37009e
:100550000000fa008020a900ffff37000000fa0029
:100560008060a900ffff37000000fa008040a9006a
:10057000ffff37000000fa008080a900ffff37006e
:100580000000fa00ffff370003f0a200889fbe00c2
:100590008a9fbe008c1f7800d7000700de00330062
:1005a0006450e1004f0032006420e100520032004c
:1005b00003826c0007003b000905d0000306d00051
:1005c000820f54000c065d00020039000200320068
:1005d00089017800030678008582550004003d00fb
:1005e0000003fd008103fd008502ea008b854200c7
:1005f000840f720002003b0060001000e0801800d1
:100600006011b8000005eb007a28e1000a0039000b
:1006100006007800c75ddd00f707b200878075002f
:100620002d003700828171000a01780061056000a9
:100630008180d1000080d3008502e900f9ff3b00f2
:10064000060440008784480002003b006004140058
:10065000e0841c000988a300070032008a81710031
:1006600082817100610164008904d1000884d30093
:100670008b05e800170037000978a30013003a0043
:100680000b00e000130034008b05e900080444006f
:1006900089844c000a4474000978a3000d003a00d4
:1006a0000b00e000070034008b05e900080444005b
:1006b00089844c0001003a000b0020000978a30057
:1006c000f7ff32000001eb00020037008281710069
:1006d0000a017800620007000cf0a70001f0a000fa
:1006e000960037006420e10002003a00838f6c001e
:1006f000960033000801be000200be008f003700e4
:10070000889fbe008a9fbe008c1f78007a00070079
:100710008100330003866c006450e1002e0032003b
:100720006420e100330032006150e1002f0032000c
:100730006120e1003100320085855500eb07b000f3
:1007400009002000080420000500370008044400c8
:1007500089844c000a0031000603430087834b0064
:100760000001530081815b00f8ff33000203be00eb
:100770000800a0000804440089844c00f6ff3900fa
:10078000c639dd0083017300010032001300200030
:100790008904d1000884d3000998a3000500320021
:1007a0000800a7000300a0008904d1000884d3003a
:1007b0008b05e8008904d1000884d3000001eb0018
:1007c0000281d2002600070001f0a1000cf0a70072
:1007d00001f0a000590037006420e1005b00320006
:1007e0000801be000200be00f7ff37006120e100f3
:1007f000560032006000b800f3ff37000000200010
:1008000001f82700f0ff3700839f68000100e00037
:1008100002003d0060001000e08018000300e000ce
:1008200002003d0060011100e08119007e00070018
:100830004f00e00002003b0060001000e080180064
:10084000000006001400200087003700f4ff2f008e
:10085000850037004f89de00820178009d00370057
:1008600081002000618055000b003d000b0020003e
:1008700061fe2f000100e1001d0034008281710043
:10088000610164008904d1000884d3000000e800fd
:10089000faff3a007100200061006400030070005c
:1008a000020060000900320061044400e0844c0052
:1008b0000988a500050032008b05e8006808e10002
:1008c00002003a008904d1000884d300f20f20000e
:1008d0000258e10005003d00c75ddd00f907b200e8
:1008e0008980750008007800000006000bf82700da
:1008f0008b007800000005000004be00b400070073
:100900000003be000405be000200be00b0000700e8
:10091000844f7500000006000200be006450e10034
:10092000050036006420e100020036000968a300db
:1009300001003a000800be000160a0004f067800e8
:100940004f05be004f04be0000000600f0ff2f0060
:10095000f1ff2700f9ff3700889fbe008a9fbe0085
:100960008c1f7800e4ff0700ebff330003866c0068
:100970006450e100240032006420e10027003200ce
:100980006150e100220032006120e10021003200cc
:100990008b854200eb07b1000134b800003ab80083
:1009a0000804420089844a00013ab8000030b800c7
:1009b0008880400009014a00040033000000400024
:1009c00081804800020149008b05e900c909dd006a
:1009d000830170000100320013002000c814de0003
:1009e0004814dd004709de001200b200c808de002e
:1009f000088470009aff070001f0a1000cf0a70026
:100a000001f0a000cdff37006120e100cfff3200f0
:100a10000801be000200be00f7ff37006150e10090
:100a2000fcff3a00c9ff37006022b8000602200030
:100a30000000d0008180d2000482d2008582d200e2
:100a40000000a0000202520083825a00030031001d
:100a50000202420083824a000000a1000603e9006e
:100a6000f3ff3a0000000600889fbe008a9fbe0088
:100a7000841f7800a0ff07004f00780011003300aa
:100a8000f0ff2f00838f6c0006003b00040565001b
:100a90000a00a7000800370009f0a6001000200097
:100aa00008003700820f5400838f5c000300390078
:100ab0001000200001003e000000200009f0a70007
:100ac0000000ea004f05be004f04be000000e00039
:100ad00000000600881f7800030478000300e0008f
:100ae00007003d0060001000e08018006001190060
:100af000e081190002003b0001f02d0003003700e7
:100b00000400070008f0a70001f0a0004f047800df
:100b100000000600889fbe008a9fbe000082700011
:100b20000402710004827100260032000004be003d
:100b30000200be006011b8006b0920009502200081
:100b40000182cf000a0039000541b1000082cf00c8
:100b5000070039000541b1000982cf0004003900c7
:100b60000541b1000882cf00010039000541b10004
:100b700005425200120032000a003b0082817100df
:100b8000610164008100d1000080d3008984d3001a
:100b90000884d3008b05e8000442e800f7ff3a0020
:100ba000070037000804440089844c000000480016
:100bb000818048008b05e9000442e900f9ff3a0012
:100bc00027ff07004f05be004f04be0000000600cf
:100bd000c70ade00f107b200f50fb20008003200cc
:100be000e1cf4200020032000170a00024000500a5
:100bf000810f700001003200040805004400050068
:100c0000810f700002003a00140005008502e9001f
:100c10000000400081c04800fcff3b000170a000c4
:040c200024000500a7
:020000040000fa
:100c24000600fa00881f78002007980010002000b2
:100c3400000f78000000eb0010079800490037000f
:100c44001e00900000004000ae00900000804000b4
:100c540010007800cf80de00fdfe070018c0b3004e
:100c64006266260063062400f7fe0700e00f5000ca
:100c740001003c000044eb00e04f540010003a0037
:100c84001e00900000004000ae0090000080400074
:100c940010007800cf80de00edfe070018c0b3001e
:100ca400d2cc2c00c3002400e5fe0700e00f500066
:100cb400010035000044eb00e04f54000400320012
:100cc4000000eb003c0307001e30a00022003700a8
:100cd4001e00900000004000ae0090000080400024
:100ce40010007800cf80de00d9fe070018c0b300e2
:100cf400a299290093052400d3fe0700e00f5000b9
:100d040001003d000044eb00e04f540010003a00a5
:100d14001e00900000004000ae00900000804000e3
:100d240010007800cf80de00c9fe070018c0b300b1
:100d34006266260063022400c1fe0700e00f500033
:100d4400010034000044eb00e04f54000200320084
:100d54001e007800660f70001e0090000000e8007e
:100d6400100798001e009000e90f5000b4ff3400f3
:100d74001e0078004f0478000080fa00000006008e
:100d84000600fa001007980021079800cd02a90078
:100d9400100020001901070010002000480007007f
:100da400160107001e009000e20f500007003c00ef
:100db4001e0090000008b000100107001e00900003
:100dc4000008b0003e0007000c01070020092000c5
:100dd4000a0107002009200039000700000f7800ed
:100de4002e009000004078000000fb000301070083
:100df4001e00780000407800ae009000814078002a
:100e04000101fb00804078000200780067000700c1
:100e1400000f78002e0090004880de002007980024
:100e24002e0090006f006000200798002e009000b4
:100e3400f20007001e00780000407800804078002f
:100e44002e00900059000700000f78000000eb000e
:100e5400ea0007001e007800004078008040780017
:100e64000000eb0051000700000f7800005b200039
:100e7400e20007001e0078000040780080407800ff
:100e8400005b200049000700000f780000b120003b
:100e9400da0007001e0078000040780080407800e7
:100ea40000b1200041000700000f78001e00780008
:100eb400d2000700cd02a8000080fa00000006005e
:100ec4000a00fa004007980010c4b300004f7800ed
:100ed4000000eb00100798002e0037001e00900061
:100ee40067001000ce0090000088de00004078000b
:100ef400e14060001e4078000080fb004700de00f7
:100f04000040780000c06800404798001e40780008
:100f1400e14060004e40900000c0680050479800d7
:100f24001e00fb000080d10000407800e14060001a
:100f34004e40900000c06800604798005e409000fa
:100f44000000fb0000004000504798006e409000f5
:100f54000000fb004200dd00604798001e00fb001b
:100f6400000040008040780080cfb30080c0600063
:100f74006e4190005e409000004171004e40900030
:100f84000040710000cf70001e0090000000e800d7
:100f9400100798001e009000e70f5000cfff3400a8
:100fa4001e00fb000080fa00000006000a00fa00a0
:100fb40030079800014f98000000eb00000f780004
:100fc4002f003700710020001e805000be009000ea
:100fd4000088de0000407800e14060000e48900088
:100fe4000080fb004700de000040780000c068007d
:100ff400204798000e489000e14060002e40900089
:1010040000c06800304798000e4890000000fb00c4
:101014000080d10000407800e14060002e40900044
:1010240000c06800404798003e4090000000fb006c
:1010340000004000304798004e4090000000fb0044
:101044004200dd00404798000e4890000000fb007d
:10105400000040008040780080cfb30080c0600072
:101064004e4190003e409000004171002e4090009f
:101074000040710000c07000004f98001e0fe8008f
:101084001e007800e70f5000ceff34000e48900099
:101094000000fb000080fa00000006000600fa00d1
:1010a400881f78001007980021079800cd02a90036
:1010b40000012000510007000001200080ff07000c
:1010c4004e000700cd02a800cd02a9004000200078
:1010d4004a0007004000200079ff0700470007008e
:1010e4000000eb00000f7800090037001e007800b4
:1010f40000004000ae00900000844000c1002000c9
:101104001e0090000c000700000c78001e0fe80081
:101114001e007800eb0f5000f4ff34008100200023
:101124001e00900004000700cd02a8004f047800c0
:101134000080fa00000006000800fa00200798006a
:10114400310798000000eb00100798000000eb0046
:10115400000f780022003700440007001e009000b2
:1011640000004000100798002e009000e00f50008f
:1011740008003a00501680004900de00614060001b
:101184000080fb009e009000008070001007980013
:10119400120037002e009000e10f500008003a00c2
:1011a400501680004a00de00614060000080fb00b1
:1011b4009e00900000807000100798000700370020
:1011c400501680004b00de00614060000080fb0090
:1011d4009e00900000807000100798001e0fe80029
:1011e4003e0090009e007800808f5000daff3500aa
:1011f4001e0090000080fa00000006000400fa00bf
:101204001007980010002000000f7800120037002b
:10121400810020001e8050009e0090000088de00a7
:1012240000407800614060006140600061406000ff
:101234000080fb00610060004700dd006216800052
:10124400f1f72f00810061000080700060168800b3
:10125400060007001e0fe8001e007800e80f50008b
:10126400ebff34000080fa00000006000000fa00e2
:10127400ccc2a900ccc2a8000080fa00000006007d
:101284000600fa00881f7800200798002e009000be
:1012940088000700008fbe0018c0b30002002000c1
:1012a40003192c001e00be0065fd0700e00f50006e
:1012b400010035000044eb00e04f54000a003a00fe
:1012c40018c0b30002002000c32524001e00be0085
:1012d4005dfd0700e00f500001003c000044eb00fe
:1012e400e04f5400040032000000eb00b20107009c
:1012f400800020001600370018c0b3006011b80049
:101304001e00be004efd0700e00f50000100340037
:101314000044eb00e04f54000a003a0018c0b30048
:1013240002002000032224001e00be0046fd070028
:10133400e00f500001003d000044eb00e04f54007a
:1013440002003200200020000100370010002000bd
:101354004f0478000080fa00000006000600fa003e
:10136400881f7800200798002e00900033000700a3
:10137400008fbe0018c0b30002002000c3192c0067
:101384001e00be002efd0700e00f500001003500d6
:101394000044eb00e04f54000a003a0018c0b300c8
:1013a40002002000831c24001e00be0026fd07004e
:1013b400e00f500001003c000044eb00e04f5400fb
:1013c400040032000000eb007b01070080002000d5
:1013d4001700370018c0b3000200200003182c00c7
:1013e4001e00be0016fd0700e00f5000010034008f
:1013f4000044eb00e04f54000a003a0018c0b30068
:1014040002002000c31924001e00be000efd0700c8
:10141400e00f500001003d000044eb00e04f540099
:1014240002003200400020000100370010002000bc
:101434004f0478000080fa00000006000a00fa0059
:10144400400798006000b800008fbe004e00900076
:1014540033000700cf80de00fdfc07002007980062
:10146400310798001e01be002e009000be009000bf
:1014740038fd07002007980031079800d2cc2c00d3
:10148400c3dc23002e009000be0090009bfc0700ec
:1014940002002000831c24003bfc07002007980066
:1014a400310798002e009000be0090000080fa00e2
:1014b400000006000a00fa00400798006000b80027
:1014c400008fbe004e00900015000700cf80de00a4
:1014d400dffc070020079800310798001e01be00ba
:1014e4002e009000be0090001afd0700200798000f
:1014f40031079800a2702d0033c223002e00900003
:10150400be0090007dfc070020079800310798007a
:101514002e009000be0090000080fa00000006003b
:101524000e00fa00600798006000b800008fbe004b
:101534000000eb0050079800f03f200020079800bf
:101544000000eb00300798000000eb004007980013
:10155400160037006e00900027000700500798001f
:101564005e009000cf80de001e0f40005e974800b2
:10157400de0090003e009000808f50000200340096
:101584005e00900030079800de0090002e0090006e
:10159400808f500002003d005e00900020079800fc
:1015a4004e0090000000e800400798004e009000b4
:1015b400e70f5000e7ff34002e009000cf80de00dc
:1015c4003e011000ae8118003e009000cf80de0086
:1015d400001f5100019759001e00be006200200048
:1015e4000300200087fc0700008fbe001e00780067
:1015f4000080fa00000006000600fa0020079800a8
:101604000000eb0010079800cde2a800cde2a9008d
:10161400cdc2a80035000700cdc2a80033000700e2
:101624000000eb00000f78001500370021002000b7
:101634001e805000110020008008dd002e00900064
:1016440080806000220020001e0051000088de001f
:1016540000407800614060000080fb006100600091
:101664004e00dd0062168000f1ff2b008100610056
:1016740000807000601688001c0007001e0fe80040
:101684001e007800e20f5000e8ff34001700070046
:10169400160007000000eb00000f78000c00370074
:1016a400120007001e009000000040001007980080
:1016b400501680004d00de00614060000080fb0099
:1016c4009e00900000807000100798001e0fe80034
:1016d4001e007800e90f5000f1ff3400cde2a800ad
:1016e4001e0090000080fa00000006000000fa00ce
:1016f400cd82a900cd82a8000080fa000000060077
:101704000200fa00000f78001e0078004300dd009c
:1017140068006000e00f5000030034001000200057
:1017240040000700020037000000eb003d00070006
:101734001e0078004200dd0068006000e00f5000e9
:1017440003003400100020002c00070002003700c2
:101754000000eb00290007001e0078000000400094
:1017640068006000e00f5000030034001000200007
:1017740018000700020037000000eb001500070006
:101784009e00780068806000e00f50000300340081
:101794001000200005000700020037000000eb00e5
:1017a400020007000080fa00000006000200fa00b0
:1017b400000f78001e007800e10f500002003a008c
:1017c400c402a80001003700c402a9000080fa0086
:1017d400000006000200fa00000f78001e007800e6
:1017e400e10f500002003a00c422a80001003700b3
:1017f400c422a9000080fa00000006000200fa00da
:10180400000f78001e007800e10f500002003a003b
:10181400c462a80001003700c462a9000080fa0075
:10182400000006000200fa00000f78001e00780095
:10183400e10f500002003a00c482a8000100370002
:10184400c482a9000080fa00000006005600fa00d5
:10185400390007008000eb003000200048fd07003d
:101864000000eb00100798000000eb002007980030
:101874000000eb003007980010002000000f7800f3
:101884008000eb00300020003dfd070068004700a9
:10189400800078002000200000fe070020022000c5
:1018a4000e004000800078000000eb00fbfd070004
:1018b400c00320000e0040008000780010002000cb
:1018c400f6fd070068004700d5fc07001e0f7000f6
:1018d400200220000e004000d1fc07001e0f700003
:1018e400c00320000e004000cdfc07001e0f700056
:1018f4000000eb0099fe07001e0f7000100020008e
:101904005ffe07001e0f7000200020005cfe070031
:101914001e0f70003000200059fe07001e0f7000db
:101924004000200056fe07001e0f70001e007800c5
:1019340073ff0700d5ff37000000fa00c002a900ba
:10194400c022a900c062a900c082a900c8a2a9003f
:10195400c982a900c9a2a800c9c2a900c9e2a900f4
:10196400c962a800c942a800c922a800c902a900e6
:10197400c8e2a900c8c2a9000080eb006019880071
:101984000080fa00000006000200fa00004f780010
:101994000000000011118000002020000080600081
:1019a400e00f5000fbff3a001e00fb0020118800ee
:1019b4000080fa00000006000200fa00000f780020
:1019c4001e007800e10f500002003a00cca2a800eb
:1019d40001003700cca2a9000080fa000000060034
:1019e4000000fa000080fa00000006000000fa007f
:0819f4000080fa00000006006b
:020000040000fa
:0419fc0000000000e7
:020000040000fa
:0200000401f009
:04000000cf0000002d
:020000040000fa
:0200000401f009
:04000400cf00000029
:020000040000fa
:0200000401f009
:0400080007000000ed
:020000040000fa
:0200000401f009
:04000c008700000069
:020000040000fa
:0200000401f009
:04001000a300000049
:020000040000fa
:0200000401f009
:040014005f00000089
:020000040000fa
:0200000401f009
:04001800f7000000ed
:020000040000fa
:0200000401f009
:04001c00dfff000002
:00000001FF
