:020000040000FA
:06000000EBEF00F012001E
:020006000000F8
:08000800060EF66E000EF76E05
:10001000000EF86E00010900F550856F0900F550DB
:10002000866F03E1856701D03DD00900F550806FF0
:100030000900F550816F0900F550826F0900090031
:10004000F550E96E0900F550EA6E09000900090053
:10005000F550836F0900F550846F09000900F6CF51
:1000600087F0F7CF88F0F8CF89F080C0F6FF81C025
:10007000F7FF82C0F8FF0001835302E1845307E0D9
:100080000900F550EE6E8307F8E28407F9D787C0C0
:10009000F6FF88C0F7FF89C0F8FF00018507000E52
:0600A000865BBFD71200D1
:0A00A600D9CFE6FFDACFE6FFE1CF85
:1000B000D9FFE2CFDAFFAC6AAB6AFD0EDBB0AC88E9
:1000C000DBA202D0AC8CAB8CDBB4AC8EDBA602D056
:1000D000AB8801D0AB8ADBB8AC849E98DBBAAB8628
:1000E000DBAC02D09D8A01D09D9A9E9ADBAE02D0F5
:1000F0009D8801D09D98FB0EDB50AF6EFB0EFC0E71
:10010000DBCF03F003C002F0036A0250B06EAC8A8A
:10011000AB8E949C948EAC50100B04E0AC50800BD2
:1001200001E1948CE552E5CFDAFFE7CFD9FF120069
:10013000D08E9F8A9D8AF28E000EE66EE66A010ED0
:10014000E66E53EC00F0E552E552E5521200D9CFCD
:10015000E6FFE1CFD9FFE552E7CFD9FF1200540EF9
:10016000E66EC4EC00F0E552450EE66EC4EC00F01D
:10017000E552530EE66EC4EC00F0E552540EE66E06
:08018000C4EC00F0E55212008E
:08018800D9CFE6FFDACFE6FF54
:10019000E1CFD9FFE2CFDAFFACAC04D0AC900001E4
:1001A0008AB3AC80FD0EDB50AD6EE552E5CFDAFFD1
:0601B000E7CFD9FF1200A9
:0A01B600000EF36E00EE00F0020EE2
:1001C00001D81200EA6002D0EE6AFCD7F350E96071
:0601D0001200EE6AFCD7EC
:0A01D60011EE00F021EE00F0F86ACF
:1001E000019C04EC00F006EC01F0F9EC00F0FBD708
:0201F0001200FB
:0E01F20001EC01F004EC01F0AFEC00F0FDD7E1
:020200001200EA
:06020200010ED36E120094
:0402080098EF00F07B
:02020C001200DE
:00000001FF
