:020000040000fa
:080000000002040000000000f2
:020000040000fa
:100400002f9b20000e7f22000e01880000000000bc
:100410000c00070020e92000010020001100070067
:10042000000020000000e000020032000000020096
:10043000000000000c040200000000000040da0090
:100440000000fe004440a900801720000000e000ea
:100450000300320000002000a00188004440a800f2
:100460000000060091018800800078000000eb0089
:1004700015003700e280400032a0b4009101ba00bc
:10048000e280400032a0b4009102ba00e280400055
:1004900032a0b4000002eb00472bde00f507b200eb
:1004a000602ce10004003a000059eb008301e900f0
:1004b000fdff3e00040037006128e100010032002a
:1004c0000082eb00040007001101ba000200e00006
:1004d000e8ff3a00000006003159ba008301e90044
:1004e0000c0032002159ba008301e90008003200f3
:1004f0000400e00003003a00e280400032a0b400b3
:10050000f5ff370011d9ba008301e900faff3a007c
:100510008100e800e180400032a0b4000000060045
:080520000040da000000fe00bb
:020000040000fa
:0200000401f009
:04000000ffff0000fe
:020000040000fa
:0200000401f009
:04000800ffff0000f6
:020000040000fa
:0200000401f009
:04000c0078ff000079
:020000040000fa
:0200000401f009
:0400100058ff000095
:020000040000fa
:0200000401f009
:0400140079ff000070
:020000040000fa
:0200000401f009
:04001800fcff0000e9
:020000040000fa
:0200000401f009
:04001c00dfff000002
:020000040000fa
:1000080090020000900200009002000090020000a0
:100018009002000090020000900200009002000090
:10002800900200009002000090020000760b000091
:100038009002000090020000900200009002000070
:100048009002000090020000900200000e0b0000d9
:10005800b80b00009002000090020000900200001f
:100068009002000090020000900200009002000040
:100078009002000090020000900200009002000030
:100088009002000090020000900200009002000020
:100098009002000090020000900200009002000010
:1000a8009002000090020000900200009002000000
:1000b80090020000900200009002000090020000f0
:1000c80090020000900200009002000090020000e0
:1000d80090020000900200009002000090020000d0
:1000e80090020000900200009002000090020000c0
:1000f80090020000900200009002000090020000b0
:10010800900200009002000090020000900200009f
:10011800900200009002000090020000900200008f
:10012800900200009002000090020000900200007f
:10013800900200009002000090020000900200006f
:10014800900200009002000090020000900200005f
:10015800900200009002000090020000900200004f
:10016800900200009002000090020000900200003f
:10017800900200009002000090020000900200002f
:10018800900200009002000090020000900200001f
:10019800900200009002000090020000900200000f
:1001a80090020000900200009002000090020000ff
:1001b80090020000900200009002000090020000ef
:1001c80090020000900200009002000090020000df
:1001d80090020000900200009002000090020000cf
:1001e80090020000900200009002000090020000bf
:0801f8009002000090020000db
:020000040000fa
:10020800900200009002000090020000900200009e
:10021800900200009002000090020000900200008e
:10022800900200009002000090020000760b00008f
:10023800900200009002000090020000900200006e
:100248009002000090020000900200000e0b0000d7
:10025800b80b00009002000090020000900200001d
:10026800900200009002000090020000900200003e
:10027800900200009002000090020000900200002e
:10028800900200009002000090020000900200001e
:10029800900200009002000090020000900200000e
:1002a80090020000900200009002000090020000fe
:1002b80090020000900200009002000090020000ee
:1002c80090020000900200009002000090020000de
:1002d80090020000900200009002000090020000ce
:1002e80090020000900200009002000090020000be
:1002f80090020000900200009002000090020000ae
:10030800900200009002000090020000900200009d
:10031800900200009002000090020000900200008d
:10032800900200009002000090020000900200007d
:10033800900200009002000090020000900200006d
:10034800900200009002000090020000900200005d
:10035800900200009002000090020000900200004d
:10036800900200009002000090020000900200003d
:10037800900200009002000090020000900200002d
:10038800900200009002000090020000900200001d
:10039800900200009002000090020000900200000d
:1003a80090020000900200009002000090020000fd
:1003b80090020000900200009002000090020000ed
:1003c80090020000900200009002000090020000dd
:1003d80090020000900200009002000090020000cd
:1003e80090020000900200009002000090020000bd
:0803f8009002000090020000d9
:020000040000fa
:10052800504900004e4700004d5000004f4e00005b
:100538004d5000004f4600004d5000004c4f000049
:10054800424d00004f4e0000424d00004f46000053
:100558004d50000053540000424d00005354000019
:10056800414300004b4e0000303000004143000082
:100578004b4e0000303000003030000038420000a0
:100588000d0000000000000000000000a086000030
:1005980001000000409c000000000000a086000050
:1005a80001000000409c00000000000050c3000053
:1005b80000000000102700000000000050c30000e9
:1005c80000000000102700000000000000d5000017
:1005d8007faa0000fe2b00008154000029fc0000c7
:1005e80056830000d7020000a87d00005287000053
:1005f8002df80000ac790000d30600007bae0000a7
:1006080004d1000085500000fa2f0000a4710000fa
:10061800db0e00005a8f000025f000008d58000006
:10062800f227000073a600000cd90000f623000092
:10063800895c000008dd000077a20000df0a0000e6
:10064800a075000021f400005e8b00009d480000aa
:10065800e237000063b600001cc90000b461000066
:10066800cb1e00004a9f000035e00000cf1a0000b2
:10067800b065000031e400004e9b0000e633000046
:10068800994c000018cd000067b2000039ec00005a
:1006980046930000c7120000b86d000010c50000a6
:1006a8006fba0000ee3b0000914400006bbe0000f2
:1006b80014c1000095400000ea3f00004297000086
:1006c8003de80000bc690000c3160000ef3a0000d6
:1006d8009045000011c400006ebb0000c613000066
:1006e800b96c000038ed000047920000bd680000ba
:1006f800c2170000439600003ce900009441000046
:10070800eb3e00006abf000015c000004b9e0000d1
:1007180034e10000b5600000ca1f000062b70000a5
:100728001dc800009c490000e336000019cc0000f9
:1007380066b30000e7320000984d000030e5000085
:100748004f9a0000ce1b0000b164000072a70000a1
:100758000dd800008c590000f32600005b8e0000c5
:1007680024f10000a5700000da0f000020f5000059
:100778005f8a0000de0b0000a174000009dc0000a5
:1007880076a30000f7220000885d0000d603000071
:10079800a97c000028fd000057820000ff2a000005
:1007a8008055000001d400007eab00008451000099
:1007b800fb2e00007aaf000005d00000ad780000e5
:1007c800d2070000538600002cf900008351000076
:1007d800264c000020440000657600002e20000012
:1007e800426400002e2000002b2000005469000005
:1007f8006d6500000000000083530000656e000076
:10080800642000004d6f00006465000000000000d7
:020000040000fa
:100818002a00fa0010c4b300004f780060c4b30087
:10082800104798001000200010079800a000200032
:10083800200798004006200030079800803e2000de
:1008480040079800007122005007980000e2240039
:1008580060079800005327007007980000c429001b
:10086800000f980000352c00100f98001000200091
:10087800200f9800760047000e88e800f600470031
:100888006400470090009800f600470066004700a3
:10089800a0009800f600470068004700b0009800e4
:1008a800f60047006a004700c0009800f6004700bd
:1008b8006c004700d0009800f60047006e00470023
:1008c800e0009800f600470070004700f00098002c
:1008d800f60047007200470080089800f6004700bd
:1008e8007400470090089800f60047000e01780051
:1008f80010c0b3000f000700201680003000b300be
:100908002016880089000700feff37000200fa0061
:10091800004f780023c2bf00624060000004e0007e
:10092800fcff3a001e80fb00201188000080fa00be
:10093800000006000800fa00004f78001107980030
:10094800220798001e40780097e9b7001e00fb00b8
:10095800300798003e0090000000e00004003200dc
:100968003e009000e10f50001a0032002f003700bf
:100978000040eb00a1e9b70010003700a1c9bf0093
:100988008081fb00a1c9bf000080fb00000040007f
:10099800800078001e009000008040001001780060
:1009a80083804100a0932000008040000208780066
:1009b800a1c9bf000040e800a1e9b700119a2000d2
:1009c80091407800a0c2b30080cf5000ebff360002
:1009d800160037000040eb00a1e9b700100037000f
:1009e800a1c9bf008081fb00a1c9bf000080fb0036
:1009f80000004000800078001e0090000080400049
:100a0800100178008380410060922000008040003f
:100a180002087800a1c9bf000040e800a1e9b700ba
:100a2800a1c9bf00e94f5000edff360000072000c4
:100a3800103a8800f0002000001988000116800094
:100a480000ff2f00008060000016880020002000b2
:100a5800201688000000eb006016880005e1a80059
:100a68000040eb0090e9b7000000eb00d04c880094
:100a78002e0090001040780091e9b7002e009000f9
:100a88000000e8001040780092e9b7000040eb0051
:100a98009ee9b7000040eb0096e9b7000040eb0084
:100aa8009fe9b7000040eb00a1e9b7000900370053
:100ab800a1c9bf008080fb00108520008080400015
:100ac8000040eb0080487800a1c9bf000040e80062
:100ad800a1e9b700a1c9bf00ee4f5000f4ff3600ee
:100ae8000040eb00a1e9b70009003700a1c9bf0029
:100af8008080fb0090912000808040000040eb0047
:100b080080487800a1c9bf000040e800a1e9b7000b
:100b1800a1c9bf00eb4f5000f4ff360033040700b3
:100b28005f0407000080fa00000006001600fa00c3
:100b38000000eb00300798000040eb009ee9b7008a
:100b48000040eb00a1e9b70009003700a1c9bf00c8
:100b58008080fb0010852000008040001040780055
:100b68006aff0700a1c9bf000040e800a1e9b7007b
:100b7800a1c9bf008080fb00d04c8000808f50004e
:100b8800f2ff390096c9bf000004e0000b003200f4
:100b9800d04c80008000e9001085200000804000d3
:100ba80010407800ed4f50000400320090c9bf009b
:100bb800e54f500001003e002801070095c0bf0026
:100bc800684060000004e00022013a001e0137007e
:100bd80090c9bf000080fb00200f98002e089000ed
:100be800e40f5000c10032002e089000e40f5000be
:100bf80011003c002e089000e10f50003700320031
:100c08002e089000e10f500004003c002e089000d0
:100c18000000e000150032000b0137002e0890009c
:100c2800e20f50004d0032002e089000e30f5000f4
:100c380094003200040137002e089000e60f50009f
:100c4800d20032002e089000e60f5000bf00350099
:100c58002e089000e70f5000dc0032002e089000ac
:100c6800e80f5000ec003200f70037009ec9bf00c3
:100c7800e14f500014003e00be0090001085200097
:100c880000804000104178009ec9bf008080fb00b2
:100c9800109920000080400010407800804f5100db
:100ca80004003a009ec9bf000040e8009ee9b70072
:100cb80001003700e90007003e0090000000e8004e
:100cc80030079800e000370010c0b30090e9b70083
:100cd8000040eb009ee9b700db0037009ec9bf006b
:100ce800e34f500010003e009ec9bf000081fb008a
:100cf800be009000108520000080400090407800e1
:100d08006800470000004100014878009ec9bf0004
:100d18000040e8009ee9b7003e0090000000e800af
:100d280030079800c800370068004700e100070056
:100d38000004e0000700320020c0b30090e9b700cb
:100d48000040eb009ee9b7000000eb00a04c8800d3
:100d5800bd003700c1000700bb0037009ec9bf00b7
:100d6800e34f50003d003e000000eb0020079800d4
:100d78001000200010079800be0090001085200089
:100d88000080400010407800104798009e40900076
:100d9800f0c2b30080cf50000a0034009e4090009b
:100da80090c3b30080cf500006003c001e40900066
:100db8008000fb0000fd2f00008040002007980005
:100dc800090037009e40900000c4b30080cf500057
:100dd800050034001e4090008000fb0090fc2f00ae
:100de800008040002007980030c0b300a1e9b70098
:100df800060037001e0090004400dd001007980030
:100e0800a1c9bf000040e900a1e9b700119a20007c
:100e1800914078009ec9bf0080cf5000f5ff3e008a
:100e28009e0090002e0090000088b90010079800de
:100e3800a14c80001e00900000804000a04c88005b
:100e48009ec9bf000040e8009ee9b7003e00900040
:100e58000000e800300798007b003700a04c8000b5
:100e6800eb0f500005003e0030c0b30090e9b7001a
:100e78000040eb009ee9b7007300370077000700d9
:100e8800710037009ec9bf008080fb00a04c800025
:100e9800808f5000100031009ec9bf000081fb0008
:100ea800be0090001085200000804000904078002f
:100eb8009091200000004100014878009ec9bf00c1
:100ec8000040e8009ee9b7003e0090000000e800fe
:100ed800300798005c00370040c0b30090e9b700c5
:100ee8000040eb009ee9b700570037009ec9bf00dd
:100ef800e14f500010003e009ec9bf000081fb007a
:100f0800be009000108520000080400090407800ce
:100f18006800470000004100014878009ec9bf00f2
:100f28000040e8009ee9b7003e0090000000e8009d
:100f3800300798004400370050c0b30090e9b7006c
:100f48000040eb009ee9b7003f003700be0090006c
:100f5800108520000080400010407800ed4f5000c0
:100f680003003a0060c0b30090e9b70036003700cc
:100f78000000eb0030079800380007003e009000a2
:100f88000000e800300798002f003700680047008d
:100f980021c0b30011020700004f7800a1c0b300c0
:100fa80010852000f40207009e4f500005003a000b
:100fb80070c0b30090e9b70010c0b3009fe9b70054
:100fc80021003700250007001f0037009fc9bf0018
:100fd8000004e0001c00320080c0b30090e9b700b4
:100fe8009460a9009560a9000040eb009ee9b70055
:100ff800750007000000eb00e04c88002116800017
:10100800e0ff2f00008060000030a000201688005c
:101018009580a8000c003700a0c9bf008080fb00a5
:10102800e04c8000808f50000700310023c2bf00d1
:10103800614060000004e000030032000000eb00a3
:101048003007980005000700d04c80000000e00041
:10105800dffe3a000080fa00000006000000fa00f7
:101068000000eb00d04c88000040eb0090e9b7008e
:101078000040eb00a0e9b7000040eb009ee9b70094
:101088000040eb0096e9b7009560a80021168000a3
:1010980070ff2f00008060000000a000201688006c
:1010a8000040eb009fe9b7002222a9000080fa0067
:1010b800000006000400fa00000f78000040eb0072
:1010c800a1e9b700380037001e007800104078000a
:1010d8000081fb00a1c9bf000080fb00c200dd0049
:1010e80040292800614078000000fb00800f510073
:1010f8002a003a001e00e800104078000081fb003a
:10110800a1c9bf000080fb004200dd008000e800ac
:1011180040292800614078000000fb00800f510042
:101128001e003a001e80e800104078000081fb0095
:10113800a1c9bf000080fb004200dd008080e800fc
:1011480040292800614078000000fb00800f510012
:1011580012003a009e00780063804000104078003a
:101168000081fb00a1c9bf000080fb004200dd0038
:10117800e300400040292800614078000000fb009f
:10118800800f510005003a00a1c9bf0098e9b700d7
:10119800100020001007980008003700a1c9bf0000
:1011a8000040e800a1e9b700a1c9bf00e84f50001e
:1011b800c5ff36008000eb00110798001e00900064
:1011c8000080fa00000006000c00fa000040eb0066
:1011d800004f780098c9bf000004e000b2003a0050
:1011e80091c9bf0060e8b70092c9bf0061e8b700c5
:1011f80097c9bf000004e00055003a0020c4b300be
:1012080062e8b700d0c4b30063e8b70030c5b300e4
:1012180064e8b70040c5b30065e8b70000c3b30091
:1012280066e8b70000c3b30067e8b70020c3b3009f
:1012380068e8b70080c3b30069e8b700a0002000e1
:10124800e04c880090cbb300a0e9b7000040eb0069
:10125800a1e9b7001c003700a1c9bf000080fb004e
:1012680080004000a093200000804000100078001b
:10127800100078008e00e800b50107000040eb0080
:10128800004f78000a003700e24c80009e80fb0087
:101298000e00e800e14078000086200000004100d0
:1012a800014878000200e800e04c88001e4fe80082
:1012b80030c0b3009e4f1000f3ff3600a1c9bf0035
:1012c8000040e800a1e9b700119a20009140780099
:1012d800a0c2b30080cf5000dfff360061cbb3005f
:1012e8000086200024020700e5004700f7010700f8
:1012f800e24c80006500470090407800008620009e
:1013080000004100014878000200e800e04c880035
:10131800e24c800065004700904090000086200065
:1013280000004100014878000200e800e04c880015
:10133800e24c80000086200080004100d0c0b3004d
:10134800804878000200e800e04c8800af003700d1
:1013580097c9bf00e14f5000ac003a00d0c4b300b9
:1013680062e8b70000c5b30063e8b70030c5b30052
:1013780064e8b70040c5b30065e8b70000c3b30030
:1013880066e8b70000c3b30067e8b70010c4b3004d
:1013980068e8b70030c4b30069e8b700a0002000cf
:1013a800e04c880050c3b300a0e9b7000040eb0050
:1013b800a1e9b7001c003700a1c9bf000080fb00ed
:1013c80080004000609220000080400010007800fb
:1013d800100078008e00e8005d0107000040eb0077
:1013e800004f78000a003700e24c80009e80fb0026
:1013f8000e00e800e140780000862000000041006f
:10140800014878000200e800e04c88001e4fe80020
:1014180030c0b3009e4f1000f3ff3600a1c9bf00d3
:101428000040e800a1e9b700a1c9bf00e94f50009a
:10143800e1ff360021c3b30000862000ce0107007b
:10144800e7004700a1010700e24c80006700470061
:101458009040780000862000000041000148780094
:101468000200e800e04c8800e24c8000670047007a
:10147800904090000086200000004100014878005c
:101488000200e800e04c8800e24c80000086200062
:1014980080004100d0c0b300804878000200e80016
:1014a800e04c88005900370098c9bf00e64f50004b
:1014b8005400320098c9bf00e74f50005100320075
:1014c80098c9bf00e84f50004e00320091c9bf00d4
:1014d80060e8b70092c9bf0061e8b70020002000ab
:1014e800e04c8800d0c0b300a0e9b70020c0b3002a
:1014f800a1e9b7000f003700e24c8000a1c9bf0086
:101508008080fb00802b28006140780080407800b4
:10151800008620000000410001487800e04c80006f
:101528000000e800e04c8800a1c9bf000040e800c6
:10153800a1e9b700a1c9bf00ec4f5000eeff36008b
:1015480098c9bf000080fb00500798005e0090001b
:10155800e30f50001b0032005e009000e30f5000c4
:1015680007003c005e009000e10f50000b003200c5
:101578005e009000e20f50000d003200230037009b
:101588005e009000e40f5000140032005e009000ee
:10159800e50f5000160032001c00370010c0b300e1
:1015a800ade9b7000040eb00aee9b700170037001f
:1015b80010c0b300aee9b7000040eb00ade9b700da
:1015c80012003700a04c80008040780090912000e5
:1015d80082000700b1e9b7000c00370010c0b30063
:1015e800afe9b7000040eb00b0e9b70007003700eb
:1015f80010c0b300b0e9b7000040eb00afe9b70096
:10160800020037000040eb00a0e9b7000080fa00b4
:101618000000060000a0fe000200fa008560a90094
:1016280030118000004f780050c8bf000004e0006f
:1016380006003a0091c9bf009e4f500003003a00cf
:1016480010c0b30050e8b7009460a80050c8bf00ad
:101658000004e00020003200d04c8000ee0f500063
:1016680007003e00d04c80008000e9001085200073
:101678000080400010407800ed4f500004003a0010
:101688000040eb0050e8b7009560a9001200370051
:1016980090c9bf00e54f50000f003e0096c9bf003b
:1016a8000004e0000c003a00d14c800010852000b6
:1016b800008040001e487800801b20001008880029
:1016c80000082000000888008460a900d04c800031
:1016d8000000e800d04c88000080fa000080fe007e
:1016e80000400600809fbe003400f8000000200083
:1016f800a00188000000fa008460a90090c9bf001a
:10170800e74f500014003e0010c0b30096e9b70040
:101718009460a900d04c80008000e900108520006a
:101728000080400010407800ed4f50000600320065
:1017380090c9bf00e64f50000300320090c9bf00b7
:10174800e74f500004003a0010c0b3009fe9b7000b
:101758000040eb0096e9b7000080fa003400f90079
:101768004f00be000040060000a0fe003600f80052
:10177800849fbe00869fbe000000fa008580a900f5
:10178800e14c800000862000008040001040780076
:101798005efc0700e04c80000000e800e04c880098
:1017a800a0c9bf008080fb00e04c8000808f500003
:1017b80004003a009580a900e04c80000000e80091
:1017c800e04c88000080fa004f03be004f02be00c4
:1017d8003600f9000080fe00004006000c00fa0008
:1017e80040079800214f98000000eb003007980050
:1017f8000040eb00a1e9b700440037000040eb00cf
:1018080050479800a1c9bf000080fb008000780005
:101818004e0090000080400010407800404798003b
:10182800ce409000d0c2b30080cf500003003a00f1
:10183800a1c9bf000040e800a1e9b7000000eb0023
:101848001007980010002000000f7800ce4090008c
:10185800f0c2b30080cf50000a003400ce409000a0
:1018680090c3b30080cf500006003c004e4090006b
:101878008000fb0000fd2f0000804000100798004a
:1018880009003700ce40900000c4b30080cf50005c
:10189800050034004e4090008000fb0090fc2f00b3
:1018a80000804000100798002e4890000040e90092
:1018b80050479800060037001e0078004400dd00fd
:1018c800000f78005e4090000040e9005047980003
:1018d800119a2000914078005e409000814f50009e
:1018e800f5ff3e009e0078001e0090000088b900b9
:1018f800000f78003e0090001e004000300798005e
:10190800a1c9bf000040e800a1e9b700119a200072
:10191800914078002e48900080cf5000b7ff3900e2
:101928004e00900090407800d0c2b30080cf5000a5
:1019380004003a00be0090000080eb000088b90067
:10194800300798003e0090000080fa000000060072
:101958000600fa0010079800210798000040eb00e5
:10196800004f7800050037001e4fe8001e00900069
:1019780001002f0001004000100798009e00900011
:10198800f0ff2000808f5000f7ff3e0090c0b300aa
:101998009e4f100006003e001e4078000043b00035
:1019a800804078002e00900001487800050037003c
:1019b8001e4078007043b000804078002e009000f0
:1019c800014878000040eb00004f78000500370020
:1019d8001e4fe8001e00900001f02f00010040009b
:1019e800100798009e009000f00f2000808f500094
:1019f800f7ff3e0090c0b3009e4f100006003e0067
:101a08002e0090008000e8001e4078000043b000df
:101a180080487800050037002e0090008000e8001c
:101a28001e4078007043b000804878000040eb000a
:101a3800004f7800040037001e4fe8001e00900099
:101a480070005000100798001e009000ef0f500023
:101a5800f9ff3e0090c0b3009e4f100006003e0004
:101a68002e0090008080e8001e4078000043b000ff
:101a780080487800050037002e0090008080e8003c
:101a88001e4078007043b000804878001e00900027
:101a9800e90f500006003e002e009000e3004000d1
:101aa8001e0090000043b000804878000500370011
:101ab8002e009000e30040001e0090007043b0002c
:101ac800804878000080fa00000006000600fa004e
:101ad80020479800210798000040eb00004f78004d
:101ae800040037001e4fe8002e4090007040500060
:101af800204798002e409000ef4f5000f9ff3e001d
:101b080090c0b3009e4f100006003e001e407800b3
:101b18000043b000804078002e0090000148780013
:101b2800050037001e4078007043b0008040780000
:101b38002e009000014878002e409000e94f500098
:101b480006003e002e0090008000e8002e40900025
:101b58000043b00080487800050037002e00900050
:101b68008000e8002e4090007043b0008048780064
:101b78000080fa00000006000600fa00100798002e
:101b8800414798000040eb00004f78000040eb0010
:101b9800a1e9b7000d003700a1c9bf000080fb0014
:101ba800800078001e0090000080400010407800ff
:101bb8001e4068008080fb00a02e2800614f78003e
:101bc800a1c9bf000040e800a1e9b700119a2000b0
:101bd800914078004e40900080cf5000eeff3900d1
:101be8001e80fb000080fa00000006000000fa00da
:101bf8000000eb00001188000000eb0010118800c5
:101c08000080eb00601988002062a8002042a9002b
:101c18002022a9002002a90070002000401188009d
:101c280022e2a90022c2a800416a2000914078005f
:101c380000ceb30000c060000014a000a4e6b70006
:101c4800316c20009140780000ceb30000c06000e5
:101c58003040b300c3e6b700aa40a800aa20a900f4
:101c6800aa00a900a9c0a800a9a0a900a980a90044
:101c780022e2a90022c2a90023e2a90023a2a90006
:101c88009580a9009560a8008560a9008580a900b5
:101c980021e2a8002342a8000080fa000000060004
:101ca8000000fa000000eb00200888008460a9000a
:101cb800510a200091407800f0c8b30000c06000cd
:101cc80001c4b30001407000a5e0b7009460a9000a
:101cd8000080eb001008880004a1a9000421a900d5
:101ce80005e1a8000080fa00000006000000fa00e4
:101cf8004066a9004046a8004026a8004006a80063
:101d0800400d2000103288000000eb0030328800bf
:0c1d18008c60a9000080fa0000000600aa
:020000040000fa
:101d2400980900001a0000000200000000000000f2
:101d3400000000000000000000000000000000009f
:101d4400000000000000000000000000000000008f
:101d540050080000480100000000000000000000de
:00000001FF
