:020000040000fa
:080000000002040000000000f2
:020000040000fa
:100400000f3221000e7f22000e0188000000000044
:100410000c00070040fd2100010020001100070032
:10042000000020000000e000020032000000020096
:1004300000000000aa200200000000000040da00d6
:100440000000fe004440a900a00020000000e000e1
:100450000300320000002000a00188004440a800f2
:100460000000060091018800800078000000eb0089
:1004700015003700e280400032a0b4009101ba00bc
:10048000e280400032a0b4009102ba00e280400055
:1004900032a0b4000002eb00472bde00f507b200eb
:1004a000602ce10004003a000059eb008301e900f0
:1004b000fdff3e00040037006128e100010032002a
:1004c0000082eb00040007001101ba000200e00006
:1004d000e8ff3a00000006003159ba008301e90044
:1004e0000c0032002159ba008301e90008003200f3
:1004f0000400e00003003a00e280400032a0b400b3
:10050000f5ff370011d9ba008301e900faff3a007c
:100510008100e800e180400032a0b4000000060045
:100520000040da000000fe00889fbe0080047800d2
:10053000c04a8000e00f500004003a003f0007006e
:100540000084eb00e00f500008003500c84a80002e
:10055000e08f540005003200090044003700070016
:10056000e00f500001003d000084eb00080078001f
:100570004f04be000000060000c0da0000000600c4
:100580000a00fa00e20f500021003e00d04a80002d
:10059000e10f500006003200852320004423200094
:1005a0002323200000232000e08f520004003a00a3
:1005b0008522200044222000232220000022200047
:1005c000060028009003630002003a00870a7800c2
:1005d00010087300004020001300600001003a0082
:1005e00013a0a000020078000600370093027800f4
:1005f0000510b200fdff3200b102fb00050a7800d1
:100600000000e900e00f5000f8ff3a000800370052
:1006100033002000b3bf9f00c0bf9f00d1bf9f0029
:10062000e2bf9f006a805700d3ff07006fb99700b1
:10063000020078000080fa0000000600e00f500081
:1006400004003a00c1952000c14a8800800078006b
:10065000060037008080eb0002322100820f50003c
:1006600002003e00c04a88008000eb0001007800d4
:10067000000006001400200009013700f4ff2f00dd
:10068000070137004f89de00820178001f01370023
:10069000889fbe008a9fbe008c1f78002b01070038
:1006a0003201330003866c006450e1002400320004
:1006b0006420e100270032006150e1002200320096
:1006c0006120e100210032008b854200eb07b10080
:1006d0000134b800003ab8000804420089844a0096
:1006e000013ab8000030b8008880400009014a0093
:1006f00004003300000040008180480002014900ee
:100700008b05e900c909dd0083017000010032009a
:1007100013002000c814de004814dd004709de0085
:100720001200b200c808de00088470001f01070034
:1007300001f0a1000cf0a70001f0a00014013700a7
:100740006120e100160132000801be000200be0077
:10075000f7ff37006150e100fcff3a00100137005d
:10076000889fbe008a9fbe008c1f7800f70007009c
:10077000fe00330003866c006450e1002e0032005e
:100780006420e100330032006150e1002f003200ac
:100790006120e1003100320085855500eb07b00093
:1007a0000900200008042000050037000804440068
:1007b00089844c000a0031000603430087834b0004
:1007c0000001530081815b00f8ff33000203be008b
:1007d0000800a0000804440089844c00f6ff39009a
:1007e000c639dd00830173000100320013002000d0
:1007f0008904d1000884d3000998a30005003200c1
:100800000800a7000300a0008904d1000884d300d9
:100810008b05e8008904d1000884d3000001eb00b7
:100820000281d200e100070001f0a1000cf0a70056
:1008300001f0a000d60037006420e100d8003200ab
:100840000801be000200be00f7ff37006120e10092
:10085000d30032006000b800f3ff37000000200032
:1008600001f82700f0ff370003f0a200889fbe00c8
:100870008a9fbe008c1f7800b4000700bb003300c5
:100880006450e1004f0032006420e1005200320069
:1008900003826c0007003b000905d0000306d0006e
:1008a000820f54000c065d00020039000200320085
:1008b00089017800030678008582550004003d0018
:1008c0000003fd008103fd008502ea008b854200e4
:1008d000840f720002003b0060001000e0801800ee
:1008e0006011b8000005eb007a28e1000a00390029
:1008f00006007800c75ddd00f707b200878075004d
:100900002d003700828171000a01780061056000c6
:100910008180d1000080d3008502e900f9ff3b000f
:10092000060440008784480002003b006004140075
:10093000e0841c000988a300070032008a8171004e
:1009400082817100610164008904d1000884d300b0
:100950008b05e800170037000978a30013003a0060
:100960000b00e000130034008b05e900080444008c
:1009700089844c000a4474000978a3000d003a00f1
:100980000b00e000070034008b05e9000804440078
:1009900089844c0001003a000b0020000978a30074
:1009a000f7ff32000001eb00020037008281710086
:1009b0000a0178007d0007000cf0a70001f0a000fc
:1009c000730037006420e10002003a00838f6c005e
:1009d000730033000801be000200be006c00370047
:1009e000839f68000100e00002003d0060001000ed
:1009f000e08018000300e00002003d0060011100eb
:100a0000e08119008f0007004f00e00002003b006a
:100a100060001000e0801800000006000001be0029
:100a2000980007000470a70003f0a1006509b10059
:100a3000160032000d0035006828e1000600350080
:100a4000f0ff2f00f1ff27000300e00013003b0040
:100a500001002800000005000000400081804800df
:100a60008502e900fcff3a0008003700f88f4200d9
:100a700002003c008000eb00000005008100d10076
:100a80000080d3008502e800fcff3a000300e0008c
:100a900002003b0060001000e0801800000006002b
:100aa000889fbe008a9fbe00841f78002700070031
:100ab0004f00780011003300f0ff2f00838f6c008f
:100ac00006003b00040565000a00a7000800370087
:100ad00009f0a6001000200008003700820f540023
:100ae000838f5c00030039001000200001003e00ed
:100af0000000200009f0a7000000ea004f05be003a
:100b00004f04be000000e00000000600881f7800cf
:100b1000030478000300e00007003d0060001000bf
:100b2000e080180060011900e081190002003b001c
:100b300001f02d00030037006700070008f0a70050
:100b400001f0a0004f047800000006000004be0081
:100b50004c0007000003be000405be000200be00fa
:100b600048000700844f7500000006000200be0028
:100b70006450e100050036006420e1000200360008
:100b80000968a30001003a000800be000160a0004f
:100b90004f0678004f05be004f04be00000006005f
:100ba000f0ff2f00f1ff2700f9ff37008100200040
:100bb000618055000b003d000b00200061fe2f00fe
:100bc0000100e1001d0034008281710061016400b8
:100bd0008904d1000884d3000000e800faff3a003d
:100be00071002000610064000300700002006000da
:100bf0000900320061044400e0844c000988a5002b
:100c0000050032008b05e8006808e10002003a00a8
:100c10008904d1000884d300f20f20000258e100bb
:100c200005003d00c75ddd00f907b2008980750051
:100c300008007800000006000bf827008b00780001
:100c4000000005006022b800060220000000d0006d
:100c50008180d2000482d2008582d2000000a000f0
:100c60000202520083825a00030031000202420055
:100c700083824a000000a1000603e900f3ff3a0066
:100c800000000600c70ade00f107b200f50fb2004f
:100c900008003200e1cf4200020032000170a000e3
:100ca00024000500810f70000100320004080500d7
:100cb00044000500810f700002003a001400050096
:100cc0008502e9000000400081c04800fcff3b00b5
:100cd0000170a00024000500889fbe008a9fbe000e
:100ce000008270000402710004827100260032004c
:100cf0000004be000200be006011b8006b092000b5
:100d0000950220000182cf000a0039000541b100a0
:100d10000082cf00070039000541b1000982cf00f1
:100d2000040039000541b1000882cf0001003900fc
:100d30000541b10005425200120032000a003b009a
:100d400082817100610164008100d1000080d300c4
:100d50008984d3000884d3008b05e8000442e800ae
:100d6000f7ff3a00070037000804440089844c006c
:100d700000004800818048008b05e9000442e9003a
:100d8000f9ff3a0089ff07004f05be004f04be007f
:100d900000000600889fbe008a9fbe003004be008f
:100da0002005be000404440085844c0006054d0067
:100db00087854d000898be000a90be009500070088
:100dc00002003100680040001008e8004f05be0036
:100dd0004f04be0000000600889fbe008a9fbe0030
:100de0008c1f7800000678003c04be002c05be0075
:100df0000400540085805c0006015d0087815d0071
:100e0000009ebe00029ebe00100020008100070070
:100e1000010039000000eb001c0e10004f067800a6
:100e20004f05be004f04be00000006001200fa008d
:100e3000889fbe008a9fbe008c9fbe000205be0038
:100e40000004be00e4b79f00f5b79f0086bf9f0077
:100e500097bf9f000000eb00d0b79f00c0b79f0076
:100e6000b0b79f00a0b79f0090b79f000006780022
:100e7000fd032000dfb197004fb0970003814100d0
:100e8000bfb09700e08f510004003d0066000700ee
:100e90007e805700bfff0700030037006200070095
:100ea0007e805700ccff0700dfb09700e08f500036
:100eb0000700350014002000050020006033b80052
:100ec00008047200898472000a0573008b85730020
:100ed0000c06e8008d0f5600e6ff3400e08f50004e
:100ee00006003d006fb29700ffb297000fbb97005e
:100ef0009fbb97007e805700a6ff07005fa8970062
:100f0000e00f500004003a001fb49700afb4970000
:100f10003fb59700cfb597000800be000a01be009c
:100f20004f06be004f05be004f04be000080fa0011
:100f300000000600881f780018002000881f780035
:100f4000baff07008f87e9004f0478000000060011
:100f5000801feb00b5ff07008f87e9000000060047
:100f6000889fbe008a9fbe008c1f78004e0007003d
:100f700005003d005100070009003d005b0007002f
:100f80000006eb00060037005d00070004003d008e
:100f90006044b8006055b800540007001c002000f1
:100fa000e4ff0700e00f5600010032005a0007007e
:100fb0004f0678004f05be004f04be00000006003b
:100fc000889fbe008a9fbe008c1f780036000700f5
:100fd00003003d003900070006003d000400370013
:100fe0004700070003003d006044b8006055b800aa
:100ff0003e000700d6ff0700e00f56000100320058
:10100000450007004f0678004f05be004f04be00a4
:10101000000006000440e10005c8e10006d0e10040
:1010200007d8e10000000600cf01de000281710058
:10103000b2b79f004f09de000000400000007100c1
:10104000a0b79f000fb097004f01de0081804000e5
:101050008100710091b79f007faa9700cf20de002a
:10106000000040000080700080b79f000800be00b4
:101070000a01be004f18de000402420000027200a6
:10108000f4af9f000804440089844c000a054d0019
:101090008b854d004fb29700dfb297006fb397007a
:1010a000ffb3970000000600e00f5000e08f5800eb
:1010b000e00f5900e08f5900000006006044b800be
:1010c0006055b8000000540081805c0002015d00a2
:1010d00083815d001c0020000820e10009a8e100d8
:1010e0000ab0e1000bb8e100000006000402540061
:1010f00085825c0006035d0087835d0000000600ba
:101100000006eb00e00f5200e08f5a00e00f5b009a
:10111000e08f5b00000006006022b8006033b8007a
:101120000000520081805a0002015b0083815b0055
:1011300000000600889fbe008a9fbe008c1f7800ba
:101140000006eb00e00f5000e08f5800e00f590060
:10115000e08f590007003d006044b8006055b800ba
:101160000000540081805c0002015d0083815d000d
:101170001c002000e00f5200e08f5a00e00f5b00df
:10118000e08f5b0007003d006044b8006055b80088
:101190000402540085825c0006035d0087835d00c5
:1011a0000c00a20012000700e00f560006003200fb
:1011b0006022b8006033b8000000520081805a00fd
:1011c00002015b0083815b004f0678004f05be0083
:1011d0004f04be0000000600020ab900001bb9005f
:1011e0000200b800810042008100430000000600b8
:1011f000889fbe008a9fbe008c9fbe000404b8007a
:101200000506b8008904460060854e000606b80051
:101210000a054600e0854e000706b8008b0546002b
:10122000040eb800890446000a854e00e0854d0092
:10123000050eb8000a0546008b854e00060eb80064
:101240008b0546000416b8000a0546008b854e0043
:101250000516b8008b054600041eb8008b05460035
:101260000800be000a01be004f06be004f05be00ca
:101270004f04be00000006000c00fa00889fbe006c
:1012800000047800f0ff2700d0bf9f008004eb002f
:1012900099bf9f0088bf9f00a8bf9f00200c20001f
:1012a000b0bf9f0078815700cfb097007080570083
:1012b000e60007000fb89700094878008fb897003c
:1012c000088050004f04be000080fa0000000600b5
:1012d000e4874700889fbe008a9fbe008c9fbe00a7
:1012e0008e1f780021942000124a8000e00f5100e8
:1012f0000b003a0064814000124a8800624a88006c
:10130000a1009800514a8800214190000204a000e9
:10131000a2409800614190000204a000e2409800c1
:10132000670440004244de004244dd00514a800030
:101330000002eb00ce952000093221008e8454007b
:101340006400440080bf9f00614eb9000100370077
:101350008b007800214090006100600002003200a4
:101360000a0037009308780091017800234090002c
:1013700061006000fbff320008814000828f510055
:1013800002003900e00f540054003d009105780040
:10139000818f5500eeff3e008e8f5500030039000f
:1013a00020942000808f5500e9ff3900604a8000ba
:1013b000808f50005a003a0020942000808f550002
:1013c00057003a000402e800e10f5200e0ff360047
:1013d00022002000811f7800110009008204d8003b
:1013e000cf007800800f540005003600890f5400ac
:1013f000030031000885e8000a05450014003700a5
:101400006142b800b2ff2f00030020000c01510020
:101410008d815900820f5200838f5a000b003d00ce
:10142000323221000e01510008014100809fbe00b0
:10143000110009000981d800000178004f00be00aa
:101440000991b9000205780001003700080578000d
:101450000a00780034fc0700e10f400005003a0064
:101460000fbd97000a0078002ffc0700e10f400035
:101470002b003200614a800080087800614a8000b9
:10148000e481400021419000830f500002003200af
:101490000204a000010037000204a100a24098004d
:1014a000640555000a0540000a0878006a4a880069
:1014b00021942000010d7800624a8000a240900033
:1014c0000104a00021419800a04090000104a10067
:1014d000214098000002eb009dff3700524a88002f
:1014e000828f5100070036001202be00744a880045
:1014f000854a8800110978000040eb00524a8000bc
:1015000020419800554a80008508780021409000cd
:101510000004a000a0409800648040000100370053
:101520000000eb004f0778004f06be004f05be00dd
:101530004f04be004f00b1000000060064005000e0
:10154000504a8800a04090000104a100214098006a
:1015500000000600889fbe008a9fbe0080047800bd
:1015600001047800648154009205780069f99700bd
:10157000610161000200320009007800efff0700fe
:101580000800780052ff070000047800e00f5400c4
:101590001b003200890f54001900320068bd97000b
:1015a0000805550042d5de00098055004280de0066
:1015b0000a017800800f5500010036000001780014
:1015c0004211dd000800be00f7030700890f540038
:1015d0000b0031004255dd000a054400890f55001b
:1015e0000700360089045500c2ccde00c24cdd0085
:1015f00089044400704a8000814a8000808cbe00cb
:10160000080078004f05be004f04be000000060031
:10161000800178003141780082597800e04f510014
:10162000fcff3a00000006009041780031c15100f3
:1016300004003a00e0cf5100020032000000e80050
:10164000f9ff37000200fb00000006000f04b000a5
:10165000889fbe008a9fbe008c9fbe008e1f7800b0
:10166000c0b79f00d1af9f00a2b79f000000eb0062
:10167000c0033700dfa897008100e800d1af9f00ca
:1016800052c2b30082cf520006003a000007eb00be
:1016900006c3b30003c2b300b1c2b3005fa8970092
:1016a00014003700cfb19700330190000204b2005c
:1016b0000500320003027800940178008549780023
:1016c000030ae800070037000501fb00cfb09700d0
:1016d00002007800bc03070000017800e10f410020
:1016e000a5033200bfb297008502e800b5b79f009e
:1016f000a103370090427800d7c2b30087cf5200d1
:101700000b0032000001e80087cf520005003c00ca
:1017100083cf52000900320081cf52000e003a0000
:101720000800370086cf52000b003a000700370050
:101730000e30a0000000e800eeff37000e00a00011
:10174000030037000e10a000010037000e20a0009b
:1017500002007800e7ff3700d0af9f00e20167008a
:10176000010032000e00a100e80167000100320014
:101770000e20a1008501fb000303b100e98f510099
:101780000d003e00000020005fa997006a00b9002c
:101790000003b1009200fb0001004000d200fb00fa
:1017a0000103b100e98f5000f8ff3600c0af9f0081
:1017b000d2af9f000c0037008004eb00c9af9f0040
:1017c000a3c2b30083cf520007003a002fb59700a1
:1017d000ca057800aab79f00cbaf9f005fa897000b
:1017e0000000e800d0af9f008000eb00e1af9f0059
:1017f000e3c2b3005fa9970092cf11001e003a0028
:101800000ee0a000e4c151000201e800d2af9f0049
:1018100012427800834f52000d003a00afb2970099
:1018200045037800a5b79f00e6af9f0082037800cc
:101830008703e80007017800100037006a00b9004c
:101840000003b100020040008301e80002003700fd
:101850006fa89700dfa997001301fb0001fd2f007f
:1018600082804000e98f5000f4ff3600e0af9f0017
:1018700003017800010037005fa997003242780029
:10188000c4779f00c8c6b300884f520023003200bf
:10189000d2af9f000f003c0035c6b300854f520009
:1018a000a700320004003c00e04f52003703320032
:1018b00083c5b3000f00370043c6b300834f520007
:1018c000c4003200e5c14100834f5200ba003a0023
:1018d000c000370035c7b300854f52001a003200f0
:1018e00007003c00f3c6b300834f520011003200e2
:1018f0008341e800834f5200af003a000f003700e9
:1019000053c7b300834f5200b1003200e3c141001e
:10191000834f5200a8003a000900370070006700aa
:101920000100280001003a000101200001077700b2
:10193000d2ff37000e60a000a60037000e50a000b6
:101940000e70a000a3003700afb49700c902780062
:10195000a9b79f00d5b79f00e08f520002003a0060
:101960004b912000dbb79f000000eb00e0b79f0029
:101970005fb09700efb097007fb197008fb99700e5
:10198000010037008500e80081027800614278009c
:10199000e04f5200fbff3a00d0b79f00e1b79f0035
:1019a000f2b79f0083bf9f00efaa9700e08f52001d
:1019b000050032006fb39700868f5200020031009d
:1019c00085037800e7b79f00efb297000006eb00b1
:1019d0004fac9700850f54000100360005065400f7
:1019e000680767002f003a008c01780008c2b30036
:1019f000cfb69700100037003d0090000004b20001
:101a0000040032001d00780008487800800ee800cd
:101a1000050037008d00780000022000ea02070070
:101a2000e10f400003003200bfb497008904e800d2
:101a3000b9b79f008c0178000c06e900e08f5100d7
:101a4000edff3a00170037003d0090000004b2009f
:101a5000090032009d0178000801780032407800ca
:101a600080497800830ee80002047800e04f5000bf
:101a700008003a0010003700080178003200fb002f
:101a8000020478008d007800cf020700e10f4000cb
:101a9000090032003fb097000000e800b0b79f0097
:101aa000050037005fb49700efb497007fb597004b
:101ab0008fbd9700cfb69700090078008004e90039
:101ac000e00f5000e0ff3a00d8b79f00e9b79f0051
:101ad000fab79f008bbf9f00e00f5700a6023200ad
:101ae00011003700380090000004b20004003200fa
:101af000180078000d487800000ce8000500370059
:101b00008800780000022000af020700e10f4000cb
:101b100003003200bfb297008502e800b5b79f000e
:101b20000e067800020037000dc2b3004fb49700d4
:101b30000c07e900e00f5600eaff3a008e0237007a
:101b40002fb3970046047800a6b79f00cfc4de00ed
:101b5000090578008a0578000802be000a03be0065
:101b60004822de004828dd0004027000c4779f0090
:101b70007006670009003200e04f52000700320093
:101b8000e14f420005003200d4779f00e8779f00c4
:101b900021002000e1b79f0003003700d8779f00a5
:101ba00012002000e2b79f0053fb2f008381470003
:101bb000d3b79f007cff370044fb2f00048247000f
:101bc000d4b79f0015002000e5b79f0076ff3700cf
:101bd0000e0cb3000e007800000cb2003b003a007f
:101be000e00f570005003d002fb097004005be00f4
:101bf0004004be00a0b79f000f00370070006700d0
:101c0000120032002fb297004401be00a4b79f001b
:101c1000e29f9f00f39f9f00140090004f80de0022
:101c200080a79f0090a79f006f9c9700ff9c970044
:101c30000fa597009fa59700d8b79f00e9b79f0011
:101c4000fab79f008bbf9f000b003700afb497001f
:101c500049027800a9b79f0004007800cf80de0019
:101c60000101780082017800d0b79f00e1b79f00a2
:101c7000f2b79f0083bf9f005fb29700efb297005b
:101c80007fb397008fbb9700e00f5200e08f5a00a0
:101c9000e00f5b00e08f5b0032003d003e00b300d0
:101ca0006022b8006033b8005fb49700efb49700cb
:101cb0007fb597008fbd97000804520089845a00b1
:101cc0000a055b008b855b0022003700e00f5700a0
:101cd00005003d002fb297004401be004400be0045
:101ce000a4b79f000f003700700067001200320099
:101cf0002fb497004803be00a8b79f00e6a79f0037
:101d0000f7a79f008004eb0089af9f000005eb0060
:101d10009aaf9f006fa09700ffa097000fa99700b0
:101d20009fa99700d0b79f00e1b79f00f2b79f002f
:101d300083bf9f000b003700afb0970041027800cf
:101d4000a1b79f0004047800090020000a002000c9
:101d50000b002000d8b79f00e9b79f00fab79f009b
:101d60008bbf9f00efac9700e08f54000d003a004e
:101d70001a002000eaaf9f005fb09700efb0970015
:101d80007fb197008fb99700e00f5000e08f5800a7
:101d9000e00f5900e08f5900020032008000eb0094
:101da000e1af9f000e017800020cb200b2af9f00bd
:101db00005042000850f51003f00320003003c0065
:101dc000e00f5100080032005600370004082000e0
:101dd000bfa99700848f51001b003200040c200023
:101de000848f51004f003a0013c0b300c3779f00a7
:101df00021852000100037000200fb004300dd00b9
:101e0000008040003002be002003be005fb4970097
:101e1000efb497007fb597008fbd97000440e100b5
:101e200005c8e10006d0e10007d8e1003d00390017
:101e30000241e800c2779f004f719700f44f5100b4
:101e4000edff3a003700370013c0b300c3779f009f
:101e500004012000050020006033b80012003700a4
:101e60005fb49700efb497007fb597008fbd9700e0
:101e70000440e10005c8e10006d0e10007d8e10018
:101e800028003900490020000402d0008582d200d9
:101e90000683d2008783d2008904e900faff3a0062
:101ea0000040e800c0779f004f709700f04f50004f
:101eb000ebff3a001b00370013c0b300c3779f004d
:101ec00084002000050020006033b80012003700b5
:101ed0005fb49700efb497007fb597008fbd970070
:101ee0000440e10005c8e10006d0e10007d8e100a8
:101ef0000c003900390020000402d0008582d20095
:101f00000683d2008783d2008904e900faff3a00f1
:101f10000040e800c0779f004f709700f54f5000d9
:101f2000ebff3a004f7597008a02fb00efad970078
:101f30008b8f520002003d00cb779f0004003700da
:101f40006fa89700850f500001003d00e5af9f008e
:101f5000cfa89700e08f50000400320063026700b2
:101f6000020032008100e900c1af9f00040024009c
:101f700004026700090032004fa99700efa99700fb
:101f8000830f51000300340003015100c2af9f00d2
:101f9000020037000002eb00c4af9f004f739700b0
:101fa0008602fb008003eb00a7af9f004fac9700b9
:101fb000850f54000200340085025400a5af9f0035
:101fc000640267004c003200e202670061036700b0
:101fd000e08f52001b003200cfb49700390290000e
:101fe0000404b2000900320099037800b5c2b300be
:101ff000e00f53000100320085c2e800854b7800f5
:102000004fb59700070de8000a003700d502200001
:10201000e00f530001003a008582e900cfb097003d
:10202000050078006801070000027800e10f420017
:1020300018003200bfb597008b05e800bbb79f00c2
:1020400014003700e00f5300120032004fb0970029
:10205000300290000404b2000500320090027800c3
:1020600003c2b300834a78000508e8000600370081
:10207000cfb0970000022000530107000002780053
:10208000e10f420003003200bfb097008100e8007a
:10209000b1b79f002fa99700e00f51001101320046
:1020a00008c3b300820678004fb697003c0090004a
:1020b0000004b200040032001c00780008487800d8
:1020c000000ee800050037008c00780000032000b7
:1020d0003d010700e10f400003003200bfb197004f
:1020e0008301e800b3b79f008d06e900efff3a00d7
:1020f000adaf9f00fb0037002faa9700e00f520002
:10210000170032006802670015003a0008c2b300e9
:10211000afae97004fb697003c0090000004b200ad
:10212000040032001c00780008487800000ee80027
:10213000050037008c007800000220002201070013
:10214000e10f400003003200bfb297008502e800b3
:10215000b5b79f008d06e900efff3a00adaf9f00d5
:10216000e202670061036700e08f52001c0032004a
:10217000cfb39700370290000404b2000a00320087
:102180000704780098037800b5c2b300e00f53004d
:102190000100320085c2e800854b7800cfb497007b
:1021a000870ce8000a003700d5022000e00f53003a
:1021b00001003a008582e900cfb097000500780061
:1021c0000101070000027800e10f4200c500320063
:1021d0003fb597000a05e800bab79f00c100370075
:1021e000e00f5300bf003200cfb597003b029000d4
:1021f0000404b200050032009b02780003c2b30061
:10220000834a7800850de80006003700cfb09700bc
:1022100000022000ec00070000027800e10f4200fd
:10222000b00032003fb097000000e800b0b79f0058
:10223000ac0037000e07e90000042000bfa897009b
:10224000808f50008200320003003c00e08f50007d
:10225000080032008e003700000820003fa99700d8
:10226000800f510065003200000c2000800f5100eb
:1022700087003a004370dd00cfa99700e08f51003e
:102280002a003d0024852000000042003004be00ea
:102290002005be00e8af9f00f9af9f008ab79f00fe
:1022a0009bb79f000802be000a03be005fb0970004
:1022b000efb097007fb197008fb997001dfb070023
:1022c000c0779f000004fb00cfc4de000905780042
:1022d0008a0578006faa9700ffaa97000fb39700ae
:1022e0009fb397000800be000a01be0091fb0700e3
:1022f0000203be000002be005fb09700efb097007f
:102300007fb197008fb99700040050008580580076
:102310000601590087815900d0b79f00e1b79f009f
:10232000f2b79f0083bf9f0030003700df9897000f
:10233000e08f50001f0032005fb69700efb69700a5
:1023400022852000000041003004be002005be00b0
:102350000801be000c00be003afa0700c0779f00db
:102360000000fb00cf80de000801be009afb0700e2
:102370000002560081825e00a4a79f00b5a79f00bf
:102380008002eb00c5a79f000003eb00d6a79f00cb
:102390002fa49700bfa497004fa59700dfa5970033
:1023a000d8b79f00e9b79f00fab79f008bbf9f0087
:1023b0000e00370029852000690178005fb597007d
:1023c000811f7800110009000285d800cf00780035
:1023d000a2002000811f7800110009000280d800af
:1023e00001007800cf007800c0779f00cf7597007c
:1023f0000b43b000cb779f0025003700248f2000cf
:102400004f989700e00f500001003a0034902000f0
:102410004270dd005fb49700efb497007fb597007e
:102420008fbd9700800278008502e9000500330027
:102430008b05d1000a85d3008984d3000884d3009a
:10244000f9ff37006f006400644078000f00370028
:102450006370b9005fb49700efb497007fb5970041
:102460008fbd9700000278000402e90005003300e8
:102470008b05d1000a85d3008984d3000884d3005a
:10248000f9ff3700674064000043b000c0779f0049
:10249000cfb29700350090000004b2000700320070
:1024a000150178004f70970000497800820ae80013
:1024b000e04f500007003a00120037004f739700ba
:1024c0000600fb00cfb097003f000700e10f40007f
:1024d0000c003200bfb397008703e800b7b79f0036
:1024e0000800370070046700d89f9f008e047800b2
:1024f0000902b200c99f9f000e057800caaf9f0075
:102500006faf9700e00f57004aff3a004faf9700b8
:102510006801670018003200afad9700e08f5500ea
:102520001500340008c2b3008b0678003fb797004f
:102530004fb697003c0090000004b2000400320047
:102540001c00780008487800000ee80005003700fd
:102550008c007800000220001b000700e10f400003
:10256000010032000e07e8008d06e900f1ff3a0095
:102570000e007800b0b79f00dfa897009142780066
:10258000c5779f00e0cf52003afc3a003fb0970079
:102590004f0778004f06be004f05be004f04be0037
:1025a0000f04b1000000060080017800020037002f
:1025b000b1597800040178000202e900e00f5100ef
:1025c000fbff3a0000000600889fbe00010478006f
:1025d000b8009000628160008084eb003c00320013
:1025e000810178000320b2001801900002003a0037
:1025f000e00f510036003a000190a000310498002d
:1026000080047800f90fb200e00f510002003a0098
:1026100028009000000c7800ea8f540006003a0071
:10262000010078000008b20003003a00880078003a
:10263000d0002000e4ff070018009000d8009000b0
:10264000810f50000b0032000000e80010049800d9
:102650001800780009487800000ce80010c0b300aa
:102660002195200080487800ea8f540018003a0035
:10267000050037008800780009407800170007003f
:102680008004780012003700380090000010b2007b
:102690000f00320018019000a80090004800900040
:1026a000b7f7070098009000810f50000400320037
:1026b000380090000003b300300498008084eb00e1
:1026c0000000eb001004980028009000000c780037
:1026d000090078004f04be00000006000200fa0066
:1026e000889fbe00a0ff9f00010478003800900082
:1026f000800078000104b20033003a00e20060007c
:1027000005003a000003b30030049800110498005b
:102710000080eb002e003700d8049000e08f5400ba
:1027200006003a0012002000e680570048009000a2
:1027300093f707001904980023003700a8009000c1
:10274000e08f500008003a005195200021049800c5
:10275000010c780021002000510498001104980019
:102760000030a0003004980018019000a8009000ec
:102770004800900082f70700280090008080eb005e
:1027800011049800aff8970001487800000ce800a9
:102790002ff89700ea4f50000b003a0038009000e5
:1027a0000010b2000800320018019000a80090004c
:1027b0004800900072f707000000eb00100498003a
:1027c000a8009000010c7800aff897000100fb0012
:0c27d0004f04be000080fa00000006006c
:020000040000fa
:1000080090020000900200009002000090020000a0
:100018009002000090020000900200009002000090
:100028009002000090020000900200009002000080
:100038009002000090020000900200009002000070
:020000040000fa
:020000040000fa
:0200000401f009
:04001c00dfff000002
:020000040000fa
:0200000401f009
:04001800f7000000ed
:020000040000fa
:0200000401f009
:040014005f00000089
:020000040000fa
:0200000401f009
:04001000a300000049
:020000040000fa
:0200000401f009
:04000c008700000069
:020000040000fa
:0200000401f009
:0400080007000000ed
:020000040000fa
:0200000401f009
:04000400cf00000029
:020000040000fa
:0200000401f009
:04000000cf0000002d
:020000040000fa
:1027dc0025640000436500006c6c0000256400005b
:0427ec0000000000e9
:020000040000fa
:1027f0000200fa00000f78001e0078000040780008
:10280000614060000080fb00610060004300dd006b
:102810006216800071ff2f0081006100008070004f
:10282000601688000080fa00000006000200fa002e
:10283000000f78001e0078000040780061406000c2
:102840000080fb00610060004200dd006216800035
:10285000b1ff2f00810061000080700060168800c9
:102860000080fa00000006000200fa00000f780065
:102870001e007800e00f500005003a00501680005e
:102880004500de00614060000080fb000c00370066
:102890001e007800e10f500005003a00501680003d
:1028a0004600de00614060000080fb00040037004d
:1028b000501680004700de00614060000080fb0091
:1028c0000080fa00000006000400fa00000f780003
:1028d000110798001e007800cf80de003200200033
:1028e00003002000820f5000838f58004b003e00f1
:1028f00000600100030037000e00370019003700a8
:10290000240037001e009000004078006140600005
:102910000080fb00610060004c00dd00621680005a
:10292000f1ff2e00810061000080700060168800b9
:102930003b0037001e0090000040780061406000be
:102940000080fb00610060004d00dd006216800029
:10295000f1ff2d008100610000807000601688008a
:102960002f0037001e00900000407800614060009a
:102970000080fb00610060004e00dd0062168000f8
:10298000f1ff2b008100610000807000601688005c
:10299000230037001e009000004078006140600076
:1029a0000080fb00610060004c00dd0062168000ca
:1029b000f1ff2e0081006100008070006016880029
:1029c0001e00900000407800614060000080fb0025
:1029d000610060004d00dd0062168000f1ff2d00f7
:1029e0008100610000807000601688001e00900069
:1029f00000407800614060000080fb0061006000e2
:102a00004e00dd0062168000f1ff2b0081006100a6
:102a10000080700060168800010037000000000090
:102a20000080fa00000006000600fa001007980077
:102a3000210798000000eb00000f78000000eb0079
:102a40006bff07008000eb001e0090009eff070058
:102a500010c0b3007901070010c0b3008f01070058
:102a600076010700c0c7b30074010700c0c7b300f8
:102a70008a0107000000fb00000f78002e00900084
:102a8000004078006d0107001e007800804078004b
:102a90002e00900000407800bc0107000000fb0001
:102aa000000f78002e0090004880de000040780083
:102ab000620107001e007800804078002e00900020
:102ac0004880de0000407800b00107000000fb00f5
:102ad000000f78000040eb00580107001e0078004e
:102ae00000407800804078000040eb00a70107001c
:102af0000000fb00000f780070c8b3004f01070012
:102b00001e007800004078008040780070c8b30054
:102b10009e0107000000fb00000f780060cbb300af
:102b2000460107001e0078000040780080407800d1
:102b300060cbb300950107000000fb00000f780098
:102b40001e007800004078003c01070011002000c2
:102b50001e0090005cff07000080fa0000000600e5
:102b60008a00fa00881f7800408798000000eb0078
:102b7000200798000000eb00300798008000eb0071
:102b80004e80900050ff070000c1b3002b010700ea
:102b900000c1b3004101070028010700060037000b
:102ba0002e0090000000e800200798002e00900002
:102bb0000000e900200798004e8090002aff0700df
:102bc000e00f5000f6ff3200110020004e80900010
:102bd0003dff07008000eb004e8090003aff0700a9
:102be00040c0b3001501070040c0b3002b0107002f
:102bf000120107000000eb00000f78002b003700e7
:102c00001e00780000004000000047006a004000fd
:102c10008000eb00010878000000eb00100798002e
:102c20001e00370010002000f1fe07001e00780093
:102c300000004000000047005000900000004000ed
:102c4000800078001e00780000004000000047006f
:102c50006a004000010878001e0078000000400073
:102c600000004700500490004e809000fefe0700d8
:102c7000800074001e007800000040000000470043
:102c80006a004000010878000000eb00d8fe070051
:102c90001e0090000000e800100798001e00900041
:102ca000e70f5000dfff34001e0fe8001e00780021
:102cb000f20f5000d2ff34000000eb00000f78004c
:102cc000860037001e00780061006000e00f5000b1
:102cd00016003a003e00900000004000000047004f
:102ce000d00090003e0090000000e800000040008e
:102cf00000004700500090006f0060004800dd00b9
:102d000000807000010020001e0178004211dd00eb
:102d1000020147000203b0000089be003e0090009f
:102d20000000e80030079800150037003e009000d2
:102d3000000040000000470050009000c400de008a
:102d40003e0090000000e800000040000000470046
:102d5000500090004400dd00008070000100200061
:102d60001e0178004211dd00020147000203b0009d
:102d70000089be003e0090000080e8003007980007
:102d80001e007800e90f500016003c001e0078007d
:102d90004200dd00010320008e80400000804000e2
:102da0001001be0000e02f00f1ff2f0002004000e4
:102db0008380480033f607000200200003fc230054
:102dc00033f6070015f70700800078001e00780032
:102dd00000004000000047000006b0000108780035
:102de000060037001e007800000040000000470089
:102df0000006b00001c82000010878009e00e8002d
:102e0000800720000e004000811f7800ce809000d7
:102e1000811f7800e13e2900811f780016f9070024
:102e2000e68757000000eb00400798001e0078007e
:102e300000004000000047008030900020e42000a7
:102e4000808f500007003c001e007800000040000a
:102e50000000470080309000f07c2000808f500000
:102e60000a003c000000eb005505070010002000a0
:102e700035050700100020003d0507001100200067
:102e80004e80900090fe0700110037001e00780071
:102e900000004000000047008030900080d42000f7
:102ea000808f500007003c001e00780000004000aa
:102eb0000000470080309000309c2000808f500040
:102ec00003003c004e0090000000e800400798001e
:102ed0004e009000260507001e0fe8001e00780037
:102ee000eb0f500077ff3400110020004e8090005f
:102ef00075fe0700110020004e80900072fe070052
:102f0000100020004f0478000080fa000000060046
:102f10001000fa00700798000000eb0010079800fe
:102f200010002000000f78002a0037009e00e80003
:102f300066004700811f7800fe009000811f780026
:102f4000e13e2900811f7800cbf80700e687570093
:102f500066004700f301070020079800ae009000cc
:102f600020e42000808f500004003c00ae00900060
:102f7000f07c2000808f500008003c000000eb0037
:102f80000f05070010002000ef04070010002000cc
:102f9000f70407000000eb0012003700ae009000bd
:102fa00080d42000808f500004003c00ae009000d0
:102fb000309c2000808f500003003c001e009000d9
:102fc0000000e800100798001e009000e8040700c9
:102fd0001e0fe8001e007800ea0f5000d3ff3400f7
:102fe000100020000080fa00000006000200fa0035
:102ff0008000eb00300020008bfe07000000eb009b
:10300000000f7800070037001e007800d4fe07008c
:10301000e00f500002003a000000eb00050037000e
:103020001e0fe8001e007800e20f5000f6ff34008b
:10303000100020000080fa00000006000600fa00e0
:10304000404798000000eb00000f78000e003700aa
:103050004e4090008000fb00720020001e005100d6
:103060000088de0061006000100798001e009000dc
:10307000eefd070010002000ddfd07000000eb0062
:10308000dbfd07001e0fe8001e007800e70f500070
:10309000efff34000080fa00000006000a00fa008a
:1030a000004f980010c4b300004f78000000eb0000
:1030b000100798002f0037000e4890008000fb009a
:1030c0001e009000670010000088de0000407800bd
:1030d000e14060001e4078000080fb004700de00f9
:1030e0000040780000c06800404798001e4078000b
:1030f000e14060004e40900000c0680050479800da
:103100001e00fb000080d10000407800e14060001c
:103110004e40900000c06800604798005e409000fc
:103120000000fb0000004000504798006e409000f7
:103130000000fb004200dd00604798001e00fb001d
:10314000000040008040780080cfb30080c0600065
:103150006e4190005e409000004171004e40900032
:103160000040710000cf70001e0090000000e800d9
:10317000100798001e009000e70f5000ceff3400ab
:103180001e4078000080fa00000006000800fa00e7
:1031900060479800714798000000eb00000f78002e
:1031a000300037006e4090008000fb00720020006d
:1031b0001e0051000088de0000407800e140600001
:1031c0007e4090000080fb004700de000040780059
:1031d00000c06800204798007e409000e1406000f9
:1031e0002e40900000c06800304798007e4090005c
:1031f0000000fb000080d10000407800e14060004a
:103200002e40900000c06800404798003e4090006b
:103210000000fb0000004000304798004e40900046
:103220000000fb004200dd00404798007e40900017
:103230000000fb00000040008040780080cfb30019
:1032400080c060004e4190003e40900000417100ff
:103250002e4090000040710000c070007047980040
:103260001e0fe8001e007800e70f5000cdff34006d
:103270007e4090000080fa00000006000600fa0080
:1032800010079800210798001e009000e00f5000e2
:1032900002003a000000eb000b0037006042200003
:1032a0000bf80700000f78001e007800ae009000b9
:1032b00001087800213f20001e8040009e00900001
:1032c000d3f807001e0078000080fa000000060016
:1032d0000600fa0010079800210798001e009000d1
:1032e000e00f500002003a000000eb000c00370035
:1032f00060422000f6f70700000f78009e0078007b
:103300006a804000ae009000c1f80700213f200015
:103310001e8040009e009000bdf807001e0078004f
:103320000080fa00000006000800fa00100798006c
:1033300022079800330798001e009000e00f50000d
:1033400002003a000000eb000d0037006042200050
:10335000dff70700000f78001e0078002e019000b4
:10336000be0190003200980043009800233f2000e7
:103370001e8041009e009000a5f807001e00780006
:103380000080fa00000006000800fa00100798000c
:1033900022079800330798001e009000e00f5000ad
:1033a00002003a000000eb000d00370060422000f0
:1033b000c7f70700000f78001e0078002e0190006c
:1033c000be0190001200980023009800233f2000c7
:1033d0001e8041009e0090008df807001e007800be
:1033e0000080fa00000006000800fa00200798009c
:1033f0003107980080428000e00f500007003a003b
:10340000be0090002e0090009cff0700100798005f
:103410001e00900080428800210037008142800019
:10342000010f7800140037009e0078004042200011
:103430000080400010007800e00f500005003200ce
:103440009e0078004042200000804000100f78006d
:1034500009003700be0090002e00900087ff070093
:103460001e01780041422000810041008008780060
:10347000100020000b003700213f20001e8040007c
:10348000800078002e00900067f80700e00f5000e1
:10349000e5ff32001e007800be00900001087800b1
:1034a000100020000080fa00000006000a00fa0068
:1034b0002007980032079800430798008042800058
:1034c000e00f500008003a003e019000ce0190004d
:1034d0002e00900094ff0700100798001e00900037
:1034e000804288002400370081428000010f78006c
:1034f000150037009e007800404220000080400008
:1035000010007800e00f5000050032009e007800a7
:103510004042200000804000100f78000a00370071
:103520003e019000ce0190002e0090007eff07002b
:103530001e0178004142200081004100800878008f
:10354000100020000d003700223f20001e00410027
:10355000800078002e00900033f80700e00f500044
:10356000e4ff32001e0078003e019000ce01900082
:103570003200980043009800100020000080fa00fc
:10358000000006000a00fa002007980032079800a1
:103590004307980080428000e00f500008003a0086
:1035a0003e019000ce0190002e00900076ff0700b3
:1035b000100798001e009000804288002400370009
:1035c00081428000010f7800150037009e007800ce
:1035d000404220000080400010007800e00f5000c2
:1035e000050032009e00780040422000008040002c
:1035f000100f78000a0037003e019000ce019000c5
:103600002e00900060ff07001e017800414220005c
:103610008100410080087800100020000d00370074
:10362000223f20001e004100800078002e00900004
:10363000fdf70700e00f5000e4ff32001e007800a5
:103640003e019000ce0190001200980023009800e7
:10365000100020000080fa00000006000800fa00b8
:10366000200798003107980080428000e00f50004a
:1036700007003a00be0090002e00900014ff0700e3
:10368000100798001e00900080428800220037003a
:1036900081428000010f7800140037009e007800fe
:1036a000404220000080400010007800e00f5000f1
:1036b000050032009e00780040422000008040005b
:1036c000100f780009003700be0090002e00900017
:1036d000fffe07001e0178004142200081004100ea
:1036e00080087800100020000c003700213f2000e7
:1036f0001e804000800078002e009000caf707006e
:10370000e00f5000e5ff32009e0078006a80400024
:10371000be009000bef70700100020000080fa00f5
:10372000000006000400fa001007980080428000a4
:10373000e00f500002003a0090c12f00190037003e
:1037400080428000000f78000d0037009e00780056
:10375000404220000080400010007800e00f500040
:10376000050032009e0078004042200000804000aa
:10377000100f78000200370090c12f0009003700b9
:10378000213f20001e804000800078001e00900035
:10379000a5f70700e00f5000ecff32001e00780094
:1037a000100078000080fa00000006000400fa0013
:1037b0001007980080428000e00f500003003a009c
:1037c00080b22600e1ee2c001b0037008042800012
:1037d000000f78000e0037009e0078004042200065
:1037e0000080400010007800e00f5000050032001b
:1037f0009e0078004042200000804000100f7800ba
:103800000300370080b22600e1ee2c000a003700ea
:10381000213f20001e804000800078001e009000a4
:1038200081f70700e00f5000ebff32001e00780028
:10383000c0009000300090000080fa0000000600f8
:103840000400fa001007980080428000e00f50004a
:1038500003003a0080b22600e1ee2c001b00370086
:1038600080428000000f78000e0037009e00780034
:10387000404220000080400010007800e00f50001f
:10388000050032009e007800404220000080400089
:10389000100f78000300370080b22600e1ee2c0004
:1038a0000a003700213f20001e8040008000780081
:1038b0001e0090005cf70700e00f5000ebff3200a5
:1038c0001e007800a0009000100090000080fa0018
:1038d000000006000400fa001007980080428000f3
:1038e000e00f500002003a000000eb001900370022
:1038f00080428000000f78000d0037009e007800a5
:10390000404220000080400010007800e00f50008e
:10391000050032009e0078004042200000804000f8
:10392000100f7800020037000000eb00090037009c
:10393000213f20001e804000800078001e00900083
:1039400039f70700e00f5000ecff32009e007800ce
:103950006a8040000080fa00000006000600fa00bd
:10396000881f7800200798002e009000950007001f
:10397000008fbe0018c0b3000200200003f823002f
:103980001e00be003bf30700e00f500001003500b1
:103990000044eb00e04f54000a003a0018c0b300a6
:1039a00002002000c32524001e00be0033f30700e0
:1039b000e00f500001003c000044eb00e04f5400d9
:1039c000080032000000eb007d020700100020001c
:1039d0005d020700100020006f0207000000eb00ee
:1039e0001800370018c0b3006011b8001e00be00f8
:1039f00020f30700e00f5000010034000044eb000a
:103a0000e04f54000a003a0018c0b3000200200042
:103a1000032224001e00be0018f30700e00f500030
:103a200001003d000044eb00e04f54000400320070
:103a3000100020005802070010002000010037008d
:103a4000200020004f0478000080fa0000000600eb
:103a50000600fa00881f7800200798002e009000ca
:103a600039000700008fbe0018c0b300020020001c
:103a7000c3192c001e00be00fef20700e00f50002c
:103a8000010035000044eb00e04f54000a003a000a
:103a900018c0b30002002000831b24001e00be00db
:103aa000f6f20700e00f500001003c000044eb007c
:103ab000e04f5400080032000000eb004002070015
:103ac0001000200020020700100020003202070032
:103ad0000000eb001900370018c0b30002002000fe
:103ae00003182c001e00be00e2f20700e00f500099
:103af000010034000044eb00e04f54000a003a009b
:103b000018c0b30002002000c31924001e00be002c
:103b1000daf20700e00f500001003d000044eb0026
:103b2000e04f540004003200100020001a02070089
:103b30001000200001003700200020004f04780012
:103b40000080fa00000006000a00fa004007980012
:103b50000000200001ba2300008fbe004e0090003c
:103b600034000700cf80de00c6f20700200798006f
:103b7000310798001e01be002e009000be0090008c
:103b8000c3f207002007980031079800d2cc2c0020
:103b9000c3dc23002e009000be009000f0f207006e
:103ba00002002000831c24002ff307002007980048
:103bb000310798002e009000be0090000080fa00af
:103bc000000006000a00fa004007980000002000ec
:103bd00001ba2300008fbe004e00900015000700c0
:103be000cf80de00a7f20700200798003107980079
:103bf0001e01be002e009000be009000a4f207003f
:103c00002007980031079800a2702d0033c22300ce
:103c10002e009000be009000d1f20700200798000f
:103c2000310798002e009000be0090000080fa003e
:103c3000000006000e00fa00600798006000b8005f
:103c4000008fbe000000eb0050079800f03f2000fe
:103c5000200798000000eb00300798000000eb0000
:103c600040079800160037006e0090006b000700b8
:103c7000500798005e009000cf80de001e0f4000cd
:103c80005e974800de0090003e009000808f50005c
:103c9000020034005e00900030079800de009000c3
:103ca0002e009000808f500002003d005e009000ca
:103cb000200798004e0090000000e80040079800a0
:103cc0004e009000e70f5000e7ff34002e009000f8
:103cd000cf80de003e011000ae8118003e00900053
:103ce000cf80de00001f5100019759001e00be006a
:103cf000620020000300200039f30700008fbe009f
:103d00001e0078000080fa00000006000000fa00a3
:103d10000000eb0011ff0700e00f500002003a0026
:103d20000000eb0019003700100020000bff070017
:103d3000e00f500002003a000000eb0013003700d3
:103d40002000200005ff0700e00f500002003a00ad
:103d50000000eb000d00370030002000fffe0700e0
:103d6000e00f500002003a000000eb0007003700af
:103d70004000200036ff0700e00f500002003a002c
:103d80000000eb0001003700100020000080fa0066
:103d9000000006000000fa000000eb00effe070044
:103da000e00f500002003a000000eb00190037005d
:103db00010002000e9fe0700e00f500002003a006a
:103dc0000000eb001300370020002000e3fe070096
:103dd000e00f500002003a000000eb000d00370039
:103de00030002000ddfe0700e00f500002003a0026
:103df0000000eb00070037004000200014ff070020
:103e0000e00f500002003a000000eb000100370014
:103e1000100020000080fa00000006000600fa00f2
:103e2000200798003e0007000000eb0010079800f4
:103e3000100020003f0007000000eb003d000700dd
:103e4000100020003b0007000000eb0039000700d5
:103e5000100020004500070031000700100020007e
:103e6000420007002e0007000000eb00000f780062
:103e70000c003700210020001e805000110020009f
:103e80008008dd002e00900080806000220020006d
:103e90001e0051000088de003400070020000700eb
:103ea0001e0fe8001e007800e20f5000f1ff340002
:103eb0001b0007000000eb00000f7800090037002e
:103ec000170007001e009000000040001007980037
:103ed0000c0007009e009000008070001007980002
:103ee0001e0fe8001e007800e90f5000f4ff3400b8
:103ef000100020000f0007001e0090000080fa0054
:103f0000000006000000fa00501680004800de00a5
:103f1000614060000080fb000080fa0000000600a5
:103f20000000fa00cc62a800cc62a9000080fa0070
:103f3000000006000200fa00000f78001e00780062
:103f400000407800614060000080fb004f00dd0011
:103f500062168000f1ff2700810061000080700080
:103f6000601688000080fa00000006000200fa00d7
:103f7000000f78001e00780000407800614060006b
:103f80000080fb00610060004200dd0062168000de
:103f9000b1ff2f0081006100008070006016880072
:083fa0000080fa000000060099
:020000040000fa
:103fa8005008000002000000000000004209000064
:103fb8001000000000000000f20800002a000000c5
:103fc8000200000030313200333435003637380013
:103fd8003941420043444500460030003132330045
:103fe800343536003738390061626300646566002d
:103ff80000286e00756c6c00290000005208000053
:10400800a000000002000000010000000000000005
:1040180000000a000000000000000000006400002a
:104028000000000000000000e8030000000000009d
:1040380000001000270000000000000000a086001b
:10404800010000000000000040420f0000000000d6
:104058000000800096980000000000000000e100c9
:10406800f50500000000000000ca9a003b000000af
:1040780000000000e40b5400020000000000e8000b
:1040880076481700000000000010a500d4e80000e2
:1040980000000000a0724e00180900000000400057
:1040a8007a10f3005a0000000080c600a47e8d003c
:1040b8000300000000c16f00f2862300000000002a
:1040c8008a5d78004563010000006400a7b3b6006c
:1040d800e00d000000e889000423c7008a00000002
:1040e8005209000006000000000000001c09000042
:1040f80026000000020000005309000000530900d8
:1041080009000000000200005509000000550900e0
:104118000e02010000000000000000000000000086
:1041280006020200000000001c09000058090000f7
:1041380002000000000000005a0900000200000010
:0c41480002000000010000000000000068
:020000040000fa
:104154001800fa0020002000000f78000000eb0097
:104164001007980019000700380007009efb07009d
:104174009e0090000080400010079800e2fe0700b7
:104184009e00900000804000100798001e009000e0
:10419400e20f500002003a001000200087000700e0
:1041a4000000eb00000f7800030037001e007800c9
:1041b4006afa07001e0fe8001e007800e20f5000a4
:1041c400faff3400f2fe0700f5ff37000000fa00a2
:1041d4000080eb0060198800c002a900c022a90079
:1041e400c062a900c082a900c842a900c862a9008f
:1041f400c882a900c8a2a800c8c2a800c8e2a80032
:10420400c902a800c922a800c942a900c962a9001c
:10421400c982a900c9a2a900c9c2a900c9e2a9000a
:10422400cc62a9000000eb0064000700c402a900ee
:10423400c422a900c462a900cd82a800cda2a8000e
:10424400cdc2a8000080fa00000006000000fa00b9
:104254004567a900213a800000fe2f00008060001d
:10426400203a8800213a8000f0f32f00808060001b
:104274000004200000807000203a8800313a800059
:1042840000e02f00808060000003200000807000a8
:10429400303a88000080fa00000006000200fa00ac
:1042a40000000000210480000080200000806000e5
:1042b400e00f5000fbff320030118000004f780007
:1042c4008560a9001e4078000080fa000000060006
:1042d4000200fa00004f7800000000001111800075
:1042e4000020200000806000e00f5000fbff3a0037
:1042f4001e00fb00201188000080fa000000060068
:104304000000fa0000582200401188000000280034
:104314000011880000402800101188008560a90061
:104324000080fa00000006000200fa00004f780046
:10433400114798001e4090001e4068000080fa005b
:10434400000006000200fa00000f78001e0078004a
:10435400e00f500002003400c462a80001003700de
:10436400c462a9000080fa00000006000200fa00fe
:10437400000f78001e007800e00f500002003400a7
:10438400c402a80001003700c402a9000080fa009a
:10439400000006000200fa00000f78001e007800fa
:1043a400e00f500002003400c422a80001003700ce
:1043b400c422a9000080fa00000006000200fa00ee
:1043c400000f78001e007800e10f500002003a0050
:1043d400cc82a80001003700cc82a9000080fa003a
:0443e40000000600cf
:00000001FF
