:020000040000fa
:080000000002040000000000f2
:020000040000fa
:100400008fa720000e7f22000e0188000000000050
:100410000c000700e002210001002000110007008d
:10042000000020000000e000020032000000020096
:100430000000000016050200000000000040da0085
:100440000000fe004440a900202820000000e00039
:100450000300320000002000a00188004440a800f2
:100460000000060091018800800078000000eb0089
:1004700015003700e280400032a0b4009101ba00bc
:10048000e280400032a0b4009102ba00e280400055
:1004900032a0b4000002eb00472bde00f507b200eb
:1004a000602ce10004003a000059eb008301e900f0
:1004b000fdff3e00040037006128e100010032002a
:1004c0000082eb00040007001101ba000200e00006
:1004d000e8ff3a00000006003159ba008301e90044
:1004e0000c0032002159ba008301e90008003200f3
:1004f0000400e00003003a00e280400032a0b400b3
:10050000f5ff370011d9ba008301e900faff3a007c
:100510008100e800e180400032a0b4000000060045
:080520000040da000000fe00bb
:020000040000fa
:0200000401f009
:04000000ffff0000fe
:020000040000fa
:0200000401f009
:04000800ffff0000f6
:020000040000fa
:0200000401f009
:04000c0078ff000079
:020000040000fa
:0200000401f009
:0400100058ff000095
:020000040000fa
:0200000401f009
:0400140079ff000070
:020000040000fa
:0200000401f009
:04001800fcff0000e9
:020000040000fa
:0200000401f009
:04001c00dfff000002
:020000040000fa
:1000080090020000900200009002000090020000a0
:100018009002000090020000900200009002000090
:10002800900200009002000090020000e00c000026
:100038009002000090020000900200009002000070
:10004800900200009002000090020000680c00007e
:10005800480d00009002000090020000900200008d
:100068009002000090020000900200009002000040
:100078009002000090020000900200009002000030
:100088009002000090020000900200009002000020
:100098009002000090020000900200009002000010
:1000a8009002000090020000900200009002000000
:1000b80090020000900200009002000090020000f0
:1000c80090020000900200009002000090020000e0
:1000d80090020000900200009002000090020000d0
:1000e80090020000900200009002000090020000c0
:1000f80090020000900200009002000090020000b0
:10010800900200009002000090020000900200009f
:10011800900200009002000090020000900200008f
:10012800900200009002000090020000900200007f
:10013800900200009002000090020000900200006f
:10014800900200009002000090020000900200005f
:10015800900200009002000090020000900200004f
:10016800900200009002000090020000900200003f
:10017800900200009002000090020000900200002f
:10018800900200009002000090020000900200001f
:10019800900200009002000090020000900200000f
:1001a80090020000900200009002000090020000ff
:1001b80090020000900200009002000090020000ef
:1001c80090020000900200009002000090020000df
:1001d80090020000900200009002000090020000cf
:1001e80090020000900200009002000090020000bf
:0801f8009002000090020000db
:020000040000fa
:10020800900200009002000090020000900200009e
:10021800900200009002000090020000900200008e
:10022800900200009002000090020000e00c000024
:10023800900200009002000090020000900200006e
:10024800900200009002000090020000680c00007c
:10025800480d00009002000090020000900200008b
:10026800900200009002000090020000900200003e
:10027800900200009002000090020000900200002e
:10028800900200009002000090020000900200001e
:10029800900200009002000090020000900200000e
:1002a80090020000900200009002000090020000fe
:1002b80090020000900200009002000090020000ee
:1002c80090020000900200009002000090020000de
:1002d80090020000900200009002000090020000ce
:1002e80090020000900200009002000090020000be
:1002f80090020000900200009002000090020000ae
:10030800900200009002000090020000900200009d
:10031800900200009002000090020000900200008d
:10032800900200009002000090020000900200007d
:10033800900200009002000090020000900200006d
:10034800900200009002000090020000900200005d
:10035800900200009002000090020000900200004d
:10036800900200009002000090020000900200003d
:10037800900200009002000090020000900200002d
:10038800900200009002000090020000900200001d
:10039800900200009002000090020000900200000d
:1003a80090020000900200009002000090020000fd
:1003b80090020000900200009002000090020000ed
:1003c80090020000900200009002000090020000dd
:1003d80090020000900200009002000090020000cd
:1003e80090020000900200009002000090020000bd
:0803f8009002000090020000d9
:020000040000fa
:10052800504900004e4700004d5000004f4e00005b
:100538004d5000004f4600004d5000004c4f000049
:10054800424d00004f4e0000424d00004f46000053
:100558004d50000053540000424d00005354000019
:10056800414300004b4e0000303000004143000082
:100578004b4e0000303000003030000038420000a0
:100588000d0000000000000000000000a086000030
:1005980001000000409c000000000000a086000050
:1005a80001000000409c00000000000050c3000053
:1005b80000000000102700000000000050c30000e9
:1005c80000000000102700000000000000000000ec
:1005d800d50000007f000000aa000000fe00000017
:1005e8002b000000810000005400000029000000da
:1005f800fc0000005600000083000000d700000047
:1006080002000000a80000007d0000005200000069
:10061800870000002d000000f8000000ac0000007a
:1006280079000000d3000000060000007b000000f5
:10063800ae00000004000000d100000085000000aa
:1006480050000000fa0000002f000000a400000085
:1006580071000000db0000000e0000005a000000de
:100668008f00000025000000f00000008d00000051
:1006780058000000f200000027000000730000008e
:10068800a60000000c000000d9000000f6000000e1
:1006980023000000890000005c0000000800000042
:1006a800dd00000077000000a2000000df0000006d
:1006b8000a000000a00000007500000021000000f2
:1006c800f40000005e0000008b0000009d000000a8
:1006d80048000000e200000037000000630000004e
:1006e800b60000001c000000c9000000b4000000b3
:1006f80061000000cb0000001e0000004a0000005e
:100708009f00000035000000e0000000cf0000005e
:100718001a000000b0000000650000003100000071
:10072800e40000004e0000009b000000e60000000e
:1007380033000000990000004c0000001800000081
:10074800cd00000067000000b20000003900000082
:10075800ec0000004600000093000000c700000005
:1007680012000000b80000006d000000100000003a
:10077800c50000006f000000ba000000ee00000095
:100788003b00000091000000440000006b000000e6
:10079800be00000014000000c10000009500000029
:1007a80040000000ea0000003f0000004200000096
:1007b800970000003d000000e8000000bc000000b9
:1007c80069000000c300000016000000ef000000f0
:1007d8003a000000900000004500000011000000f1
:1007e800c40000006e000000bb000000c60000004e
:1007f80013000000b90000006c0000003800000081
:10080800ed0000004700000092000000bd0000005d
:1008180068000000c200000017000000430000004c
:10082800960000003c000000e90000009400000071
:1008380041000000eb0000003e0000006a000000dc
:10084800bf00000015000000c00000004b000000c1
:100858009e00000034000000e1000000b500000028
:1008680060000000ca0000001f00000062000000d5
:10087800b70000001d000000c80000009c00000038
:1008880049000000e30000003600000019000000e5
:10089800cc00000066000000b3000000e700000084
:1008a80032000000980000004d00000030000000f9
:1008b800e50000004f0000009a000000ce00000094
:1008c8001b000000b100000064000000720000007e
:1008d800a70000000d000000d80000008c000000f8
:1008e80059000000f3000000260000005b00000033
:1008f8008e00000024000000f1000000a5000000a8
:1009080070000000da0000000f0000002000000066
:10091800f50000005f0000008a000000de00000013
:100928000b000000a1000000740000000900000096
:10093800dc00000076000000a3000000f7000000c3
:1009480022000000880000005d000000d6000000c2
:1009580003000000a90000007c000000280000003f
:10096800fd0000005700000082000000ff000000aa
:100978002a0000008000000055000000010000006f
:10098800d40000007e000000ab00000084000000de
:1009980051000000fb0000002e0000007a0000005b
:1009a800af00000005000000d0000000ad0000000e
:1009b80078000000d200000007000000530000008b
:1009c800860000002c000000f900000083510000a0
:1009d800264c000020440000657600002e20000010
:1009e800426400002e2000002b2000005469000003
:1009f8006d6500000000000083530000656e000074
:100a0800642000004d6f00006465000000000000d5
:100a180042300000504900004e47000030300000ce
:040a2800303000006a
:020000040000fa
:100a2c001000fa008e80e80020c0b30046000700da
:100a3c000000eb00000f780064004700c150280054
:100a4c000900090031587800a000b10010c4b300af
:100a5c005ceab70064004700a1c0b30010050700b2
:100a6c00ee004700e304070000003700a0538000ad
:100a7c000000e000fdff3200b000200020168800ce
:100a8c000040eb0064eab7000900370064cabf00fd
:100a9c008080fb006400470000804000104078001c
:100aac001f00070064cabf000040e80064eab700fa
:100abc0064cabf00e94f5000f4ff36001e0fe80077
:100acc00a00020009e0f100002003a000000eb0076
:100adc00000f7800e400470020c4b3008048780081
:100aec006e004700104078000d0007006e004700b4
:100afc00104090000a000700d0c0b30008000700a7
:100b0c000000eb00a05388000080eb001008880068
:100b1c0000082000000888009460a800d3ff37006c
:100b2c000200fa00004f780023c2bf006240600050
:100b3c000004e000fcff3a001e80fb00201188003e
:100b4c000080fa00000006000600fa00004f780052
:100b5c00110798001e4078005beab7001e00fb00ee
:100b6c00200798002e0090000000e00004003200e6
:100b7c002e009000e10f50001a00320031003700b7
:100b8c000040eb0064eab7001000370064cabf00f5
:100b9c008081fb0064cabf000080fb0000004000a5
:100bac00800078001e00900000804000100178004a
:100bbc0083804100809a2000008040000208780069
:100bcc0064cabf000040e80064eab70041a62000f8
:100bdc009140780050c5b30080cf5000ebff360039
:100bec00180037000040eb0064eab7001000370033
:100bfc0064cabf008081fb0064cabf000080fb0098
:100c0c0000004000800078001e0090000080400032
:100c1c001001780083804100009820000080400083
:100c2c000208780064cabf000040e80064eab7001c
:100c3c0041a620009140780050c5b30080cf5000f1
:100c4c00ebff360000072000103a8800f00020006f
:100c5c00001988000116800050ff2f0000806000f2
:100c6c00001688000000eb00201688000000eb0046
:100c7c006016880005e1a8000040eb0054eab700bc
:100c8c000040eb005feab70010c4b30055eab700b0
:100c9c0060c4b30056eab7000040eb0061eab7004d
:100cac000040eb005aeab7000040eb0062eab700e4
:100cbc000040eb0064eab7000900370064cabf00cb
:100ccc008080fb0010802000808040000040eb0002
:100cdc008048780064cabf000040e80064eab700ae
:100cec0041a620009140780080cbb30080cf50000b
:100cfc00f2ff36000040eb0064eab7000900370051
:100d0c0064cabf008080fb003097200080804000c8
:100d1c000040eb008048780064cabf000040e80047
:100d2c0064eab70064cabf00eb4f5000f4ff360012
:100d3c007b040700a70407000080fa0000000600ef
:100d4c001600fa000000eb00300798000040eb00a2
:100d5c0061eab70020168000610060000004e0002a
:100d6c0003003a0065cabf000004e0002400320012
:100d7c0065cabf000080fb00c200dd00602c2800ab
:100d8c00008040001001be003053800041538000b1
:100d9c00800f5100818f59000a003a0065cabf00cc
:100dac000040e80065eab700201680000080ea00e9
:100dbc00e200600020168000008070002016880081
:100dcc000600370030538000415380006100400022
:100ddc00e0804800305388004153880065cabf004a
:100dec00e94f500006003a000040eb0065eab700fe
:100dfc0021168000d0ff2f00008060002016880094
:100e0c005acabf000004e0000c0032005fcabf00e9
:100e1c000080fb008000e900108020000080400072
:100e2c0010407800ed4f50000400320054cabf004f
:100e3c00e54f500001003e002501070095c0bf00a2
:100e4c00684060000004e0001f013a001b013700fd
:100e5c0054cabf000080fb00200f98002e089000a1
:100e6c00e40f5000c10032002e089000e40f500037
:100e7c0011003c002e089000e10f500037003200aa
:100e8c002e089000e10f500004003c002e0890004a
:100e9c000000e00015003200080137002e08900019
:100eac00e20f50004d0032002e089000e30f50006e
:100ebc0094003200010137002e089000e60f50001c
:100ecc00d20032002e089000e60f5000bf00350013
:100edc002e089000e70f5000db0032002e08900027
:100eec00e80f5000e9003200f400370061cabf007f
:100efc00e14f500014003e00be0090001080200016
:100f0c00008040001041780061cabf008080fb0067
:100f1c0050a520000080400010407800804f510008
:100f2c0004003a0061cabf000040e80061eab70063
:100f3c0001003700e60007003e0090000000e800ca
:100f4c0030079800dd00370010c0b30054eab7003a
:100f5c000040eb0061eab700d800370061cabf005f
:100f6c00e34f500010003e0061cabf000081fb003f
:100f7c00be0090001080200000804000904078005f
:100f8c0068004700000041000148780061cabf00ba
:100f9c000040e80061eab7003e0090000000e80065
:100fac0030079800c500370068004700da000700da
:100fbc000004e0000700320020c0b30054eab70080
:100fcc000040eb0061eab7000000eb00c052880063
:100fdc00ba003700be000700b800370061cabf0076
:100fec00e34f50003d003e000000eb00200798004e
:100ffc001000200010079800be0090001080200008
:10100c000080400010407800104798009e409000ef
:10101c00f0c2b30080cf50000a0034009e40900014
:10102c0090c3b30080cf500006003c001e409000df
:10103c008000fb0000fd2f0000804000200798007e
:10104c00090037009e40900000c4b30080cf5000d0
:10105c00050034001e4090008000fb0090fc2f0027
:10106c00008040002007980030c0b30064eab7004d
:10107c00060037001e0090004400dd0010079800a9
:10108c0064cabf000040e90064eab70041a6200032
:10109c009140780061cabf0080cf5000f5ff3e0040
:1010ac009e0090002e0090000088b9001007980058
:1010bc00c15280001e00900000804000c052880089
:1010cc0061cabf000040e80061eab7003e00900032
:1010dc000000e8003007980078003700c05280000c
:1010ec00eb0f500005003e0030c0b30054eab700cf
:1010fc000040eb0061eab700700037007400070095
:10110c006e00370061cabf008080fb00c0528000b7
:10111c00808f50001000310061cabf000081fb00bd
:10112c00be009000108020000080400090407800ad
:10113c0030972000000041000148780061cabf00d0
:10114c000040e80061eab7003e0090000000e800b3
:10115c00300798005900370040c0b30054eab7007c
:10116c000040eb0061eab7005400370061cabf00d1
:10117c00e14f500010003e0061cabf000081fb002f
:10118c00be0090001080200000804000904078004d
:10119c0068004700000041000148780061cabf00a8
:1011ac000040e80061eab7003e0090000000e80053
:1011bc00300798004100370050c0b30054eab70024
:1011cc000040eb0061eab7003c003700be00900025
:1011dc00108020000080400010407800ed4f50003f
:1011ec0003003a0060c0b30054eab7003300370084
:1011fc000000eb0030079800350007003e0090001f
:10120c000000e800300798002c0037006800470009
:10121c0021c0b30039020700004f78003e00900057
:10122c00e3405000108020001d0307009e4f50002b
:10123c0022003a0070c0b30054eab70010c0b300eb
:10124c0062eab7001d00370062cabf000004e0006c
:10125c001a00320080c0b30054eab7009460a900b1
:10126c009560a9000040eb0061eab7006f00070031
:10127c000040eb0060eab700201680000030a000b0
:10128c00201688009580a8000c00370001a62000cd
:10129c009140780063cabf0080cf50000700360031
:1012ac0023c2bf00614060000004e0000300320074
:1012bc000000eb0030079800050007005fcabf0074
:1012cc000004e000e2fe3a000080fa000000060094
:1012dc000000fa000040eb005feab7000040eb00b2
:1012ec0054eab7000040eb0063eab7000040eb00a3
:1012fc0061eab7000040eb005aeab7009460a8001e
:10130c009560a8000040eb0062eab7002222a90019
:10131c000080fa00000006000400fa00000f7800bc
:10132c000040eb0064eab700380037001e0078007c
:10133c00104078000081fb0064cabf000080fb00f5
:10134c00c200dd0040292800614078000000fb004d
:10135c00800f51002a003a001e00e800104078006f
:10136c000081fb0064cabf000080fb004200dd006e
:10137c008000e80040292800614078000000fb0054
:10138c00800f51001e003a001e80e80010407800cb
:10139c000081fb0064cabf000080fb004200dd003e
:1013ac008080e80040292800614078000000fb00a4
:1013bc00800f510012003a009e00780063804000bc
:1013cc00104078000081fb0064cabf000080fb0065
:1013dc004200dd00e3004000402928006140780015
:1013ec000000fb00800f510005003a0064cabf00ea
:1013fc005eeab700100020001007980008003700c4
:10140c0064cabf000040e80064eab70064cabf00c9
:10141c00e84f5000c5ff36008000eb001107980024
:10142c001e0090000080fa00000006000c00fa007c
:10143c000040eb00004f78005ecabf000004e000e3
:10144c00c4003a0055cabf00bae8b70056cabf007c
:10145c00bbe8b7005bcabf000004e0005d003a00c7
:10146c00d0c4b300bce8b70000c5b300bde8b700fa
:10147c0030c5b300bee8b70040c5b300bfe8b70045
:10148c0000c3b300c0e8b70000c3b300c1e8b700a5
:10149c0020c3b300c2e8b70080c3b300c3e8b700f1
:1014ac00a0c0b30060eab70090cbb30063eab7000a
:1014bc000040eb0064eab7001e00370064cabf00ae
:1014cc000080fb0080004000809a200000804000db
:1014dc0010007800100078008e00e800e40107008e
:1014ec000040eb00004f78000c00370003a62000f2
:1014fc00934178000381fb009e80fb000e00e80006
:10150c00e1407800a08b20000000410001487800e9
:10151c000340e80060eab7001e4fe80030c0b3009b
:10152c009e4f1000f1ff360064cabf000040e80077
:10153c0064eab70041a620009140780050c5b30082
:10154c0080cf5000ddff360061cbb300a08b2000b4
:10155c0053020700e50047002602070002a6200000
:10156c00124178008281fb006500470090407800b2
:10157c00a08b200000804100014878000240e80068
:10158c0060eab70002a62000124178008281fb00bd
:10159c006500470090409000a08b20000080410027
:1015ac00014878000240e80060eab70002a620007b
:1015bc00124178008280fb00a08b200080804000cc
:1015cc00d0c0b300804878000240e80060eab70061
:1015dc00ba0037005bcabf00e14f5000b7003a00b9
:1015ec0050c3b30063eab70020c4b300bce8b70033
:1015fc00d0c4b300bde8b70030c5b300bee8b70037
:10160c0040c5b300bfe8b70000c3b300c0e8b700e3
:10161c0000c3b300c1e8b70010c4b300c2e8b70000
:10162c0030c4b300c3e8b700a0c0b30060eab70091
:10163c0050c3b30063eab7000040eb0064eab700a4
:10164c001e00370064cabf000080fb008000400011
:10165c0000982000008040001000780010007800f6
:10166c008e00e800820107000040eb00004f78007c
:10167c000c00370003a62000934178000381fb0087
:10168c009e80fb000e00e800e1407800a08b20005b
:10169c0000004100014878000340e80060eab70010
:1016ac001e4fe80030c0b3009e4f1000f1ff360013
:1016bc0064cabf000040e80064eab70064cabf0017
:1016cc00f34f5000dfff360021c3b300a08b200086
:1016dc00f3010700e7004700c601070002a620003f
:1016ec00124178008281fb0067004700904078002f
:1016fc00a08b200000804100014878000240e800e7
:10170c0060eab70002a62000124178008281fb003b
:10171c006700470090409000a08b200000804100a3
:10172c00014878000240e80060eab70002a62000f9
:10173c00124178008280fb00a08b2000808040004a
:10174c00d0c0b300804878000240e80060eab700df
:10175c005a0037005ecabf00e64f500055003200f9
:10176c005ecabf00e74f5000520032005ecabf0095
:10177c00e84f50004f00320055cabf00bae8b7001e
:10178c0056cabf00bbe8b70020c0b30060eab70080
:10179c00d0c0b30063eab70020c0b30064eab7005e
:1017ac001000370060cabf000081fb0064cabf0094
:1017bc008080fb00802b28006140780080407800fe
:1017cc00a08b2000000041000148780060cabf00d7
:1017dc000040e80060eab70064cabf000040e800bf
:1017ec0064eab70064cabf00ec4f5000edff36004e
:1017fc005ecabf000080fb00500798005e0090009e
:10180c00e30f50001b0032005e009000e30f50000d
:10181c0007003c005e009000e10f50000b0032000e
:10182c005e009000e20f50000d00320023003700e4
:10183c005e009000e40f5000140032005e00900037
:10184c00e50f5000160032001c00370010c0b3002a
:10185c006feab7000040eb0070eab70017003700e2
:10186c0010c0b30070eab7000040eb006feab7009d
:10187c0012003700c0528000804078003097200062
:10188c009e00070073eab7000c00370010c0b300cd
:10189c0071eab7000040eb0072eab70007003700ae
:1018ac0010c0b30072eab7000040eb0071eab70059
:1018bc00020037000040eb0063eab7000080fa003a
:1018cc000000060000a0fe000200fa008560a900de
:1018dc0030118000004f780000c8bf000004e00009
:1018ec0008003a001e80fb00c1a520009140780042
:1018fc008100fb00810f500002003a0010c0b300c1
:10190c0000e8b70000c8bf000004e0002600320069
:10191c00f1a520009140780080cbb30080cf50001f
:10192c0008003e005fcabf000080fb008000e90099
:10193c00108020000080400010407800ed4f5000d7
:10194c0006003a000040eb0000e8b7001000200051
:10195c00a05388009560a9001300370054cabf003b
:10196c00e54f500010003e005acabf000004e000d2
:10197c000d003a005fcabf008080fb001080200081
:10198c00008040001e487800c00f2000100888001e
:10199c0000082000000888008460a9005fcabf000e
:1019ac000040e8005feab7000080fa000080fe000b
:1019bc0000400600809fbe003400f80000002000ac
:1019cc00a00188000000fa0020168000e30f5000f0
:1019dc0006003a000000eb00b05388001000200015
:1019ec00a05388009460a900060037003000200046
:1019fc00201688000080eb001008880000082000ea
:101a0c00000888008460a90054cabf00e74f50004a
:101a1c0018003e00a05380000000e00015003200ca
:101a2c0010c0b3005aeab7009460a9005fcabf00a7
:101a3c000080fb008000e900108020000080400046
:101a4c0010407800ed4f50000600320054cabf0021
:101a5c00e64f50000300320054cabf00e74f50005d
:101a6c0004003a0010c0b30062eab7000040eb007b
:101a7c005aeab7000080fa003400f9004f00be00ab
:101a8c000040060000a0fe003600f800849fbe0057
:101a9c00869fbe000000fa008580a90060cabf00c6
:101aac008080fb00a08b200000804000104078005c
:101abc001bfc070060cabf000040e80060eab700ea
:101acc0001a620009140780063cabf0080cf50006f
:101adc0004003a009580a90060cabf000040e800ed
:101aec0060eab7000080fa004f03be004f02be0050
:101afc003600f9000080fe00004006000c00fa00e1
:101b0c0040079800214f98000000eb003007980028
:101b1c000040eb0064eab700440037000040eb00e3
:101b2c005047980064cabf000080fb00800078001a
:101b3c004e00900000804000104078004047980014
:101b4c00ce409000d0c2b30080cf500003003a00ca
:101b5c0064cabf000040e80064eab7000000eb0074
:101b6c001007980010002000000f7800ce40900065
:101b7c00f0c2b30080cf50000a003400ce40900079
:101b8c0090c3b30080cf500006003c004e40900044
:101b9c008000fb0000fd2f00008040001007980023
:101bac0009003700ce40900000c4b30080cf500035
:101bbc00050034004e4090008000fb0090fc2f008c
:101bcc0000804000100798002e4890000040e9006b
:101bdc0050479800060037001e0078004400dd00d6
:101bec00000f78005e4090000040e90050479800dc
:101bfc0041a62000914078005e409000814f50003b
:101c0c00f5ff3e009e0078001e0090000088b90091
:101c1c00000f78003e0090001e0040003007980036
:101c2c0064cabf000040e80064eab70041a6200087
:101c3c00914078002e48900080cf5000b7ff3900bb
:101c4c004e00900090407800d0c2b30080cf50007e
:101c5c0004003a00be0090000080eb000088b90040
:101c6c00300798003e0090000080fa00000006004b
:101c7c000600fa0010079800210798000040eb00be
:101c8c00004f7800050037001e4fe8001e00900042
:101c9c0001002f0001004000100798009e009000ea
:101cac00f0ff2000808f5000f7ff3e0090c0b30083
:101cbc009e4f100006003e001e4078000043b0000e
:101ccc00804078002e009000014878000500370015
:101cdc001e4078007043b000804078002e009000c9
:101cec00014878000040eb00004f780005003700f9
:101cfc001e4fe8001e00900001f02f000100400074
:101d0c00100798009e009000f00f2000808f50006c
:101d1c00f7ff3e0090c0b3009e4f100006003e003f
:101d2c002e0090008000e8001e4078000043b000b8
:101d3c0080487800050037002e0090008000e800f5
:101d4c001e4078007043b000804878000040eb00e3
:101d5c00004f7800050037001e4fe8001e00900071
:101d6c0001f02f0001004000100798009e00900029
:101d7c00f00f2000808f5000f7ff3e0090c0b300a2
:101d8c009e4f100006003e002e0090008080e80060
:101d9c001e4078000043b0008048780005003700f2
:101dac002e0090008080e8001e4078007043b00048
:101dbc00804878001e009000e90f500006003e009d
:101dcc002e009000e30040001e0090000043b00085
:101ddc0080487800050037002e009000e30040009a
:101dec001e0090007043b000804878000080fa001c
:101dfc00000006000600fa00204798002107980012
:101e0c000040eb00004f7800040037001e4fe80044
:101e1c002e40900070405000204798002e409000bb
:101e2c00ef4f5000f9ff3e0090c0b3009e4f1000e2
:101e3c0006003e001e4078000043b0008040780051
:101e4c002e00900001487800050037001e407800f5
:101e5c007043b000804078002e009000014878005c
:101e6c002e409000e94f500006003e002e009000de
:101e7c008000e8002e4090000043b00080487800bd
:101e8c00050037002e0090008000e8002e409000e6
:101e9c007043b000804878000080fa000000060013
:101eac000600fa0010079800414798000000eb006c
:101ebc00000f78000040eb0064eab7000f00370019
:101ecc0064cabf000080fb00800078001e009000f8
:101edc0000804000104078000080fb001e0068006d
:101eec0080004000a02e280000804000100f7800d9
:101efc0064cabf000040e80064eab70041a62000b5
:101f0c00914078004e40900080cf5000ecff39009b
:101f1c001e0078000080fb000080fa000000060024
:101f2c000000fa000000eb00001188000000eb003c
:101f3c00101188000080eb00601988002062a80056
:101f4c002042a9002022a9002002a9007000200034
:101f5c004011880022e2a90022c2a800416a200098
:101f6c009140780000ceb30000c060000014a000c7
:101f7c00a4e6b700316c20009140780000ceb3008d
:101f8c0000c060003040b300c3e6b700aa40a80010
:101f9c00aa20a900aa00a800a9c0a800a9a0a9006d
:101fac00a980a90022e2a90022c2a90023e2a9006b
:101fbc0023a2a9009580a9009560a9008560a900bd
:101fcc008580a90021e2a8002342a8000080fa0025
:101fdc00000006000000fa000000eb00200888005a
:101fec008460a900510a200091407800f0c8b30029
:101ffc0000c0600001c4b30001407000a5e0b70050
:10200c009460a9000080eb001008880004a1a900ce
:10201c000421a90005e1a8000080fa0000000600d8
:10202c000000fa004066a9004046a8004026a8001f
:10203c004006a800400d2000103288000000eb0084
:10204c00303288008c60a9000080fa000000060085
:020000040000fa
:10205c005e0a00001a0000000200000000000000f0
:10206c000000000000000000000000000000000064
:10207c000000000000000000000100000000000053
:10208c00000800005e0200000000000000000000dc
:00000001FF
