:020000040000fa
:080000000002040000000000f2
:020000040000fa
:100400006fd220000e7f22000e0188000000000045
:100410000c0007000022230001002000110007004b
:10042000000020000000e000020032000000020096
:100430000000000012210200000000000040da006d
:100440000000fe004440a900401420000000e0002d
:100450000300320000002000a00188004440a800f2
:100460000000060091018800800078000000eb0089
:1004700015003700e280400032a0b4009101ba00bc
:10048000e280400032a0b4009102ba00e280400055
:1004900032a0b4000002eb00472bde00f507b200eb
:1004a000602ce10004003a000059eb008301e900f0
:1004b000fdff3e00040037006128e100010032002a
:1004c0000082eb00040007001101ba000200e00006
:1004d000e8ff3a00000006003159ba008301e90044
:1004e0000c0032002159ba008301e90008003200f3
:1004f0000400e00003003a00e280400032a0b400b3
:10050000f5ff370011d9ba008301e900faff3a007c
:100510008100e800e180400032a0b4000000060045
:100520000040da000000fe001004b10003003500b6
:100530009001b10001003c00100005000000050022
:10054000800078001104b100030035009101b10072
:1005500001003c000050a000000006001004b100a3
:10056000070035009001b100040034007000b100b4
:10057000030035009001b10001003c0010000500af
:10058000000005006900e100040035006d00e10095
:10059000030034000002b100010032000000050039
:1005a000100005000a00fa00881f7800800178001a
:1005b0000000e00029003a0020698000e10f5000af
:1005c00008003200802320000000e0000500320017
:1005d00004232000252320006723200080017800c9
:1005e000040037000422200025222000672220007a
:1005f00083222000144090000004e0000400350035
:100600008009eb00144090000074a0001042980094
:100610000002eb000c003700130a2000154478009c
:100620006140640002003a008301e900fbff3a00e8
:100630000402e8009541780061c0610005003200c5
:10064000170078008058780004035100820f520090
:10065000f1ff3a000600510008003700200020009a
:10066000a0bf9f00b3bf9f00c1bf9f00d2bf9f002c
:100670006c80570000c0da005fb897004f04780024
:100680000080fa00000006000a00fa0080017800ed
:10069000e20f500028003e0020698000e10f50006a
:1006a00008003200802320000000e0000500320036
:1006b0000423200025232000462320008001780009
:1006c00004003700042220002522200046222000ba
:1006d00083222000144090000004e0000400350054
:1006e0008009eb00144090000074a00010429800b4
:1006f000154090000028a30003003a001540900028
:100700000024a000904298008001eb000700370011
:10071000154090000008a300fdff320063c0780080
:100720000000fb00000b78008301e800828f51007d
:10073000f7ff3a000800370030002000b0bf9f00ec
:10074000c3bf9f00d1bf9f00e2bf9f006a805700d8
:1007500000c0da006fb99700020078000080fa004c
:1007600000000600020ab900001bb9000200b80030
:100770008100420081004300000006006022b800b2
:10078000060220000000d0008180d2000482d20046
:100790008582d2000000a0000202520083825a002b
:1007a000030031000202420083824a000000a100df
:1007b0000603e900f3ff3a0000000600889fbe0030
:1007c0008a9fbe00010578000100e00004003500aa
:1007d00008003c000000e000200032000500370067
:1007e00060001000e080180002003b0001f02c00c7
:1007f0001a0037000004be006011b8006b09200029
:100800000982cf00020039000882cf000441b00005
:10081000694252000e00320008003b0082817100e4
:10082000610164008904d1000884d3008b05e800cd
:100830000442e800f9ff3a000500370008044400cc
:1008400089844c008b05e9000442e900fbff3a0073
:10085000190107000af0a70001f0a0004f05be0033
:100860004f04be000000060003f0a200889fbe00f7
:100870008a9fbe008c1f7800350107003c013300c1
:100880006450e1004f0032006420e1005200320069
:1008900003826c0007003b000905d0000306d0006e
:1008a000820f54000c065d00020039000200320085
:1008b00089017800030678008582550004003d0018
:1008c0000003fd008103fd008502ea008b854200e4
:1008d000840f720002003b0060001000e0801800ee
:1008e0006011b8000005eb007a28e1000a00390029
:1008f00006007800c75ddd00f707b200878075004d
:100900002d003700828171000a01780061056000c6
:100910008180d1000080d3008502e900f9ff3b000f
:10092000060440008784480002003b006004140075
:10093000e0841c000988a300070032008a8171004e
:1009400082817100610164008904d1000884d300b0
:100950008b05e800170037000978a30013003a0060
:100960000b00e000130034008b05e900080444008c
:1009700089844c000a4474000978a3000d003a00f1
:100980000b00e000070034008b05e9000804440078
:1009900089844c0001003a000b0020000978a30074
:1009a000f7ff32000001eb00020037008281710086
:1009b0000a017800c00007000cf0a70001f0a000b9
:1009c000f40037006420e10002003a00838f6c00dd
:1009d000f40033000801be000200be00ed00370045
:1009e000889fbe008a9fbe008c1f7800d800070039
:1009f000df00330003866c006450e1002400320005
:100a00006420e100270032006150e1002200320042
:100a10006120e100210032008b854200eb07b1002c
:100a20000134b800003ab8000804420089844a0042
:100a3000013ab8000030b8008880400009014a003f
:100a4000040033000000400081804800020149009a
:100a50008b05e900c909dd00830170000100320047
:100a600013002000c814de004814dd004709de0032
:100a70001200b200c808de00088470008e00070073
:100a800001f0a1000cf0a70001f0a000c1003700a8
:100a90006120e100c30032000801be000200be0078
:100aa000f7ff37006150e100fcff3a00bd0037005e
:100ab000f4ff2f00be0037000001be00d700070082
:100ac0000470a70003f0a1006509b1001600320010
:100ad0000d0035006828e10006003500f0ff2f000a
:100ae000f1ff27000300e00013003b000100280095
:100af0000000050000004000818048008502e900f8
:100b0000fcff3a0008003700f88f420002003c006a
:100b10008000eb00000005008100d1000080d300c0
:100b20008502e800fcff3a000300e00002003b0001
:100b300060001000e080180000000600889fbe00e2
:100b40008a9fbe008c1f7800810007008800330058
:100b500003866c006450e1002e0032006420e10046
:100b6000330032006150e1002f0032006120e100cb
:100b70003100320085855500eb07b00009002000e8
:100b800008042000050037000804440089844c0054
:100b90000a0031000603430087834b000001530025
:100ba00081815b00f8ff33000203be000800a00053
:100bb0000804440089844c00f6ff3900c639dd0082
:100bc0008301730001003200130020008904d1006a
:100bd0000884d3000998a300050032000800a7008c
:100be0000300a0008904d1000884d3008b05e8002d
:100bf0008904d1000884d3000001eb000281d200f7
:100c00002d00070001f0a1000cf0a70001f0a000ea
:100c1000600037006420e100620032000801be007d
:100c20000200be00f7ff37006120e1005d003200e6
:100c30006000b800f3ff37000000200001f8270033
:100c4000f0ff37000001be00740007000470a70029
:100c500003f0a10003f8a30013003a006509b100f6
:100c600010003200090035006928e100020035005b
:100c700001002800000005000000400081804800bd
:100c80008502e900fcff3a0000000600f88f4200f0
:100c9000050035008100d1000080d3008502e80006
:100ca000fcff3a00000006008000eb000000050099
:100cb000140020003e0037008100200061805500b4
:100cc0000b003d000b00200061fe2f000100e10041
:100cd0001d00340082817100610164008904d1002b
:100ce0000884d3000000e800faff3a0071002000f9
:100cf000610064000300700002006000090032001f
:100d000061044400e0844c000988a500050032001d
:100d10008b05e8006808e10002003a008904d10070
:100d20000884d300f20f20000258e10005003d00c6
:100d3000c75ddd00f907b200898075000800780002
:100d4000000006000bf827008b007800000005006b
:100d50000004be00310007000003be000405be0011
:100d60000200be002d000700844f75000000060041
:100d70000200be006450e100050036006420e1007e
:100d8000020036000968a30001003a000800be0016
:100d90000160a0004f0678004f05be004f04be0062
:100da00000000600f0ff2f00f1ff2700f9ff3700d9
:100db000889fbe008a9fbe00841f7800e4ff070062
:100dc0004f00780011003300f0ff2f00838f6c007c
:100dd00006003b00040565000a00a7000800370074
:100de00009f0a6001000200008003700820f540010
:100df000838f5c00030039001000200001003e00da
:100e00000000200009f0a7000000ea004f05be0026
:100e10004f04be000000e00000000600c70ade002c
:100e2000f107b200f50fb20008003200e1cf420036
:100e3000020032000170a00024000500810f700044
:100e4000010032000408050044000500810f700015
:100e500002003a00140005008502e900000040008d
:100e600081c04800fcff3b000170a0002400050089
:100e7000881f7800000478005001be004000be00ca
:100e80000400400085804800060149008781490030
:100e9000009cbe000294be000400e1000588e10051
:100ea0000690e1000798e10002003100680044006c
:100eb0001008e8004f04780000000600f48747009f
:100ec000889fbe008a9fbe008c9fbe008e1f780048
:100ed0000205be000004be00d4b79f00e5b79f0026
:100ee000f6b79f0087bf9f000000eb00c0b79f00d0
:100ef000b0b79f00a0b79f0090b79f0080b79f003a
:100f00000d042000bfb097004fb0970000014000d3
:100f10000000e0000f003d004f08de0000007100ff
:100f2000c0b79f009e00070001003d001200200096
:100f3000a100070001003d0012002000a6000700ec
:100f4000b1000700b60007000f004000c8ff07000f
:100f5000220037004f08de0000067100ccb79f006a
:100f60008f00070001003d001200200092000700e2
:100f700001003d001200200097000700a2000700ba
:100f80000fb297009fb297002fb39700bfb397009f
:100f9000a90007000000520081805a0002015b0096
:100fa00083815b0080b79f0091b79f00a2b79f002d
:100fb000b3b79f000007eb009f0007000020e1008f
:100fc00001a8e10002b0e10003b8e1000100310036
:100fd0001e0020000e005600c0b79f004fb29700c1
:100fe0000400e00007003500100020000100200090
:100ff0006011b80008047000898470000a0571004f
:101000008b8571008d06e900beff3a000400e00008
:1010100003003d00820007000f00400094ff07001e
:101020004fa897000000e00004003a000fb49700ba
:101030009fb497002fb59700bfb5970094000700a5
:101040004f0778004f06be004f05be004f04be009c
:101050004f01b10000000600881f78001800200032
:10106000881f780095ff07008f87e9004f047800fc
:1010700000000600801feb0090ff07008f87e9004b
:1010800000000600889fbe008a9fbe008c1f78006b
:101090006e00070007003d0073000700e00f5b00d3
:1010a000e08f5b0007003d00320007000006eb0008
:1010b000040037003400070002003d002a0007004a
:1010c0001c00200072000700e3ff07000203be00bf
:1010d0000002be000c00e000010032002200070008
:1010e0000400be000601be004f0678004f05be009a
:1010f0004f04be0000000600889fbe008a9fbe000d
:101100008c1f78005100070005003d0056000700c5
:10111000e00f5b00e08f5b0006003d00040037003d
:101120001900070003003d006000b8006011b8001e
:101130001000070056000700ceff07000203be00a4
:101140000002be000c00e0000100320006000700b3
:101150000400be000601be004f0678004f05be0029
:101160004f04be00000006006000b8006011b80027
:101170000000370004025000858258000603590021
:1011800087835900000006000006eb00e00f5200c4
:10119000e08f5a00e00f5b00e08f5b00000006006c
:1011a0000180400090b79f000001eb008fb09700d6
:1011b0000100e000000006000200700090b79f00f0
:1011c0000180400080b79f000001eb00ffa897005e
:1011d0000100e000000006000200700080b79f00e0
:1011e000018040006faa9700cf20de000100700050
:1011f000f0af9f0004024200250007004f18de00f8
:101200000002720000000600e4af9f0008044400e2
:1012100089844c000a054d008b854d0000000600b6
:101220003fb29700cfb297005fb39700efb397003c
:1012300000fe2f00000006003fb09700cfb09700df
:101240005fb19700efb19700000006000205be00f5
:101250000004be00e00f5000e08f5800e00f59007e
:10126000e08f5900000006006000b8006011b8006f
:1012700008045000898458000a0559008b855900dc
:101280001c002000e00f5200e08f5a000000060012
:101290000800be000a01be00000006002800fa0097
:1012a000889fbe008a9fbe008c9fbe0003866b0095
:1012b0000c0207000028a30064003a000128a300e4
:1012c00067003a000008a30062003a000108a3008a
:1012d00065003a001e009000be08900081064000a4
:1012e000ed3fb100f4805700ee019000111ab800f4
:1012f0008e099000311bb8009e099000311cb80087
:10130000511db800f485570046000700fe0190000b
:101310003a0007008b85e8003e0007008e09900028
:1013200040000700ee019000340007008b85e800c4
:10133000380007008e099000400007009e099000c9
:101340001b18b800890440000a854800fe0190007f
:10135000340007008b85e80038000700ee0190009c
:10136000300007008e0990001b18b8008904400067
:101370000a8548000a98a30008003a0004024200c7
:1013800085824a0006034b0087834b0008044c000b
:1013900089844c000a054d008d06e90084827200a4
:1013a000850273004c3add008502720001003200b4
:1013b00015002000443ade001400b2004538de007b
:1013c000cb45dd000b007000c540de00cb4ddd00dd
:1013d0008b8070004549de00cb55dd000b017100ac
:1013e000c551de000d037800d701070003f0a1000e
:1013f0000cf0a70003f0a000ce0137001b18b800c6
:101400008502400006834800e0834b0060044c00e6
:10141000070037001b18b800060340008783480008
:10142000faff37001b18b800870340000884480003
:10143000e0844c0060054d00000006001b18b80059
:101440000804400089844800faff37000108a3001f
:10145000b5013a005800be005801be00e3ff370056
:101460000008a300b0013a0009047800f9ff370032
:101470008103780069fe07000001be006000b8002b
:101480000478a30013003a006220e10015003e003a
:101490000d0039008301d1000281d3008180d30087
:1014a0008301d1000281d3008180d3008301d10068
:1014b0000281d3008180d3000538b000c42add004a
:1014c000f300b2008381720007f0a70003f0a000d0
:1014d00000000600f3ff2700f2ff2f006110b900a3
:1014e000fbff370003ff2700f7ff37008f1fd100f6
:1014f000c10107008f87e9000000e000000006003e
:10150000801feb00bc0107008f87e9000000e000ae
:10151000000006001400fa00889fbe008a9fbe00eb
:101520008c9fbe000005be000206be00680047009a
:101530000c90be000a90be00d80107006400e100d4
:101540001a00320016003e006100e1001a0032006d
:101550006e049000fe0490000e0b90009e0b900015
:101560006011b8009e0590000b38b100d501200035
:1015700082817100610164008703d1000683d3007a
:101580008984d3000884d3008502e900f8ff3a007b
:10159000c9fd07000df0a70001f0a00065013700ac
:1015a000f1ff2700f0ff2f006201370001f827004c
:1015b00000002000f7ff37006000b800f5ff37009b
:1015c000dd0107000509780000000600809feb00a0
:1015d000890107008f87e9000000e0000000060095
:1015e0002800fa00889fbe008a9fbe008c9fbe0024
:1015f00007067800878669000c003b00030478002a
:101600008704780008f0a10009f0a100840f5000c1
:10161000858f5800860f5900890f5c000300330046
:101620000cf0a20001003a000cf0a1002d0107000f
:101630006400e1005f003200780147006408e100c7
:10164000610032006c014700748557003200be0013
:101650001201be003a04be001a05be001e0390002f
:10166000be0a90008503530006003d000004fd0003
:101670008104fd000205fd008305fd008703ea00eb
:10168000050378000df8a300040032006004140084
:10169000e0841c0060051d00e0851d006022b8008c
:1016a0007d0320000d38e1008006eb000b003900bf
:1016b0004433dd00f300b2008301730039003700ca
:1016c000848272000d027800e10664008b85d100ef
:1016d0000a85d3008984d3000884d3008703e900f6
:1016e000f7ff3b0008004000898048000a014900dc
:1016f0008b81490004003b0060001000e08018006e
:1017000060011900e08119000358a30009003200ac
:101710008d82720084827200610260008301d100b8
:101720000281d3008180d3000080d3000603e8004b
:101730001b0037000348a30017003a000600e00032
:10174000170034000603e9000d00a3000000480064
:101750008180480002014900838149000348a300b9
:101760000f003a000600e000090034000603e9001b
:101770000000400081804800020149008381490047
:1017800001003a000003eb000348a300f5ff32001c
:101790006022b80002003700848272006182660015
:1017a000e900070003f0a1000cf0a70003f0a0007f
:1017b000e0003700640147006408e10002003a00dd
:1017c0000df8a300d8003a003200be001201be009e
:1017d000d80037001400fa00889fbe008a9fbe0020
:1017e0008c9fbe000004be000205be0068004700da
:1017f0000a90be000890be00280107000070a700f4
:101800000bf0a1000bf8a30020003a009e09900005
:101810000e099000fe0090006e0090009e02900065
:101820003443200084825200c20032000a003c008f
:10183000b4fc2f000428e100140034008301d1001f
:101840000281d3008180d3000080d3008502e800ac
:10185000faff3a00b7003700b40020000428e10086
:1018600007003c0000004000818048000201490060
:10187000838149008502e900faff3a00ad00370094
:101880000300280002002000010037006011b800aa
:101890006000b800a70037002800fa00889fbe004b
:1018a0008a9fbe008c9fbe0003866b008d000700e0
:1018b0006400e100440032006408e1004a003200a4
:1018c0006100e100460032006108e1004900320099
:1018d000ec0647006000b8003d02be003d03be00bc
:1018e000f48657006011b8003d04be003d05be00ff
:1018f0007d0320000b0037000000a0008d06e900ea
:10190000130032000402420085824a0006034b00a5
:1019100087834b000000400081804800020149009d
:10192000838149000802520089825a000a035b0041
:101930008b835b00f0ff3b000802420089824a0073
:101940000a034b008b834b008d06e900edff3a0044
:101950008482720086827200f707b200878272006a
:1019600001003200150020001e0490003e0b900084
:1019700006035400e63fb0000368a30007003200ee
:101980000000a7000500a0008301d1000281d30060
:101990008180d3000080d3000603e8008301d100da
:1019a0000281d3008180d3000080d3000002eb00cd
:1019b0000482d2006400070003f0a1000cf0a7002d
:1019c00003f0a0005b003700640247006408e100f8
:1019d000550032003400be003401be00f6ff37006f
:1019e0006108e100500032006011b8006000b800ea
:1019f000f1ff370003ff270002002000fbff370044
:101a0000889fbe00830478000300e0002c003500ae
:101a100003003c00008270000402710026003200c6
:101a200036432000c50020008383cf000a00390020
:101a30000541b1008283cf00070039000541b100a4
:101a40008183cf00040039000541b1008083cf00bd
:101a5000010039000541b10085c353006022b80080
:101a6000120032000a003b008482720061026000b2
:101a70008301d1000281d3008180d3000080d30094
:101a80000603e8008743e800f7ff3a000700370045
:101a90000000400081804800020149008381490024
:101aa0000603e9008743e900f9ff3a002600070032
:101ab00009f0a70003f0a0004f04be0000000600dc
:101ac00060001000e080180060011900e08119003a
:101ad000d3ff3b00033e2c00f7ff370007f0a200c6
:101ae000bffe3700680447000294be000094be00a9
:101af000fc0447008694be008494be000900780070
:101b0000660007000800780064000700990078006c
:101b1000814f70000b003b000800be0093000700df
:101b20004f00b10003003700f3ff2700f2ff2f0042
:101b30006110b9004f06be004f05be004f04be0045
:101b40000080fa0000000600180020005700200066
:101b5000080453000d003d000600200097fc2f00f4
:101b60000740e1001e0034008482720061026000c0
:101b70008301d1000281d3008180d3000080d30093
:101b80000804e800f8ff3a00470020006104600004
:101b900005047400040464000d003200610040007c
:101ba000e080480060014900e081490003b8a500d9
:101bb000070032000603e8006538e10004003a003f
:101bc0008301d1000281d3008180d3000080d30043
:101bd000f87f20000830e10003003500080378009a
:101be0006000b8006011b8004433dd00f300b200bb
:101bf0008301730000000600889fbe008a9fbe001c
:101c00008c9fbe000404be000605be00809fbe007f
:101c1000829fbe0063000700040678000800be0033
:101c20000a01be005f000700840678004f03be0073
:101c30004f02be008d4f76007fb097001300330037
:101c4000f0ff2f008b8f6b0006003b000d06660037
:101c50000c00a7000a00370007f0a60010002000c3
:101c60000a003700880f5200898f5a008a0f5b00e4
:101c70008b8f5b00030039001000200001003e0044
:101c80000000200007f0a7000000ea004f06be0099
:101c90004f05be004f04be00000006008000780023
:101ca0005002be005003be004439de00f700b2000f
:101cb000f37f200003016100090032000218e100f7
:101cc00016003a008501720083017300838173005e
:101cd0000008200015003a004000200013003700e3
:101ce00085017200830173008381730005003a004f
:101cf00004a8be0006a8be00100020000b0037009c
:101d00000201e9000402420085824a0006034b00fa
:101d100087834b000748a300f9ff32000740a0006b
:101d200004a8be0006a8be00200020008000980085
:101d300092009800000006000003be0037fc070078
:101d40006220e100020032000600be00050005002e
:101d5000e507b100f107b20004f0230084807000b1
:101d600007f0a70001f0a00024000500e482400075
:101d70001078a30007003200640240001178a3002d
:101d80003400be001401be00040032000330a7007e
:101d9000000006003500be001501be000330a000a3
:101da0000000060005ff27000582610007003200e1
:101db0000428e100010032002400050006000700ad
:101dc00001003a0044000500040805000200070075
:101dd000f9ff3a00140005006f8261008102700073
:101de0008502710085027200000006000c00fa00f6
:101df000a0bf9f00c0bf9f0010000700b0bf9f00a2
:101e0000f0bf9f00100c2000d0bf9f0074815700ce
:101e1000efb097006c8057003a0007000080fa008e
:101e2000000006000000fa004fb99700e881570053
:101e3000550107000080fa000000060080007800cd
:101e40003004e000feff3a00010050000000e9000d
:101e500000000600889fbe000004780081447800de
:101e600000fd2f0000004400e90f500002003e007a
:101e7000000178000d00370008007800aaf907007b
:101e80000000e0000300320008007800acf9070011
:101e90000004780008007800b0f907000000e000b6
:101ea0000700320090fa2f00000144000980fb0077
:101eb000800f510002003d000280fb00010037004e
:101ec000f00f20004f04be0000000600881f7800bd
:101ed000106980004601070000047800a9f9070096
:101ee0000000e000faff3a00e10f44000300320076
:101ef0001169800008007800710107004f04780024
:101f000000000600ec874700889fbe008a9fbe0045
:101f10008c9fbe008e1f780081bf9f000207780053
:101f2000106988008046eb00040137008884fb00bc
:101f30000900780093f90700800078000000e000b5
:101f400002003200e1ff0700fc00370050c2b3007e
:101f5000804f5400f0003a000fbd970020c0b3003e
:101f6000c0ef9f00d1ef9f0081ef9f00030037007b
:101f700040c0b300c0ef9f000fbd97000fb997009e
:101f8000b240780082bf9f008184fb0090c6b300fe
:101f900080cf50003500320017003e0066405000f0
:101fa00080cf5000620032000c003e0077405000ad
:101fb00080cf50002800320006003e000104e000ff
:101fc0009b003200a0c2b30080cf50006e003a00e8
:101fd0001d00370080c5b3001600370040c6b300af
:101fe00080cf5000210032006440400080cf50007c
:101ff00065003a001200370030c7b30080cf5000b0
:102000001e00320007003e006740500080cf5000a5
:10201000110032006340400080cf50005a003a0067
:102020001400370050c7b30080cf50000f003200bb
:102030006340400080cf500053003a0065003700f5
:1020400020c0b300cbff3700dfe897008140e800f5
:10205000d1ef9f00c8ff37004fe9970080c0b30061
:10206000e24f5100c3ff3a00c1ff3700acc0b300dc
:10207000590037008cc0b3005700370093ff0700aa
:10208000dfe897000104e00002003a004e0178000a
:10209000d2b79f0010698000d500070000047800c7
:1020a000e10f4000a20032008fec970012003700d1
:1020b0000a85e8008abf9f00160037008fb8970096
:1020c0001100fb00800f5400f9ff32005fe9970018
:1020d0000204e00003003a005fb09700085878005f
:1020e000d0b79f008944e9000a00320010698000df
:1020f000bf000700000478000800e800e10f50006e
:1021000004003600080078001ef907000000e00017
:10211000eaff3200dfe897000104e00087003a00a0
:102120008d46e8005fb197000149780083003700d1
:102130005fe897000004e00003003a008d46e800e5
:10214000ce007800d1b79f0010698000a80007007a
:10215000e10f4000760032005fe997000204e000e2
:1021600003003a00dfb0970080587800d1b79f0095
:102170000fe997000241e90082ef9f004240a90069
:102180006e003400f0ff37000180fb0008fd2f00d7
:1021900008004000e90f50005f003e000a00780090
:1021a000e400070080ef9f008800780003003700fc
:1021b0000fb897000000e80080bf9f000fb997009c
:1021c0001200fb0001004000e90f5000f8ff36004c
:1021d00069ff37000cc1b3003cff070010698000a5
:1021e00083000700000578000040eb00e0ef9f004f
:1021f000d0022000800f550005003a0010698000d1
:102200007b0007000005780011c0b300e1ef9f00dc
:102210008c4078000a0078000eff0700e14f400074
:102220000a003a00116980000a007800a400070043
:102230000d04e0004b003a0010698000300090006f
:102240000048a30043003200480037008fed97009c
:102250006044b8000c81fb00030020000800be00b1
:1022600040f907000004be008c4078000a007800a6
:10227000f8fe07000080fb00010020000804400079
:10228000898448008b45e90007003200106980000e
:1022900057000700000578008c407800edfe07002d
:1022a000e14f4000ebff3a008c4078000a007800d4
:1022b000e8fe0700e14f400003003a00116980008a
:1022c0000a0078007e0007006fe997000204e00032
:1022d0000200320060041400e0841c005fe89700f4
:1022e0000004e00015003a008d46e800cfe89700b2
:1022f000e4cf500003003a004e0078000888be008a
:102300000e0037000e81e900020778001200780005
:1023100008087800090037001069800034000700c1
:10232000808f540005003200e10f40000b003a009e
:102330000d04e0000d0032000a0037008fb897004e
:102340003144780081bf9f000804e000f7fe3a00a6
:10235000040037000000eb00050037001169800021
:10236000570007000d80fb00010037000080eb00e4
:102370004f0778004f06be004f05be004f04be0059
:10238000cf00b100000006000c00fa00881f7800a2
:102390000002780082027800030178008001eb00df
:1023a000e18f50000e0036000100e900e0bf9f0001
:1023b0000004eb00a8bf9f0094bf9f00b4bf9f0024
:1023c000200c2000c0bf9f00850078006e80570061
:1023d000d3000700800178001fb8970008487800f4
:1023e000030078004f0478000080fa000000060027
:1023f000881f780000047800b00090000148a30016
:1024000007003a000108a300050032000198a3006c
:1024100008003200100090000000e00005003200cb
:10242000380090000040a000300498008080eb004d
:10243000200037000190a10031049800180090009e
:102440000000e000060034000000e90010049800dd
:1024500018007800b080fb00000c78000600370000
:10246000380090000068a300edff3a0008007800f3
:10247000a905070080007800380090000078a300cc
:102480000c003a00fa8f500008003a002800900033
:102490000000e000e2ff3200180090000000e800b9
:1024a00010049800180ce900ddff3700ed8f500094
:1024b000e2ff3200010078004f04780000000600bf
:1024c00080017800e10f40001700320031009000d9
:1024d0000008a300140032000098a30012003a0084
:1024e000210290000400e0000f0032001101900072
:1024f00051009000800f51000b0032001100780055
:10250000840f500002003a008008e8000200370003
:102510000200e800900098001100e90080087800af
:1025200003487800010037008081eb000300780049
:10253000000006000001780000c2b300010037006f
:102540000201e8009240780080cf5000fcff32008a
:10255000e9cf5000faff3200d0c2b30080cf500064
:1025600003003a000201e80014c0b3000500370080
:102570000042eb00b0c2b30080cf500001003a002f
:102580000201e8008000eb0005fd2f000400370089
:102590006a08b90000804100850040000201e8009f
:1025a0009201fb0005804100e90f5000f8ff360062
:1025b0000404e000010032008100ea00010078001c
:1025c00000000600889fbe008a1f780080407800c7
:1025d0000004e00021003d008040ea00d0c6b300c6
:1025e00080cf5000090034008104fb004206200027
:1025f000110009008204d800000178000100780071
:102600004311dd00caac20001f0037000100fb00b1
:10261000c3ac200039003700a200200011000900df
:102620000200d80000017800010078004311dd00ad
:10263000030141004300dd00030040003002be0002
:102640002003be0042209000d2209000f221900092
:102650006221900011fb07002e003700d0c6b300a6
:1026600080cf5000230034008104fb00420620008c
:10267000110009008204d8000001780001007800f0
:102680004311dd00cab720000a014100a800200064
:10269000110009000800d8004300dd000a004000d6
:1026a00040229000d022900060239000f023900000
:1026b0000288900092889000b28990002289900050
:1026c000f6fa0700801f7800010278001100090067
:1026d0008804d8000102fd004f0078000402fb00ce
:1026e0004322dd000a0242005403be004402be0041
:1026f000d8ff37000100fb00c3b72000eacf50002d
:10270000c5ff3c004300dd00030040005001be0057
:102710004000be004f0578004f04be0000000600d8
:102720008f03b000889fbe008a9fbe008c9fbe00b2
:102730008e1f7800e0b79f00f1b79f0082bf9f0017
:102740000000eb00a0b79f00e60437008001eb001b
:1027500050c2b30080cf5000090032000100fb00de
:10276000efb097003a050700e10f4000dd043200aa
:10277000afb097008100e800a1b79f00d9043700ef
:102780007fb1970092407800d0c2b30080cf500054
:102790000c00320007003c006d40500080cf50001c
:1027a0000d0032006b40400080cf500019003a000d
:1027b0000e00370000c3b30080cf500015003a0070
:1027c0000f0037000330a0007fb297000402e8003a
:1027d000f4b79f00eaff37000300a000ffb29700a4
:1027e0008502e800f5b79f00e5ff37000310a00061
:1027f0007fb697000c06e800fcb79f00e0ff3700ab
:102800000320a0007fb097000000e800f0b79f0011
:10281000dbff37000318a300010032000300a10012
:102820000338a300010032000320a1000100fb00d7
:1028300002fd2f0002004000e90f500010003e0092
:102840008000eb00c1b79f00020278004fb19700f3
:102850006a10b900ffb297001501fb0000014100aa
:1028600004014100c2b79f005500fb00f5b79f006f
:1028700004004000e90f50000d003e00f3ff370058
:102880000006eb00ccb79f00a0c2b30080cf500081
:1028900007003a000fb89700c000780080bf9f0083
:1028a000c1b79f007fb197000201e800f2b79f0017
:1028b000e0c2b3007fb29700944f100021003a00ad
:1028c000830678000de0a0008400e800644050001a
:1028d000914f100004003200f1b79f008002eb001e
:1028e000b5b79f00100037000fbe97004c0078006e
:1028f0008cbf9f00b0b79f00ffb097008180e800b9
:10290000f1b79f00130037003fb297006a20b9006b
:102910000000410003004000b0b79f00ffb29700e5
:102920008502e800f5b79f007fb697001c01fb0009
:1029300003fd2f0003004100e90f5000f2ff3600b5
:1029400004003700830678000dc0a0000000eb00f3
:10295000b0b79f007fb19700b2407800f2b79f00f8
:10296000c17f9f00c0c6b30080cf50002700320057
:1029700014003c006840500080cf50009d003200a1
:1029800009003c006c40500080cf5000290032000c
:102990006b40400080cf5000720032000104e00024
:1029a000560432008e00370060c6b30080cf50005e
:1029b0001c0032006340400080cf500088003a0085
:1029c0008c00370030c7b30080cf50001c003200ad
:1029d00007003c006440500080cf500013003200dc
:1029e0000040e80080cf50007d003a001100370021
:1029f00050c7b30080cf50007d00320063404000dc
:102a000080cf500076003a000b003700000028000d
:102a10000d48a30001003a000001200080867600e6
:102a2000ccff37000da0a000720037000d60a000a1
:102a3000700037000d50a0000d70a0006d00370031
:102a40008fb997004300780083bf9f00000478008f
:102a50000000e00001003a00c8cc20008004eb0038
:102a6000010037008104e8008900780008804400f4
:102a70001004e000fbff3a003fb297000400e000c2
:102a800003003200890f52000100310084047800f5
:102a90000007eb00cfb29700898f5200010036008b
:102aa000098752004368de00e106600019003a0021
:102ab0000d06780009003700efb0970000022000f3
:102ac00063040700e10f4000030032002fb09700bd
:102ad0000000e800a0b79f000c06e8008e0f56002b
:102ae000f5ff3a000087eb000a0037008800780005
:102af0003100fb0001047800efb097005404070098
:102b0000e10f400003003200afb097008100e80001
:102b1000a1b79f000900e90080047800e10f4000a0
:102b2000f2ff3a000006eb000d00e0000a003a0058
:102b3000ec033700efb097000002200044040700c8
:102b4000e10f4000030032002fb197000201e800be
:102b5000a2b79f000c06e8008e0f5600f5ff3a0062
:102b6000e00337008fb997004300780083bf9f00d0
:102b7000cf80de0001017800820178000205be00ee
:102b80000004be000203be000002be004822de00b8
:102b9000482edd0004027600c47f9f000d48a3008c
:102ba0000a0032000404e00008003200e14f420055
:102bb00006003200d1fb2f00018047000448780056
:102bc000184098002900200002003700d07f9f00a5
:102bd00019002000d2fb2f0002844700a6ff370017
:102be000c3fb2f000384470019002000a2ff370019
:102bf0000d0cb30000702000008266002702320036
:102c00000dc8a3000200320064002000b4b79f008a
:102c10000d48a300050032000fba97004401be0022
:102c20004400be0084bf9f00040037008fba9700a5
:102c30004500be0085bf9f000dfa0700e0af9f0072
:102c4000f1af9f0082b79f0093b79f006022b8004a
:102c50006033b8006fa89700ffa897000fb19700e6
:102c60009fb1970021fa07000000e0000a003d0034
:102c70006fa89700ffa897000fb197009fb197002a
:102c800003f0a200e0af9f00f1af9f0082b79f006a
:102c900093b79f003d00b3000000eb0080a79f00aa
:102ca0006022b8006033b8006fa89700ffa89700b3
:102cb0000fb197009fb1970011fa07000000e000e4
:102cc000340032006fa89700ffa897000fb197005b
:102cd0009fb197000ffa070003fc2f000381470004
:102ce00037fa07000fa097000000e9006300b90061
:102cf000a2002000110009000200d8008000fd00a1
:102d000081a79f000100e00002003d000100e900f2
:102d100080a79f000fa497000840ea0029fe070043
:102d20006faa9700ffaa97000fb397009fb3970071
:102d30005af90700a0af9f00b1af9f00c2af9f003c
:102d4000d3af9f006022b8000600200007ff2300d9
:102d5000e6f907000000e00002003d000800e9007d
:102d60000b0037006022b800060020004702240054
:102d70002fa89700bfa897004fa99700dfa9970039
:102d800012fa07000000e000020035000800e80029
:102d900080a79f003fb29700f80f520057003c00f9
:102da000d0c6b300804f5200290036000485fb00d6
:102db00042062000110009000285d80000017800b9
:102dc000010478004311dd00cbac20000b01410071
:102dd0006022b8000600200007fe23000288900051
:102de00092889000b2899000228990002bf9070008
:102df000a9002000809fbe00110009000984d800ae
:102e0000000478004f00be004344dd000b04440082
:102e100048229000d822900068239000f823900068
:102e20001ef90700801f78000102780011000900d8
:102e30000985d8000102fd004f0078004322dd0023
:102e40000b0242005403be004402be001f003700c4
:102e50000480fb00c9ac2000ea4f52001400360089
:102e6000a2002000110009000280d80000017800b3
:102e7000010478004311dd00090141006022b8001f
:102e80000600200007fe230042209000d220900080
:102e9000f22190006221900000f907004344dd0018
:102ea000090444003802be002803be0007003700b2
:102eb0004300dd00090040006022b8000600200049
:102ec00007fe23005001be004000be00f3f80700db
:102ed0000002be000203be006fa89700ffa8970083
:102ee0000fb197009fb19700bdf90700e0af9f00b9
:102ef000f1af9f0082b79f0093b79f000fa4970088
:102f0000e90f540015003c006022b8006033b8009f
:102f10006fa89700ffa897000fb197009fb1970087
:102f200077f907000000e000320032006fa8970038
:102f3000ffa897000fb197009fb1970025fa0700ef
:102f4000e00f5000e08f5800e00f5900e08f59006b
:102f500028003a00e10f540026003400040020004d
:102f600005002e00b6e02200170124002fa89700cc
:102f7000bfa897004fa99700dfa997005bf907004a
:102f80000000e00002003d00730054000100370023
:102f90007200540080a79f000fc0970089fd0700b2
:102fa000a0af9f00b1af9f00c2af9f00d3af9f0003
:102fb0000002be000203be006fa89700ffa89700a2
:102fc0000fb197009fb1970033fa070001fa07008d
:102fd0000205be000004be006000b8006011b80029
:102fe000a0a79f00b1a79f00c2a79f00d3a79f00e3
:102ff0002e0037006fa89700ffa897000fb1970029
:103000009fb19700f3f907000205be000004be005f
:10301000e00f5000e08f5800e00f5900e08f59009a
:103020000200350076fa0700130037001000200078
:10303000010020006011b800080060008980600075
:103040000a0161008b8161008b03d1000a83d300e8
:103050008982d3000882d300000072008180720050
:10306000020173008381730065fa07000002be004d
:103070000203be005af907000002be000203be00b0
:103080006fa89700ffa897000fb197009fb1970016
:1030900092fa0700a0a79f00b1a79f00c2a79f00b8
:1030a000d3a79f000000eb0080a79f0014c0b300cf
:1030b000c5c220000b0037000400fb004300dd0008
:1030c000050040005001be004000be000040e1008d
:1030d00001c8e10002d0e10003d8e100030039009b
:1030e0000442e800f44f5200f3ff3a00c47f9f000f
:1030f0000400fb00bfb09700008040008fa0970045
:10310000010040004fb1970000075100bfb1970088
:103110000300e000010032000e07e9006380660052
:10312000010032000e07e9000d28a300260032003e
:10313000e18066000d18a3000c003200d0022000d0
:103140000100e00001003a000080e900efb09700c4
:10315000bf020700e10f4000180032002fb29700b5
:103160000402e800a4b79f00140037000100e0004b
:1031700012003200efb0970000022000b4020700f6
:10318000e10f40000d003200afb297008502e80069
:10319000a5b79f0009003700efb09700000320009b
:1031a000ab020700e10f4000030032002fb697008a
:1031b0000c06e800acb79f000e07e9000e00e00027
:1031c000f5ff3c003d0037000d38a3000a00320037
:1031d0000b003700efb09700000220009c020700b0
:1031e000e10f4000030032002fb097000000e8001c
:1031f000a0b79f000e07e9000e00e000f5ff3c00bd
:10320000e18066000d18a3000c003200d0022000ff
:103210000100e00001003a000080e900efb09700f3
:103220008b020700e10f400024003200afb097008e
:103230008100e800a1b79f00200037000100e000f6
:103240001e003200efb0970000022000800207004d
:10325000e10f4000190032002fb197000201e80091
:10326000a2b79f00150037000000fb004300dd00ff
:10327000c1c22000010040003002be002003be0099
:103280000800be000a01be0073f70700a40020007a
:10329000050020006033b80076f707000003b00097
:1032a000efb097006a020700e10f40000300320010
:1032b000afb197008301e800a3b79f004f7a970052
:1032c0000440e900c07f9f00e14f4000e6ff3a0064
:1032d0000b003700efb09700000320005c020700ee
:1032e000e10f400003003200afb297008502e80012
:1032f000a5b79f000fa097000000e90080a79f00de
:103300000fa097000000e000f2ff3c003fb69700de
:1033100020c1b300f20f560001003c006fe097009f
:10332000c07f9f00cf7897000100fb003fb197005e
:1033300000005100e0a79f000104e00008003200f7
:10334000efb09700e002200041020700e10f4000cb
:1033500003003200afb197008301e800a3b79f00dc
:103360004f78970097fc07000002be000203be00e2
:103370002fa09700bfa097004fa19700dfa1970053
:10338000c6f7070013f907001e0037000000fb0016
:103390004300dd00ccc220000c0040003002be0023
:1033a0002003be000800be000a01be002af7070085
:1033b000a4002000050020006033b8002df70700ae
:1033c0000003b000efb0970021020700e10f4000ba
:1033d000030032002fb297000402e800a4b79f0058
:1033e000cf7a97000500fb004300dd000c00400091
:1033f0003002be002003be000800be000a01be006d
:103400001cf707000205be000004be004f7e9700b7
:103410000c40e900c07f9f00e14f4000dbff3a0015
:103420000006eb0009003700efb097000003200012
:1034300007020700e10f4000030032002fb09700a1
:103440000000e800a0b79f000c06e800efa097007e
:10345000810f5600f4ff3a000d38a300a10132009d
:103460000e00e0009f0134000006eb00efb0970073
:1034700000022000f6010700e10f400003003200c7
:103480002fb197000201e800a2b79f000c06e800e8
:103490008e0f560093013200f4ff37000d007800c4
:1034a000000cb20028003a000d00e00005003d00cd
:1034b0008fb997004305be004304be0083bf9f0041
:1034c000140037000d48a3000b0032000fba97001c
:1034d0004400be0084bf9f004f89de00cf91de0014
:1034e0000002be0002037800820378000605be00d9
:1034f0000404be00070037008fba9700450078002b
:1035000085bf9f0000047800cfc4de000905780065
:103510008a057800e00f5400e08f5c00e00f5d004a
:10352000e08f5d0020003d003d00b3006000b8006a
:103530006011b80008045000898458000a05590039
:103540008b855900180037000d00e00005003d0094
:103550000fbe97004c05be004c04be008cbf9f0000
:10356000110037000d48a300080032008fba970001
:103570004500be0085bf9f000401780084017800eb
:103580000205be000004be00070037000fbe970012
:103590004c0078008cbf9f000004780009002000d8
:1035a0000a0020000b0020003fb097000000e00060
:1035b00007003a00e00f5400e08f5c00e00f5d0070
:1035c000e08f5d0002003a0011002000b1b79f00bb
:1035d0000d0778000e0cb20000042000800f570089
:1035e0002f00320003003c000e00e0000700320014
:1035f0003f00370000082000800f57001400320001
:10360000000c2000800f570039003a0014c0b300ae
:10361000c5c220000b0037000400fb004300dd00a2
:10362000050040005001be004000be000040e10027
:1036300001c8e10002d0e10003d8e1002b0039000d
:103640000442e800f44f5200f3ff3a00270037002d
:1036500000012000010020006011b80014c0b30078
:103660000040e10001c8e10002d0e10003d8e10020
:103670001e003900450020000000d0008180d200eb
:103680000281d2008381d2008502e900faff3a006c
:103690000442e800f04f5200f1ff3a0013003700f7
:1036a00080002000010020006011b80014c0b300a9
:1036b0000040e10001c8e10002d0e10003d8e100d0
:1036c0000a0039003c0020000000d0008180d200b8
:1036d0000281d2008381d2000c06e900faff3a0091
:1036e0000442e800f54f5200f1ff3a00c47f9f000a
:1036f000cf7897000100fb003fb19700820f500088
:1037000002003d00c27f9f0004003700bfb1970058
:10371000808f510001003d00b0b79f004fb297006d
:103720000400e00004003200638066000200320002
:103730000402e900c4b79f000de8a3000b003200ab
:10374000cfb297003fb697008c8f520003003c0029
:103750000000eb00c0b79f0004003700cfb0970017
:103760003fb1970082805000c1b79f00cf7997008a
:103770000300fb000002eb0094a79f00cfb297006c
:10378000808f5200020034000080520090a79f00fa
:103790000d28a30037003200e18066000d18a30059
:1037a0000c003200d00220000100e00001003a00cd
:1037b0000080e900efb0970025010700e10f40000d
:1037c0000e0032002fb697000c06e800acb79f0041
:1037d0000a0037000100e00008003200efb0970057
:1037e000000220001a010700e10f40000300320030
:1037f0002fb097000000e800a0b79f009fa097009f
:103800000100e0000f0032000006eb00efb097006f
:10381000000320000e010700e10f4000030032000a
:103820002fb197000201e800a2b79f000c06e80044
:103830009fa19700830f5600f4ff3a000002eb00af
:1038400094a79f00bfb29700c328dd0040c22000ac
:103850008080400091af9f004228dd00640050004e
:1038600080af9f006328b900f0a79f006306500057
:10387000820037001fa697000c00e0001100320004
:10388000688066000f003a0000067800efb09700ed
:1038900000022000ee000700e10f400003003200ac
:1038a0002fb097000000e800a0b79f000c06e800ca
:1038b0009fa09700810f5600f4ff3a000001eb0033
:1038c00092a79f00e18066000d18a3000c00320053
:1038d000d00220000100e00001003a000080e90071
:1038e000efb09700da000700e10f4000d5ff32008b
:1038f000afb197008301e800a3b79f00d1ff370065
:103900000100e000cfff3200efb09700000220007e
:10391000cf000700e10f4000caff32002fb297002e
:103920000402e800a4b79f00c6ff3700000420008f
:10393000800f57003000320003003c000e00e00012
:10394000070032003d00370000082000800f5700bc
:1039500011003200000c2000800f570037003a00a1
:103960001fa897003002be002003be000800be0062
:103970000a01be00b8f50700a400200005002000e1
:103980006033b800bbf5070004c3b3000442400035
:10399000c47f9f002900370035cd2000d5b79f0098
:1039a0000d58a30002003a0040ce2000d0b79f007f
:1039b00014002000050020006033b8008fa8970095
:1039c0008100e900050033000402d0008582d200a6
:1039d0000683d2008783d200f9ff37000800be00bb
:1039e0000a01be009cf507006f0060005fb1970000
:1039f000624078001000370014002000050020000d
:103a00006033b8008c0178008301e90005003300c1
:103a10000402d0008582d2000683d2008783d200c0
:103a2000f9ff37000800be000a01be008af5070052
:103a3000674060000043b000c07f9f004f7a97004e
:103a40000400fb00efb0970081000700e10f400089
:103a500003003200afb297008502e800a5b79f00cf
:103a60001fa897006800500090af9f008fa8970094
:103a7000e480500081af9f0063065600d0ff2f0006
:103a80003fb197000090b900ffa19700008041006e
:103a900063005000800f5600a4ff3a000d38a300c9
:103aa000100032001fa297000400e0000d00340057
:103ab0000006eb00efb09700000220006400070052
:103ac000e10f400003003200afb297008502e8002a
:103ad000a5b79f000c06e8001fa09700800f5600b6
:103ae000f4ff3a007fb19700b2407800f2b79f0030
:103af000c17f9f000104e00014fb3a002fb0970043
:103b00004f0778004f06be004f05be004f04be00b1
:103b10008f03b100000006000200fa00889fbe007b
:103b20008a1f7800000478000000eb001004980061
:103b3000380090008080eb000008a3003f003200b6
:103b400000d220001004e0001000320089cf2000d5
:103b5000eacf20001a0078006c0545002010b20062
:103b600021102000810f500002003a000900780067
:103b70007e000700ec844400c0d12000808f5400f8
:103b8000f4ff3a0000d220000048eb00480090000b
:103b9000580190000200e0000d003a001204980065
:103ba00012002000e88057007ef20700e10f50006d
:103bb00003003a000ff897008080fb001f003700d9
:103bc000380090000040a000300498001200370038
:103bd000a800900073f20700100498000000e000b5
:103be00003003200e10f40000d003a0003003700ef
:103bf000380090000040a00002003700380090001c
:103c00000003b30030049800a8009000010c780075
:103c10000000eb00100498008080eb0007003700e4
:103c2000a8009000010c78000000e9001004980042
:103c300001007800b080fb00000c780001007800e3
:103c40004f0578004f04be000080fa000000060017
:103c5000889fbe000001780001047800b100900048
:103c60000118a3003d0032000198a30003003a00b0
:103c7000180090000000e00038003a000190a00019
:103c80003104980082047800f90fb2001800900007
:103c90000000e00002003a0028009000000c7800cc
:103ca000ea8f540006003a00380090000078a30024
:103cb00003003a0088007800d0002000e4ff0700ed
:103cc0009800900058009000808f50000b00320048
:103cd0000100e800100498001800780009587800e6
:103ce000000c780011c0b30000d220000148780019
:103cf000ea8f54000600320019003700880078006f
:103d00000940780043000700800478001400370061
:103d1000380090000088a3001100320018019000c4
:103d2000a80090004800900057f20700980090000b
:103d3000810f500004003200380090000003b300ef
:103d4000300498008084eb000000eb001004980021
:103d500028009000000c7800010037008084eb0000
:103d6000090078004f04be0000000600881f78009c
:103d700000047800300090000008a3000700320023
:103d8000800078000120b20004003a00110498007d
:103d9000a8009000010c7800170037000018a3005d
:103da000190032000098a30017003200a80090000c
:103db0000100e00014003200180190000200e00051
:103dc00011003200480090002ff207009800900088
:103dd000810f500003003200380090000003b30050
:103de000300498000000eb001004980028009000b8
:103df000000c7800380090000058a3000200320048
:103e00000080eb00010037000000eb004f04780059
:103e1000000006000200fa00889fbe00a0ff9f007d
:103e200001047800b1009000810478000904b20018
:103e3000020032000000fb00360037000118a3002a
:103e400005003a000103b3003104980019049800fa
:103e50000080eb002f003700580090000000e000c9
:103e600006003a004800900012002000e68057004b
:103e700005f207001904980024003700280090007c
:103e80000000e00008003a00c0d1200020049800a3
:103e9000000c7800200020005004980010049800c6
:103ea0000130a0003104980018019000a800900093
:103eb00048009000f4f1070028009000000c780002
:103ec0000080eb001004980018007800aff897000d
:103ed00001587800000c78002ff89700ea4f500046
:103ee0000a003a00380090000088a3000700320062
:103ef00018019000a800900048009000e2f107002f
:103f000019049800a8009000010c7800aff8970001
:103f10000100fb004f04be000080fa000000060014
:020000040000fa
:0200000401f009
:04000c007aff000077
:020000040000fa
:0200000401f009
:040014007fff00006a
:020000040000fa
:1000080090020000900200009002000090020000a0
:100018009002000090020000900200009002000090
:100028009002000090020000900200009002000080
:10003800900200009002000090020000ee300000e4
:100048009002000090020000a22400007a30000014
:100058001a31000090020000900200009002000097
:100068009002000090020000900200009002000040
:100078009002000090020000900200009002000030
:100088009002000090020000900200009002000020
:100098009002000090020000900200009002000010
:1000a8009002000090020000900200009002000000
:1000b80090020000900200009002000090020000f0
:1000c80090020000900200009002000090020000e0
:1000d80090020000900200009002000090020000d0
:1000e80090020000900200009002000090020000c0
:1000f80090020000900200009002000090020000b0
:10010800900200009002000090020000900200009f
:10011800900200009002000090020000900200008f
:10012800900200009002000090020000900200007f
:10013800900200009002000090020000900200006f
:10014800900200009002000090020000900200005f
:10015800900200009002000090020000900200004f
:10016800900200009002000090020000900200003f
:10017800900200009002000090020000900200002f
:10018800900200009002000090020000900200001f
:10019800900200009002000090020000900200000f
:1001a80090020000900200009002000090020000ff
:1001b80090020000900200009002000090020000ef
:1001c80090020000900200009002000090020000df
:1001d80090020000900200009002000090020000cf
:1001e80090020000900200009002000090020000bf
:0801f8009002000090020000db
:020000040000fa
:10020800900200009002000090020000900200009e
:10021800900200009002000090020000900200008e
:10022800900200009002000090020000900200007e
:10023800900200009002000090020000ee300000e2
:100248009002000090020000a22400007a30000012
:100258001a31000090020000900200009002000095
:10026800900200009002000090020000900200003e
:10027800900200009002000090020000900200002e
:10028800900200009002000090020000900200001e
:10029800900200009002000090020000900200000e
:1002a80090020000900200009002000090020000fe
:1002b80090020000900200009002000090020000ee
:1002c80090020000900200009002000090020000de
:1002d80090020000900200009002000090020000ce
:1002e80090020000900200009002000090020000be
:1002f80090020000900200009002000090020000ae
:10030800900200009002000090020000900200009d
:10031800900200009002000090020000900200008d
:10032800900200009002000090020000900200007d
:10033800900200009002000090020000900200006d
:10034800900200009002000090020000900200005d
:10035800900200009002000090020000900200004d
:10036800900200009002000090020000900200003d
:10037800900200009002000090020000900200002d
:10038800900200009002000090020000900200001d
:10039800900200009002000090020000900200000d
:1003a80090020000900200009002000090020000fd
:1003b80090020000900200009002000090020000ed
:1003c80090020000900200009002000090020000dd
:1003d80090020000900200009002000090020000cd
:1003e80090020000900200009002000090020000bd
:0803f8009002000090020000d9
:020000040000fa
:103f2000504900004e470000424d0000535400002d
:103f3000414300004b4e0000000000000000000064
:103f40000000000000000000000000000000000071
:103f50000000000000000000000000000000000061
:103f6000000000000000000030300000414300006d
:103f70004b4e00003030000030300000384200006e
:103f80000d000000d57f0000aafe00002b8100007c
:103f900054290000fc56000083d7000002a800004e
:103fa0007d520000872d0000f8ac000079d300009e
:103fb000067b0000ae040000d185000050fa00002e
:103fc0002fa4000071db00000e5a00008f250000b6
:103fd000f08d000058f2000027730000a60c0000ce
:103fe000d9f60000238900005c080000dd7700009e
:103ff000a2df00000aa0000075210000f45e0000ae
:104000008b9d000048e2000037630000b61c0000f2
:10401000c9b4000061cb00001e4a00009f350000bb
:10402000e0cf00001ab0000065310000e44e00004f
:104030009be60000339900004c180000cd6700009b
:10404000b2390000ec46000093c7000012b800002f
:104050006d100000c56f0000baee00003b9100003b
:10406000446b0000be140000c195000040ea00004f
:104070003f420000973d0000e8bc000069c300001b
:1040800016ef00003a90000045110000c46e0000d9
:10409000bbc6000013b900006c380000ed470000fb
:1040a00092bd000068c2000017430000963c00006b
:1040b000e994000041eb00003e6a0000bf150000db
:1040c000c04b00009e340000e1b5000060ca000053
:1040d0001f620000b71d0000c89c000049e30000fb
:1040e00036190000cc660000b3e7000032980000eb
:1040f0004d300000e54f00009ace00001bb10000db
:1041000064720000a70d0000d88c000059f3000075
:10411000265b00008e240000f1a5000070da00008c
:104120000f200000f55f00008ade00000ba10000f8
:1041300074090000dc760000a3f70000228800006c
:104140005dd6000003a900007c280000fd57000098
:1041500082ff00002a80000055010000d47e00008c
:10416000ab84000051fb00002e7a0000af05000078
:10417000d0ad000078d2000007530000862c00006c
:10418000f925000078000000253000003478000098
:1041900000250000303200007800000025300000cb
:0841a00034660000000000007d
:020000040000fa
:1041a8000400fa00001680003000b30000168800f2
:1041b800401680000000a00040168800c4c2bf005e
:1041c8006140600020479800c4c2bf000080fb0027
:1041d8000000d1006140600010479800ccc2bf00c9
:1041e80061406000004f78001e00fb0000004000a6
:1041f800800078001e4090000000fb000080400016
:1042080000004000804078002e40900000c0400030
:104218000000fb000080fa00000006000e00fa0013
:104228006000b800100798002107980020c4b30068
:10423800004f9800daff07000043b000104f9800c5
:1042480020c4b30060479800d0c4b30070479800fa
:1042580000de2400010e2000500798006107980036
:10426800b4000700d400070011010700659b200077
:10427800340220003e009000ce0090005e019000c5
:10428800ee019000fc0407000000eb00000f78002e
:104298000000eb00000f78004a0037001e0078008d
:1042a800e501070000c1b300790207001cc9bf007f
:1042b8000004e000fdff3a000000000000000000dc
:1042c8001e007800000207006000b8001007980080
:1042d80021079800060037001e009000ae009000ed
:1042e80061004000e080480010079800210798000e
:1042f8001e019000ae019000f07022000100200025
:10430800800f5100818f5900f3ff36001e0078009e
:10431800c90107008041eb00420120008000eb004a
:1043280040c0b300240207001cc9bf000004e0001d
:10433800fdff3a0000000000000000001e007800a9
:10434800e10107006000b8001007980021079800f5
:10435800120037001e019000ae0190001e00900070
:10436800ae009000a103200080804000c091200092
:104378000080400090407800a09820000000410094
:10438800014878001e009000ae00900061004000d7
:10439800e080480010079800210798001e0190004f
:1043a800ae0190003001200001002000800f510074
:1043b800818f5900e7ff36001e0078003f02070092
:1043c8001e0fe800200020009e0f1000b3ff3400ed
:1043d80010002000000f78004a0037001e00780007
:1043e8009501070000c3b300290207001cc9bf00dc
:1043f8000004e000fdff3a0000000000000000009b
:104408001e007800b00107006000b800100798008f
:1044180021079800060037001e009000ae009000ab
:1044280061004000e08048001007980021079800cc
:104438001e019000ae019000f070220001002000e3
:10444800800f5100818f5900f3ff36001e0078005d
:10445800790107008041eb00820020008000eb001a
:1044680080c0b300d40107001cc9bf000004e000ed
:10447800fdff3a0000000000000000001e00780068
:10448800910107006000b800100798002107980004
:10449800120037001e019000ae0190001e0090002f
:1044a800ae009000a103200080804000c091200051
:1044b8000080400090407800809a20000000410071
:1044c800014878001e009000ae0090006100400096
:1044d800e080480010079800210798001e0190000e
:1044e800ae0190004000200001002000800f510024
:1044f800818f5900e7ff36001e00780099030700f6
:104508001e0fe800200020009e0f1000b3ff3400ab
:104518000000eb00000f780002003700b904070024
:104528001e0fe800900020009e0f1000fbff3400d3
:1045380055ff37000000fa000080eb0040168800a5
:10454800916c20009140780000ceb30000c060005c
:104558000034a000c9e6b700816c200091407800c3
:1045680000ceb30000c060007040b300c8e6b700da
:10457800816a20009140780000ceb30000c060003e
:104588007040b300a8e6b700c8e2a800c862a80057
:10459800c842a800c9a2a900c082a900c9c2a9002e
:1045a800cdc2a800c482a800cde2a800c9e2a90033
:1045b8000080fa00000006000200fa000000eb008c
:1045c800000f78000000eb00401288008540a90029
:1045d8009540a90042a2a8004382a90042e2a8008f
:1045e8004362a9004342a9004322a9004302a9004b
:1045f80042c2a800212420009140780030ceb300a8
:1046080000c060000024a00042e2b700212420007e
:1046180091407800c0cfb30000c060000004a00043
:1046280042e2b70045e2a9004422a80045a2a8003a
:1046380045c2a9000040eb001ce9b7000000eb00f0
:10464800000f78000e0037001e007800a10320003c
:1046580080804000c0912000808040000040eb0036
:10466800804878001e007800e8004000c0912000d3
:10467800808040000040eb00804878001e0fe80072
:10468800100320009e0f1000efff34000000eb0025
:10469800f04888000000eb000049880040c2a900eb
:1046a8009540a80041e2a8000080fa00000006003a
:1046b8000000fa000000eb00d04888000000eb0082
:1046c800d042880030003700d0428000110020001e
:1046d80004010700d04280006600b900800078001d
:1046e8008090200080804000e0c8b30080487800b7
:1046f800d04280006600b9008000e8008090200069
:10470800808040000040eb0080487800d042800064
:104718006600b9008080e80080902000808040001a
:104728000040eb0080487800d04280006600b90065
:10473800e3004000809020008080400000c0eb0033
:1047480080487800d04280006600b900e40040004c
:104758008090200080804000f0c5b3008048780039
:10476800d04280006600b900e5004000809020003b
:104778008080400020c9b30080487800d042800083
:104788000000e800d0428800d0428000e20f5000cc
:10479800cdff36000000eb00c0428800250037003e
:1047a800c0428000a40007000000eb00d04288004f
:1047b8000e003700d3428000c0428000d242800001
:1047c8006600b90082004000809020000080400010
:1047d8009040780000852000008041000148780062
:1047e800d04280000000e800d0428800d04280001b
:1047f800e50f5000efff3600000000000000000049
:1048080013c0b300620020000185200010c0b3006f
:10481800e90007001cc9bf000004e000fdff3a00e2
:10482800c0428000a8000700c04280000000e800e5
:10483800c0428800c0428000e20f5000d8ff360016
:104848000080fa00000006000000fa000000eb00fb
:10485800104888000000eb00204888000000eb00aa
:10486800704d88000000eb00200888008460a900d3
:10487800510a200091407800f0c8b30000c06000e1
:1048880001c4b30001407000a5e0b7009460a8001f
:104898000080eb001008880041102000914078004b
:1048a800f0ccb30000c0600001c2b300014070004a
:1048b80004e1b7000421a90005e1a8000080fa007e
:1048c800000006000200fa00004f780023c2bf0073
:1048d800614060000004e000fcff32001e80fb0025
:1048e800201188000080fa00000006000000fa008d
:1048f80022c2bf00614060000004e000fcff3200fb
:10490800301180000080fb000080fa0000000600e3
:104918000200fa00004f78009e40780061c06000f5
:10492800c700dd00cdc2bf000074a10001407000c7
:10493800cde2b7000080fa0000000600809fbe00ac
:10494800821f78003400f80000002000a0018800d1
:104958000000fa00004980000000e00003003a006f
:10496800401280005ce8b70008003700004980006a
:104978008000e9004012800000417800a103b000e7
:10498800c091200000804000024878000149800062
:10499800f0488000808f500003003a000040eb0090
:1049a8001ce9b70010003700104980000000e00043
:1049b8000800320000498000e8004000c091200053
:1049c80000804000104078000080fb004012880002
:1049d80002003700f00f20004012880000498000d4
:1049e8000000e800004988008540a9000080fa001e
:1049f8003400f9004f0178004f00be000040060067
:104a08000200fa00004f7800401280009ee8b700cc
:104a18001e80fb004012880040c2bf006140600059
:104a28000004e000fcff3200401280000080fb0020
:104a38000080fa00000006000200fa00000f78006b
:104a48001e007800d0488800d0488000e20f50004f
:104a580006003a00816a20009140780000ceb30039
:104a680000c060007040b300a8e6b700d0488000de
:104a7800e10f500006003a00816a2000914078005a
:104a880000ceb30000c060003040b300a8e6b70015
:104a9800d04880000000e00006003a00816a20004b
:104aa8009140780000ceb30000c060000014a00060
:104ab800a8e6b7008000eb001e0078000900070098
:104ac8000080fa00000006000200fa00000f7800db
:104ad800110020001e007800020007000080fa0084
:104ae800000006000600fa00000f78001107980081
:104af8001e007800200798002e009000e10f50005b
:104b0800120032002e009000e10f5000040039001e
:104b18002e009000e20f50001700320021003700ed
:104b28001e00900061406000614060004501dd00aa
:104b3800d12c200091407800f0cdb30000c0600077
:104b480002407000cde2b700190037001e00900047
:104b580061406000614060004401dd00412c20009c
:104b680091407800f0ceb30000c0600002407000b1
:104b7800c4e2b7000e0037001e00900061406000dc
:104b8800614060004601dd00d12c20009140780092
:104b9800f0cbb30000c0600002407000cde2b70067
:104ba800030037008000eb000000eb00cdff07009a
:104bb8000080fa00000006000800fa00004f7800a4
:104bc80011079800220798006347980001003700f2
:104bd800000000001cc9bf000004e000fcff3a0010
:104be8000040eb001ce9b7002e009000f048880058
:104bf8006e4090000080fb00104988001e4078003d
:104c080088e9b7006e4090000004e0001700320009
:104c18000040eb005de8b7000f0037005dc8bf003b
:104c28008081fb005dc8bf000080fb008000780029
:104c38001e0090000080400010417800e88041008c
:104c4800c091200000804000024878005dc8bf0085
:104c58000040e8005de8b7005dc8bf008080fb0049
:104c68002e009000808f5000ecff35000000eb0014
:104c78000049880010c0b3001ce9b70088c9bf000c
:104c88000080fb00401288000080fa000000060047
:104c98000200fa00004f78001e4078005ee8b70076
:104ca8005ec8bf008041eb000001eb008000eb0014
:104cb800c1ff07000080fa00000006000400fa00a7
:104cc800881f7800204798002e409000e24f50003f
:104cd80003003a000040eb00204798000500370029
:104ce8002e4090000004e00002003a0020c0b3000b
:104cf800204798000040eb0060e8b7000040eb0058
:104d08005fe8b7000040eb0062e8b7000a00370030
:104d180062c8bf000080fb00c200dd0040862000a2
:104d2800008140006000b8000089be0062c8bf0072
:104d38000040e80062e8b70062c8bf00e94f5000d1
:104d4800f3ff36000040eb0062e8b700330037009d
:104d58000040eb0061e8b7002a0037005fc8bf00d9
:104d6800ec4f500005003a0060c8bf000040e80062
:104d780060e8b7000040eb005fe8b70060c8bf001c
:104d88000082fb0060c8bf000080fb00c200dd009d
:104d980040862000008040001001be0062c8bf00ad
:104da8008080fb00a0982000008040001040780020
:104db8008080fb0061c8bf000080fb000088de0027
:104dc800e10060005fc8bf000080fb000008dd0054
:104dd800cf80de000001710081817100c220dd00fa
:104de80040862000008040000288be005fc8bf00e7
:104df8000040e8005fe8b70061c8bf000040e80075
:104e080061e8b70061c8bf00e74f5000d3ff360024
:104e180062c8bf000040e80062e8b70062c8bf008f
:104e2800ee4f5000caff36000040eb0062e8b700c2
:104e38005000370062c8bf000081fb002e40900080
:104e48000080fb006a00b900000f410062c8bf0083
:104e58000084fb0062c8bf000080fb00c200dd00c8
:104e680040862000008040001002be0084007800c8
:104e7800f0002000000bb8006020b900070178009e
:104e8800000141006f28b900000141008203780049
:104e9800a2002000030020000600be0035ee070037
:104ea8000001be00c240dd004086200000804000b6
:104eb8000288be001e04780062c8bf000080fb00a4
:104ec800c200dd0040862000008040001003be00c4
:104ed8008600780070442000000ab8006030b900ed
:104ee80005017800000141007044200000b8b900b5
:104ef800000141008202780080532b00310020001d
:104f08000400400085804800823e20000300200005
:104f180018ee070000017800080044006102200034
:104f280080804000008a200000804000020878004d
:104f38001e007800e50140001e00780000004000d7
:104f48006102200080804000008a2000008040002c
:104f5800100078000001780083804100609b2000e9
:104f6800008040000208780062c8bf000040e800e6
:104f780062e8b70062c8bf00e94f5000adff3600d5
:104f88004f0478000080fa00000006000600fa00ce
:104f9800400e2800001988000000eb001019880056
:104fa8000080eb002019880000302000401988009c
:104fb8002c63a9000000eb008019880020c3bf0003
:104fc800614060000004e000fcff32000080fa004d
:104fd800000006001e00fa006000b80050079800a4
:104fe80061079800e9ff070000188000000f98008b
:104ff8000e089000cf80de00eeed0700500f9800fd
:10500800610f98000e0890000000e00007003d00c6
:1050180002002000037824005e089000ee0890004b
:1050280010ee0700500f9800610f980032332300ec
:1050380033b523005e089000ee08900066ee070086
:105048003007980041079800020020000300240060
:105058003e009000ce00900093ee07000000e000b4
:1050680001003c0002003700c922a900cd22a90096
:1050780002002000a34724003e009000ce009000cc
:1050880055ee07008aee0700700798007e00900032
:10509800a2002000110009000280d8008000fd0055
:1050a800000f78007e009000a20020001100090087
:1050b8000280d80070079800400020009e0f100062
:1050c8001a0036007e0090000000e8007007980083
:1050d8007e009000cf80de00b6ed0700300f98000c
:1050e800410f98007e0090000000e00007003d009e
:1050f80002002000037824003e089000ce089000ab
:10510800d8ed0700300f9800410f980002002000ea
:10511800832c24003e089000ce08900085ee0700fe
:105128001007980021079800160037007e009000ad
:10513800cf80de009fed0700100f9800210f980028
:105148007e0090000000e00007003d000200200003
:10515800037824001e089000ae089000c1ed0700f7
:10516800100f9800210f980002002000832c2400c3
:105178001e089000ae0890006eee07001007980019
:1051880021079800628f2200c30124001e009000ae
:10519800ae009000b2ed070082142e00d322240046
:1051a8000dee0700500798006107980002002000e4
:1051b800a34724005e009000ee00900006ee070072
:1051c8003bee07007bed070010468800214688006b
:1051d80002002000031224005e009000ee00900000
:1051e800fded070095ee0700b04d88000080fa003d
:1051f800000006000400fa000000eb00000f780031
:105208000040eb008ce8b700104680002146800083
:1052180002002a00c368240023ee07000000e00013
:1052280001003c000200370010c0b3008ce8b70052
:10523800104680002146800002002a00c3682c0026
:1052480099ee07000000e000010035000200370079
:1052580010c0b3008ce8b7000000eb00000f780026
:105268000f0037001e0078004200dd00f200400009
:10527800008a2000008040001000be0002002000cc
:105288004323240008ee07000000e00001003c0072
:105298000200370010c0b3008ce8b7001e0fe8000a
:1052a800300020009e0f1000eeff34000000eb00dd
:1052b800000f7800190037001e0078000000400039
:1052c8006102200080804000008a200000804000a9
:1052d8009000780000e12000808f50000200340028
:1052e80010c0b3008ce8b7001e0078000000400032
:1052f8006102200080804000008a20000080400079
:1053080090007800b08f2000808f500002003c0091
:1053180010c0b3008ce8b7001e0fe800d1012000d0
:105328009e8f1000e4ff34008cc8bf008040eb0063
:10533800214798000004e00002003a0010c0b300c2
:10534800204798002e409000c700dd00cdc2bf0066
:105358000074a10001407000cde2b7000080fa009f
:10536800000006001200fa00004f7800a9c9bf002b
:105378000080fb006f006000c800dd00a8c9bf0006
:105388000080fb0000807000cf80de006289200072
:105398000089be00a9c9bf000080fb004400de00f0
:1053a8008080fb00aac9bf000080fb004400dd002c
:1053b80000807000cf80de00628920002001980004
:1053c80031019800608920001001be007207980022
:1053d800030f98007e0290008e0a9000e00f5200a2
:1053e800e08f5a00060035007e0090008e0890007d
:1053f800f0ec070050079800610798001600370086
:105408007e009000610160006000b8000300200089
:1054180002007000838070007e0290008e0a900067
:105428008501d1000481d3000200700083807000e0
:10543800e0ec070050079800610798005e019000b3
:10544800ee0190005e009000ee00900005ed070070
:1054580050079800610798000200200003fc230011
:105468005e009000ee0090005bed07000200200057
:1054780003122400afed0700e28820000089be0077
:105488006089200020019000b00190003207980048
:10549800430798003e029000ce029000e00f5200b1
:1054a800e08f5a00060035003e009000ce009000c4
:1054b800c0ec070010079800210798001600370075
:1054c8003e009000610160006000b8000300200009
:1054d80002007000838070003e029000ce029000af
:1054e8008501d1000481d300020070008380700020
:1054f800b0ec070010079800210798001e019000e3
:10550800ae0190001e009000ae009000d5ec0700a0
:1055180010079800210798000200200003fc2300d0
:105528001e009000ae0090002bed07000200200046
:10553800031224007fed0700e28820002001980074
:105548003101980025c0b3009ecf120023003a0015
:10555800e08820001000be0002002000a3472400bd
:105568001ded070052ed070092ec070090458800fa
:10557800a1458800e0882000b0009000200090003d
:1055880002002000a347240013ed070048ed0700a0
:1055980088ec0700b0458800c1458800e0882000f5
:1055a8001000be0002002000031224000aed0700cc
:1055b800a2ed0700c04d8800e0882000b0009000f0
:1055c80020009000020020000312240002ed0700d2
:1055d8009aed0700d04d88002500370010c0b300b1
:1055e8009e4f100022003a00e08820001000be0004
:1055f80002002000a3472400f7ec07002ced070069
:105608006cec0700d0458800e1458800e088200060
:10561800b00090002000900002002000a347240062
:10562800edec070022ed070062ec0700f04588006a
:1056380001468800e08820001000be00020020001b
:1056480003122400e4ec07007ced0700e04d88001d
:10565800e0882000b00090002000900002002000a8
:1056680003122400dcec070074ed0700f04d8800fd
:105678000080fa00000006000c00fa00009fbe003f
:105688000297be0044079800550798004e00900006
:10569800005688005e029000f455880060ab200038
:1056a8003e02be002e03be000498be000690be0057
:1056b80041168000f07f2f000080600040168800af
:1056c8000040eb00b1eab7000000eb00205688006c
:1056d8000040eb00c8eab7000040eb00b4eab700ae
:1056e8000040eb00c9eab70061168000f07f2f0088
:1056f80000806000601688000040eb00cbeab7002d
:1057080009003700cbcabf008080fb00d09f200073
:10571800808040000040eb0080487800cbcabf0082
:105728000040e800cbeab700cbcabf00ee4f5000fc
:10573800f4ff36000040eb00cbeab7000900370061
:10574800cbcabf008080fb0050aa200080804000a8
:105758000040eb0080487800cbcabf000040e8005a
:10576800cbeab700cbcabf00eb4f5000f4ff3600be
:105778002e009000be0090001a0407004b0407009a
:105788000080fa00000006000200fa00004f7800ce
:1057980023c2bf00624060000004e000fcff3a0042
:1057a8001e00fb00201188000080fa00000006009f
:1057b8000400fa00000f7800110798000040eb0081
:1057c800cbeab70008003700cbcabf000080fb0057
:1057d8001e00400010407800ebff0700cbcabf0056
:1057e8000040e800cbeab700cbcabf008080fb00ce
:1057f8001e009000808f5000f3ff35000080fa00f3
:10580800000006001800fa000000eb0040079800ae
:105818000040eb00c8eab700b4cabf000004e000cb
:105828000b003200205680008000e900d09f200045
:105838000080400010407800ed4f50000400320016
:10584800b1cabf00e54f500001003e00300107001b
:1058580095c0bf00684060000004e0002a013a00db
:1058680026013700b1cabf000080fb00300f980046
:105878003e089000e40f5000c40032003e0890003b
:10588800e40f500011003c003e089000e10f50006a
:105898003a0032003e089000e10f500004003c003e
:1058a8003e0890000000e0001500320013013700a8
:1058b8003e089000e20f5000500032003e08900071
:1058c800e30f5000970032000c0137003e089000ab
:1058d800e60f5000d50032003e089000e60f500059
:1058e800c20035003e089000e70f5000e500320086
:1058f8003e089000e80f5000f4003200ff00370027
:10590800c8cabf00e14f500017003e00ce0090000b
:10591800d09f200000804000104078000081fb00ec
:10592800c8cabf000080fb0061ab20000080e8000f
:1059380001004000104078000000fb00800f51007b
:1059480004003a00c8cabf000040e800c8eab7002f
:1059580001003700ee0007004e0090000000e8004c
:1059680040079800e500370010c0b300b1eab7005f
:105978000040eb00c8eab700e0003700c8cabf0023
:10598800e34f500010003e00c8cabf000081fb0072
:10599800ce009000d09f200000804000904078000a
:1059a8006a0047000000410001487800c8cabf00eb
:1059b8000040e800c8eab7004e0090000000e80088
:1059c80040079800cd0037006a004700e60007004e
:1059d8000004e0000700320020c0b300b1eab700bd
:1059e8000040eb00c8eab7000000eb0090558800c3
:1059f800c2003700c6000700c0003700c8cabf0091
:105a0800e34f50003d003e000000eb0030079800d7
:105a18001000200020079800ce009000d09f2000a2
:105a2800008040001040780020479800ae40900069
:105a3800f0c2b30080cf50000a003400ae4090009e
:105a480090c3b30080cf500006003c002e40900069
:105a58008000fb0000fd2f00008040003007980008
:105a680009003700ae40900000c4b30080cf50005a
:105a7800050034002e4090008000fb0090fc2f00b1
:105a8800008040003007980030c0b300cbeab70070
