:020000040000fa
:080000000002040000000000f2
:020000040000fa
:10000800c002000090020000960200009c0200005e
:10001800a2020000c0020000c0020000c0020000ee
:10002800c0020000c0020000c0020000c0020000c0
:10003800c0020000c0020000c0020000c0020000b0
:10004800c0020000c0020000c0020000c0020000a0
:10005800c0020000c0020000c0020000c002000090
:10006800c0020000c0020000c0020000c002000080
:10007800c0020000c0020000c0020000c002000070
:10008800c0020000c0020000c0020000c002000060
:10009800c0020000c0020000c0020000c002000050
:1000a800c0020000c0020000c0020000c002000040
:1000b800c0020000c0020000c0020000c002000030
:1000c800c0020000c0020000c0020000c002000020
:1000d800c0020000c0020000c0020000c002000010
:1000e800c0020000c0020000c0020000c002000000
:1000f800c0020000c0020000c0020000c0020000f0
:10010800c0020000c0020000c0020000c0020000df
:10011800c0020000c0020000c0020000c0020000cf
:10012800c0020000c0020000c0020000c0020000bf
:10013800c0020000c0020000c0020000c0020000af
:10014800c0020000c0020000c0020000c00200009f
:10015800c0020000c0020000c0020000c00200008f
:10016800c0020000c0020000c0020000c00200007f
:10017800c0020000c0020000c0020000c00200006f
:10018800c0020000c0020000c0020000c00200005f
:10019800c0020000c0020000c0020000c00200004f
:1001a800c0020000c0020000c0020000c00200003f
:1001b800c0020000c0020000c0020000c00200002f
:1001c800c0020000c0020000c0020000c00200001f
:1001d800c0020000c0020000c0020000c00200000f
:1001e800c0020000c0020000c0020000c0020000ff
:0801f800c0020000c00200007b
:020000040000fa
:10020800c0020000a8020000ae020000b402000014
:10021800ba020000c0020000c0020000c0020000d4
:10022800c0020000c0020000c0020000c0020000be
:10023800c0020000c0020000c0020000c0020000ae
:10024800c0020000c0020000c0020000c00200009e
:10025800c0020000c0020000c0020000c00200008e
:10026800c0020000c0020000c0020000c00200007e
:10027800c0020000c0020000c0020000c00200006e
:10028800c0020000c0020000c0020000c00200005e
:10029800c0020000c0020000c0020000c00200004e
:1002a800c0020000c0020000c0020000c00200003e
:1002b800c0020000c0020000c0020000c00200002e
:1002c800c0020000c0020000c0020000c00200001e
:1002d800c0020000c0020000c0020000c00200000e
:1002e800c0020000c0020000c0020000c0020000fe
:1002f800c0020000c0020000c0020000c0020000ee
:10030800c0020000c0020000c0020000c0020000dd
:10031800c0020000c0020000c0020000c0020000cd
:10032800c0020000c0020000c0020000c0020000bd
:10033800c0020000c0020000c0020000c0020000ad
:10034800c0020000c0020000c0020000c00200009d
:10035800c0020000c0020000c0020000c00200008d
:10036800c0020000c0020000c0020000c00200007d
:10037800c0020000c0020000c0020000c00200006d
:10038800c0020000c0020000c0020000c00200005d
:10039800c0020000c0020000c0020000c00200004d
:1003a800c0020000c0020000c0020000c00200003d
:1003b800c0020000c0020000c0020000c00200002d
:1003c800c0020000c0020000c0020000c00200001d
:1003d800c0020000c0020000c0020000c00200000d
:1003e800c0020000c0020000c0020000c0020000fd
:0803f800c0020000c002000079
:020000040000fa
:100400000f8020000e7f22000e01880000000000f7
:100410000c000700c044200001002000110007006c
:10042000000020000000e000020032000000020096
:1004300000000000da030200000000000040da00c3
:100440000000fe004440a900000020000000e00081
:100450000300320000002000a00188004440a800f2
:100460000000060091018800800078000000eb0089
:1004700015003700e280400032a0b4009101ba00bc
:10048000e280400032a0b4009102ba00e280400055
:1004900032a0b4000002eb00472bde00f507b200eb
:1004a000602ce10004003a000059eb008301e900f0
:1004b000fdff3e00040037006128e100010032002a
:1004c0000082eb00040007001101ba000200e00006
:1004d000e8ff3a00000006003159ba008301e90044
:1004e0000c0032002159ba008301e90008003200f3
:1004f0000400e00003003a00e280400032a0b400b3
:10050000f5ff370011d9ba008301e900faff3a007c
:100510008100e800e180400032a0b4000000060045
:100520000000fa008020a900ffff37000000fa0059
:100530008060a900ffff37000000fa008040a9009a
:10054000ffff37000000fa008080a900ffff37009e
:100550000000fa008020a900ffff37000000fa0029
:100560008060a900ffff37000000fa008040a9006a
:10057000ffff37000000fa008080a900ffff37006e
:080580000000fa00ffff370044
:020000040000fa
:100588000200fa00000f78001e0078004300dd002a
:1005980068006000e00f50000300340010002000e5
:1005a80036000700020037000000eb0033000700a8
:1005b8001e0078004200dd0068006000e00f500077
:1005c800030034001000200022000700020037005a
:1005d8000000eb001f0007009e00780068806000a4
:1005e800e00f500003003400100020000500070051
:1005f800020037000000eb00020007000080fa004c
:10060800000006000200fa00000f78001e007800c3
:10061800e10f500002003a00c402a80001003700b0
:10062800c402a9000080fa00000006000200fa00d7
:10063800000f78001e007800e10f500002003a0019
:10064800c422a80001003700c422a9000080fa00d3
:10065800000006000200fa00000f78001e00780073
:10066800e10f500002003a00c462a8000100370000
:10067800c462a9000080fa00000006000200fa0027
:10068800000f78001e007800e10f500002003a00c9
:10069800c482a80001003700c482a9000080fa00c3
:1006a800000006000600fa00200798000000eb0092
:1006b80010079800cde2a800cde2a900cdc2a8009d
:1006c80035000700cdc2a800330007000000eb008a
:1006d800000f780015003700210020001e80500010
:1006e800110020008008dd002e009000808060004e
:1006f800220020001e0051000088de000040780023
:10070800614060000080fb00610060004e00dd0079
:1007180062168000f1ff2b008100610000807000ec
:10072800601688001c0007001e0fe8001e007800f5
:10073800e20f5000e8ff340017000700160007001a
:100748000000eb00000f78000c00370012000700d3
:100758001e0090000000400010079800501680000e
:100768004d00de00614060000080fb009e009000ac
:1007780000807000100798001e0fe8001e00780027
:10078800e90f5000f1ff3400cde2a8001e009000f0
:100798000080fa00000006000000fa00cd82a900df
:1007a800cd82a8000080fa00000006000800fa00c8
:1007b8001e0007006000b800008fbe001000200077
:1007c800200798000000eb00300798000071220015
:1007d800010020001e01be00800f5100818f5900ca
:1007e800070034003e0090000000e8003007980041
:1007f8003e009000200798006000b800008fbe00ff
:1008080010002000010020001e0f40005e974800e5
:100818002e0090005aff07002e00900011000700dc
:100828000000eb009fff0700e8ff37000000fa0018
:10083800c002a900c022a900c062a900c082a90004
:10084800c8a2a900c982a900c9a2a800c9c2a90052
:10085800c9e2a9000080eb00601988000080fa0056
:10086800000006000200fa00000f78009e007800e1
:1008780068806000e00f500002003400cca2a9009c
:1008880001003700cca2a8000080fa000000060092
:020000040000fa
:04089800000000005c
:020000040000fa
:0200000401f009
:04000000cf0000002d
:020000040000fa
:0200000401f009
:04000400cf00000029
:020000040000fa
:0200000401f009
:0400080007000000ed
:020000040000fa
:0200000401f009
:04000c008700000069
:020000040000fa
:0200000401f009
:040010008300000069
:020000040000fa
:0200000401f009
:040014005f00000089
:020000040000fa
:0200000401f009
:04001800f7000000ed
:020000040000fa
:0200000401f009
:04001c00dfff000002
:00000001FF
